{
  "address": "0xc5241aADbD49e3E53DC6549Cb7BA24E9d3559826",
  "abi": [
    {
      "inputs": [
        {
          "internalType": "address",
          "name": "_oracle",
          "type": "address"
        },
        {
          "internalType": "address",
          "name": "_token",
          "type": "address"
        }
      ],
      "stateMutability": "nonpayable",
      "type": "constructor"
    },
    {
      "anonymous": false,
      "inputs": [
        {
          "indexed": false,
          "internalType": "address",
          "name": "token",
          "type": "address"
        },
        {
          "indexed": false,
          "internalType": "uint256",
          "name": "price",
          "type": "uint256"
        },
        {
          "indexed": false,
          "internalType": "uint256",
          "name": "average",
          "type": "uint256"
        }
      ],
      "name": "PriceUpdate",
      "type": "event"
    },
    {
      "inputs": [],
      "name": "DECIMAL_PRECISION",
      "outputs": [
        {
          "internalType": "uint256",
          "name": "",
          "type": "uint256"
        }
      ],
      "stateMutability": "view",
      "type": "function"
    },
    {
      "inputs": [],
      "name": "LIQUIDATION_RESERVE",
      "outputs": [
        {
          "internalType": "uint256",
          "name": "",
          "type": "uint256"
        }
      ],
      "stateMutability": "view",
      "type": "function"
    },
    {
      "inputs": [],
      "name": "MAX_BORROWING_RATE",
      "outputs": [
        {
          "internalType": "uint256",
          "name": "",
          "type": "uint256"
        }
      ],
      "stateMutability": "view",
      "type": "function"
    },
    {
      "inputs": [],
      "name": "MAX_INT",
      "outputs": [
        {
          "internalType": "uint256",
          "name": "",
          "type": "uint256"
        }
      ],
      "stateMutability": "view",
      "type": "function"
    },
    {
      "inputs": [],
      "name": "MAX_REDEMPTION_RATE",
      "outputs": [
        {
          "internalType": "uint256",
          "name": "",
          "type": "uint256"
        }
      ],
      "stateMutability": "view",
      "type": "function"
    },
    {
      "inputs": [],
      "name": "PERCENT",
      "outputs": [
        {
          "internalType": "uint256",
          "name": "",
          "type": "uint256"
        }
      ],
      "stateMutability": "view",
      "type": "function"
    },
    {
      "inputs": [],
      "name": "PERCENT10",
      "outputs": [
        {
          "internalType": "uint256",
          "name": "",
          "type": "uint256"
        }
      ],
      "stateMutability": "view",
      "type": "function"
    },
    {
      "inputs": [],
      "name": "PERCENT_05",
      "outputs": [
        {
          "internalType": "uint256",
          "name": "",
          "type": "uint256"
        }
      ],
      "stateMutability": "view",
      "type": "function"
    },
    {
      "inputs": [],
      "name": "emitPriceSignal",
      "outputs": [],
      "stateMutability": "nonpayable",
      "type": "function"
    },
    {
      "inputs": [],
      "name": "oracle",
      "outputs": [
        {
          "internalType": "contract AggregatorV2V3Interface",
          "name": "",
          "type": "address"
        }
      ],
      "stateMutability": "view",
      "type": "function"
    },
    {
      "inputs": [],
      "name": "precision",
      "outputs": [
        {
          "internalType": "uint256",
          "name": "",
          "type": "uint256"
        }
      ],
      "stateMutability": "view",
      "type": "function"
    },
    {
      "inputs": [],
      "name": "price",
      "outputs": [
        {
          "internalType": "uint256",
          "name": "",
          "type": "uint256"
        }
      ],
      "stateMutability": "view",
      "type": "function"
    },
    {
      "inputs": [],
      "name": "pricePoint",
      "outputs": [
        {
          "internalType": "uint256",
          "name": "",
          "type": "uint256"
        }
      ],
      "stateMutability": "view",
      "type": "function"
    },
    {
      "inputs": [],
      "name": "token",
      "outputs": [
        {
          "internalType": "address",
          "name": "",
          "type": "address"
        }
      ],
      "stateMutability": "view",
      "type": "function"
    },
    {
      "inputs": [],
      "name": "updateThreshold",
      "outputs": [
        {
          "internalType": "uint256",
          "name": "",
          "type": "uint256"
        }
      ],
      "stateMutability": "view",
      "type": "function"
    }
  ],
  "transactionHash": "0xb6a698435aef334a32bb6d216b1a0f64930442443b89759c7addff5d9d0422c7",
  "args": [
    "0xfE4A8cc5b5B2366C1B58Bea3858e81843581b2F7",
    "0x2791Bca1f2de4661ED88A30C99A7a9449Aa84174"
  ],
  "numDeployments": 2,
  "solcInputHash": "bf05b26306ff160248eca878436fd88c",
  "bytecode": "0x60e0604052620151806000553480156200001857600080fd5b5060405162000978380380620009788339810160408190526200003b9162000226565b6001600160a01b038216620000a65760405162461bcd60e51b815260206004820152602660248201527f653236333762205f6f7261636c65206d757374206e6f7420626520616464726560448201526507373203078360d41b60648201526084015b60405180910390fd5b6001600160a01b0381166200010c5760405162461bcd60e51b815260206004820152602560248201527f653236333762205f746f6b656e206d757374206e6f7420626520616464726573604482015264073203078360dc1b60648201526084016200009d565b6001600160a01b0380821660a052821660808190526040805163313ce56760e01b815290516000929163313ce5679160048083019260209291908290030181865afa15801562000160573d6000803e3d6000fd5b505050506040513d601f19601f820116820180604052508101906200018691906200025e565b905060008160ff1611620001ef5760405162461bcd60e51b815260206004820152602960248201527f65323633376220646563696d616c73206d757374206265206120706f736974696044820152683b3290373ab6b132b960b91b60648201526084016200009d565b620001fc81600a6200039f565b60c05250620003b0915050565b80516001600160a01b03811681146200022157600080fd5b919050565b600080604083850312156200023a57600080fd5b620002458362000209565b9150620002556020840162000209565b90509250929050565b6000602082840312156200027157600080fd5b815160ff811681146200028357600080fd5b9392505050565b634e487b7160e01b600052601160045260246000fd5b600181815b80851115620002e1578160001904821115620002c557620002c56200028a565b80851615620002d357918102915b93841c9390800290620002a5565b509250929050565b600082620002fa5750600162000399565b81620003095750600062000399565b81600181146200032257600281146200032d576200034d565b600191505062000399565b60ff8411156200034157620003416200028a565b50506001821b62000399565b5060208310610133831016604e8410600b841016171562000372575081810a62000399565b6200037e8383620002a0565b80600019048211156200039557620003956200028a565b0290505b92915050565b60006200028360ff841683620002e9565b60805160a05160c051610583620003f5600039600081816101b9015261034b0152600081816101e001526103b0015260008181610123015261023a01526105836000f3fe608060405234801561001057600080fd5b50600436106100f55760003560e01c8063a20baee611610097578063ad09014d11610066578063ad09014d146101ac578063b85a8b2014610116578063d3b5dc3b146101b4578063fc0c546a146101db57600080fd5b8063a20baee61461016a578063ab96f86a14610192578063abdc55411461019c578063aceb2d04146101a457600080fd5b8063923c1eec116100d3578063923c1eec1461016a5780639407f5cb14610179578063a013991c14610182578063a035b1fe1461018a57600080fd5b8063098d3228146100fa5780634bb97042146101165780637dc0d1d01461011e575b600080fd5b61010360001981565b6040519081526020015b60405180910390f35b610103610202565b6101457f000000000000000000000000000000000000000000000000000000000000000081565b60405173ffffffffffffffffffffffffffffffffffffffff909116815260200161010d565b610103670de0b6b3a764000081565b61010360005481565b610103610224565b610103610233565b61019a61038d565b005b610103610416565b61010361042b565b61010361044c565b6101037f000000000000000000000000000000000000000000000000000000000000000081565b6101457f000000000000000000000000000000000000000000000000000000000000000081565b6064610217670de0b6b3a7640000600161048c565b61022191906104a9565b81565b600061022e610233565b905090565b60008060007f000000000000000000000000000000000000000000000000000000000000000073ffffffffffffffffffffffffffffffffffffffff1663feaf968c6040518163ffffffff1660e01b815260040160a060405180830381865afa1580156102a3573d6000803e3d6000fd5b505050506040513d601f19601f820116820180604052508101906102c791906104ea565b5093505092505060005481426102dd919061053a565b1115610349576040517f08c379a000000000000000000000000000000000000000000000000000000000815260206004820152600e60248201527f70726963652d6f75746461746564000000000000000000000000000000000000604482015260640160405180910390fd5b7f000000000000000000000000000000000000000000000000000000000000000061037c670de0b6b3a76400008461048c565b61038691906104a9565b9250505090565b7fac7b695c6873047ad50339f850f4ae3f6b8f6ef63ed1a8b22f7d36a1c6bd46f37f00000000000000000000000000000000000000000000000000000000000000006103d7610233565b6103df610233565b6040805173ffffffffffffffffffffffffffffffffffffffff909416845260208401929092529082015260600160405180910390a1565b6064610217670de0b6b3a7640000600561048c565b60026064610442670de0b6b3a7640000600161048c565b61021791906104a9565b6064610461670de0b6b3a7640000600161048c565b61046b91906104a9565b61022190600a61048c565b634e487b7160e01b600052601160045260246000fd5b80820281158282048414176104a3576104a3610476565b92915050565b6000826104c657634e487b7160e01b600052601260045260246000fd5b500490565b805169ffffffffffffffffffff811681146104e557600080fd5b919050565b600080600080600060a0868803121561050257600080fd5b61050b866104cb565b945060208601519350604086015192506060860151915061052e608087016104cb565b90509295509295909350565b818103818111156104a3576104a361047656fea2646970667358221220fcfebe1b2c705d49a1bb1a8cd1fcb59a025d29be362c3ede2bc9d0fe86faa3f564736f6c63430008130033",
  "devdoc": {
    "kind": "dev",
    "methods": {},
    "version": 1
  },
  "userdoc": {
    "kind": "user",
    "methods": {},
    "version": 1
  },
  "storageLayout": {
    "storage": [
      {
        "astId": 259,
        "contract": "contracts/oracles/ChainlinkPriceFeed.sol:ChainlinkPriceFeed",
        "label": "updateThreshold",
        "offset": 0,
        "slot": "0",
        "type": "t_uint256"
      }
    ],
    "types": {
      "t_uint256": {
        "encoding": "inplace",
        "label": "uint256",
        "numberOfBytes": "32"
      }
    }
  }
}