{
  "address": "0x65c6fd9b3a2a892096881e28f07c732ed128893e",
  "abi": [
    {
      "anonymous": false,
      "inputs": [
        {
          "indexed": true,
          "internalType": "address",
          "name": "previousOwner",
          "type": "address"
        },
        {
          "indexed": true,
          "internalType": "address",
          "name": "newOwner",
          "type": "address"
        }
      ],
      "name": "OwnershipTransferred",
      "type": "event"
    },
    {
      "anonymous": false,
      "inputs": [
        {
          "indexed": true,
          "internalType": "address",
          "name": "_vaultFactory",
          "type": "address"
        }
      ],
      "name": "VaultFactoryUpdated",
      "type": "event"
    },
    {
      "inputs": [
        {
          "internalType": "address",
          "name": "_allowed",
          "type": "address"
        }
      ],
      "name": "addAllowed",
      "outputs": [],
      "stateMutability": "nonpayable",
      "type": "function"
    },
    {
      "inputs": [
        {
          "internalType": "uint256",
          "name": "_amount",
          "type": "uint256"
        }
      ],
      "name": "addBadDebt",
      "outputs": [],
      "stateMutability": "nonpayable",
      "type": "function"
    },
    {
      "inputs": [
        {
          "internalType": "address",
          "name": "_collateral",
          "type": "address"
        },
        {
          "internalType": "uint256",
          "name": "_amount",
          "type": "uint256"
        }
      ],
      "name": "addCollateral",
      "outputs": [],
      "stateMutability": "nonpayable",
      "type": "function"
    },
    {
      "inputs": [
        {
          "internalType": "uint256",
          "name": "_index",
          "type": "uint256"
        }
      ],
      "name": "allowedAt",
      "outputs": [
        {
          "internalType": "address",
          "name": "",
          "type": "address"
        }
      ],
      "stateMutability": "view",
      "type": "function"
    },
    {
      "inputs": [],
      "name": "allowedLength",
      "outputs": [
        {
          "internalType": "uint256",
          "name": "",
          "type": "uint256"
        }
      ],
      "stateMutability": "view",
      "type": "function"
    },
    {
      "inputs": [],
      "name": "badDebt",
      "outputs": [
        {
          "internalType": "uint256",
          "name": "",
          "type": "uint256"
        }
      ],
      "stateMutability": "view",
      "type": "function"
    },
    {
      "inputs": [
        {
          "internalType": "address",
          "name": "",
          "type": "address"
        }
      ],
      "name": "collateral",
      "outputs": [
        {
          "internalType": "uint256",
          "name": "",
          "type": "uint256"
        }
      ],
      "stateMutability": "view",
      "type": "function"
    },
    {
      "inputs": [
        {
          "internalType": "uint256",
          "name": "_index",
          "type": "uint256"
        }
      ],
      "name": "collateralAt",
      "outputs": [
        {
          "internalType": "address",
          "name": "",
          "type": "address"
        }
      ],
      "stateMutability": "view",
      "type": "function"
    },
    {
      "inputs": [],
      "name": "collateralLength",
      "outputs": [
        {
          "internalType": "uint256",
          "name": "",
          "type": "uint256"
        }
      ],
      "stateMutability": "view",
      "type": "function"
    },
    {
      "inputs": [
        {
          "internalType": "address",
          "name": "_vault",
          "type": "address"
        },
        {
          "internalType": "uint256",
          "name": "_amount",
          "type": "uint256"
        }
      ],
      "name": "distributeBadDebt",
      "outputs": [],
      "stateMutability": "nonpayable",
      "type": "function"
    },
    {
      "inputs": [],
      "name": "owner",
      "outputs": [
        {
          "internalType": "address",
          "name": "",
          "type": "address"
        }
      ],
      "stateMutability": "view",
      "type": "function"
    },
    {
      "inputs": [
        {
          "internalType": "address",
          "name": "_allowed",
          "type": "address"
        }
      ],
      "name": "removeAllowed",
      "outputs": [],
      "stateMutability": "nonpayable",
      "type": "function"
    },
    {
      "inputs": [],
      "name": "renounceOwnership",
      "outputs": [],
      "stateMutability": "nonpayable",
      "type": "function"
    },
    {
      "inputs": [
        {
          "internalType": "uint256",
          "name": "_amount",
          "type": "uint256"
        }
      ],
      "name": "repayBadDebt",
      "outputs": [],
      "stateMutability": "nonpayable",
      "type": "function"
    },
    {
      "inputs": [
        {
          "internalType": "address",
          "name": "_vaultFactory",
          "type": "address"
        }
      ],
      "name": "setVaultFactory",
      "outputs": [],
      "stateMutability": "nonpayable",
      "type": "function"
    },
    {
      "inputs": [
        {
          "internalType": "address",
          "name": "newOwner",
          "type": "address"
        }
      ],
      "name": "transferOwnership",
      "outputs": [],
      "stateMutability": "nonpayable",
      "type": "function"
    },
    {
      "inputs": [],
      "name": "vaultFactory",
      "outputs": [
        {
          "internalType": "address",
          "name": "",
          "type": "address"
        }
      ],
      "stateMutability": "view",
      "type": "function"
    },
    {
      "inputs": [
        {
          "internalType": "address",
          "name": "_collateral",
          "type": "address"
        },
        {
          "internalType": "uint256",
          "name": "_amount",
          "type": "uint256"
        },
        {
          "internalType": "address",
          "name": "_to",
          "type": "address"
        }
      ],
      "name": "withdrawCollateral",
      "outputs": [],
      "stateMutability": "nonpayable",
      "type": "function"
    }
  ],
  "transactionHash": "0x41be5f71b3aaf4d1534ad9ff5ba024c9e1a75cc5c39c3f1450f16dd098844fa9",
  "args": [],
  "numDeployments": 1,
  "solcInputHash": "3d7ac3cd8c655c7d05e6510673d0ef5d",
  "bytecode": "0x608060405234801561001057600080fd5b5061001a33610023565b60018055610073565b600080546001600160a01b038381166001600160a01b0319831681178455604051919092169283917f8be0079c531659141344cd1fd0a4f28419497f9722a3daafe3b4186f6b6457e09190a35050565b6113b8806100826000396000f3fe608060405234801561001057600080fd5b50600436106101365760003560e01c8063715018a6116100b2578063bbcac55711610081578063d1400f6811610066578063d1400f6814610265578063d8a06f7314610278578063f2fde38b1461028b57600080fd5b8063bbcac55714610249578063cb8523c61461025257600080fd5b8063715018a6146101fd5780637ed57d47146102055780638da5cb5b14610218578063a5fdc5de1461022957600080fd5b806359b423be116101095780636b5bc994116100ee5780636b5bc994146101cf5780636d75b9ee146101e25780636ed6b89e146101f557600080fd5b806359b423be146101a65780636470db2f146101bc57600080fd5b8063096161821461013b5780631f1088a01461016b5780631f665646146101805780633ea7fbdb14610193575b600080fd5b61014e6101493660046111af565b61029e565b6040516001600160a01b0390911681526020015b60405180910390f35b61017e6101793660046111dd565b6102b1565b005b61014e61018e3660046111af565b6103c4565b61017e6101a136600461121f565b6103d1565b6101ae610486565b604051908152602001610162565b61017e6101ca36600461121f565b610497565b61017e6101dd3660046111af565b6104f3565b61017e6101f036600461123c565b610590565b6101ae6106bb565b61017e6106c7565b61017e6102133660046111af565b6106db565b6000546001600160a01b031661014e565b6101ae61023736600461121f565b60076020526000908152604090205481565b6101ae60085481565b61017e61026036600461121f565b610896565b61017e61027336600461123c565b6108ee565b60065461014e906001600160a01b031681565b61017e61029936600461121f565b610b04565b60006102ab600483610b94565b92915050565b6102b9610ba7565b6001600160a01b0383166103145760405162461bcd60e51b815260206004820152600f60248201527f636f6c6c61746572616c2d69732d30000000000000000000000000000000000060448201526064015b60405180910390fd5b600082116103525760405162461bcd60e51b815260206004820152600b60248201526a0616d6f756e742d69732d360ac1b604482015260640161030b565b6001600160a01b0383166000908152600760205260408120805484929061037a90849061127e565b90915550506001600160a01b03831660009081526007602052604081205490036103ab576103a9600284610c01565b505b6103bf6001600160a01b0384168284610c16565b505050565b60006102ab600283610b94565b6103d9610ba7565b6001600160a01b03811661042f5760405162461bcd60e51b815260206004820152601260248201527f7661756c742d666163746f72792d69732d300000000000000000000000000000604482015260640161030b565b6006805473ffffffffffffffffffffffffffffffffffffffff19166001600160a01b0383169081179091556040517f4618618bd25d53d81b13f8ebde476031681bbb9f5b409de00b6bca9656f96f4790600090a250565b60006104926002610cbf565b905090565b61049f610ba7565b6001600160a01b0381166104e45760405162461bcd60e51b815260206004820152600c60248201526b0616c6c6f7765642d69732d360a41b604482015260640161030b565b6104ef600482610c01565b5050565b6104fe600433610cc9565b6105385760405162461bcd60e51b815260206004820152600b60248201526a1b9bdd0b585b1b1bddd95960aa1b604482015260640161030b565b600081116105765760405162461bcd60e51b815260206004820152600b60248201526a0616d6f756e742d69732d360ac1b604482015260640161030b565b80600860008282546105889190611291565b909155505050565b61059b600433610cc9565b6105d55760405162461bcd60e51b815260206004820152600b60248201526a1b9bdd0b585b1b1bddd95960aa1b604482015260640161030b565b6001600160a01b03821661062b5760405162461bcd60e51b815260206004820152600f60248201527f636f6c6c61746572616c2d69732d300000000000000000000000000000000000604482015260640161030b565b600081116106695760405162461bcd60e51b815260206004820152600b60248201526a0616d6f756e742d69732d360ac1b604482015260640161030b565b610674600283610ceb565b5061068a6001600160a01b038316333084610d00565b6001600160a01b038216600090815260076020526040812080548392906106b2908490611291565b90915550505050565b60006104926004610cbf565b6106cf610ba7565b6106d96000610d57565b565b6106e3610ba7565b600081116107215760405162461bcd60e51b815260206004820152600b60248201526a0616d6f756e742d69732d360ac1b604482015260640161030b565b6008548111156107735760405162461bcd60e51b815260206004820152600f60248201527f616d6f756e742d746f6f2d686967680000000000000000000000000000000000604482015260640161030b565b600654604080517f22be3de100000000000000000000000000000000000000000000000000000000815290516000926001600160a01b0316916322be3de19160048083019260209291908290030181865afa1580156107d6573d6000803e3d6000fd5b505050506040513d601f19601f820116820180604052508101906107fa91906112a4565b90506108116001600160a01b038216333085610d00565b6040517f42966c68000000000000000000000000000000000000000000000000000000008152600481018390526001600160a01b038216906342966c6890602401600060405180830381600087803b15801561086c57600080fd5b505af1158015610880573d6000803e3d6000fd5b5050505081600860008282546106b2919061127e565b61089e610ba7565b6001600160a01b0381166108e35760405162461bcd60e51b815260206004820152600c60248201526b0616c6c6f7765642d69732d360a41b604482015260640161030b565b6104ef600482610ceb565b6108f6610ba7565b6001600160a01b03821661094c5760405162461bcd60e51b815260206004820152600a60248201527f7661756c742d69732d3000000000000000000000000000000000000000000000604482015260640161030b565b6000811161098a5760405162461bcd60e51b815260206004820152600b60248201526a0616d6f756e742d69732d360ac1b604482015260640161030b565b6008548111156109dc5760405162461bcd60e51b815260206004820152600f60248201527f616d6f756e742d746f6f2d686967680000000000000000000000000000000000604482015260640161030b565b80600860008282546109ee919061127e565b9091555050600654604080517f679fda7000000000000000000000000000000000000000000000000000000000815290516001600160a01b0390921691600091839163679fda70916004808201926020929091908290030181865afa158015610a5b573d6000803e3d6000fd5b505050506040513d601f19601f82011682018060405250810190610a7f91906112a4565b6040517fd1400f680000000000000000000000000000000000000000000000000000000081526001600160a01b038681166004830152602482018690529192509082169063d1400f6890604401600060405180830381600087803b158015610ae657600080fd5b505af1158015610afa573d6000803e3d6000fd5b5050505050505050565b610b0c610ba7565b6001600160a01b038116610b885760405162461bcd60e51b815260206004820152602660248201527f4f776e61626c653a206e6577206f776e657220697320746865207a65726f206160448201527f6464726573730000000000000000000000000000000000000000000000000000606482015260840161030b565b610b9181610d57565b50565b6000610ba08383610db4565b9392505050565b6000546001600160a01b031633146106d95760405162461bcd60e51b815260206004820181905260248201527f4f776e61626c653a2063616c6c6572206973206e6f7420746865206f776e6572604482015260640161030b565b6000610ba0836001600160a01b038416610dde565b6040516001600160a01b0383166024820152604481018290526103bf9084907fa9059cbb00000000000000000000000000000000000000000000000000000000906064015b60408051601f198184030181529190526020810180517bffffffffffffffffffffffffffffffffffffffffffffffffffffffff167fffffffff0000000000000000000000000000000000000000000000000000000090931692909217909152610ed1565b60006102ab825490565b6001600160a01b03811660009081526001830160205260408120541515610ba0565b6000610ba0836001600160a01b038416610fb9565b6040516001600160a01b0380851660248301528316604482015260648101829052610d519085907f23b872dd0000000000000000000000000000000000000000000000000000000090608401610c5b565b50505050565b600080546001600160a01b0383811673ffffffffffffffffffffffffffffffffffffffff19831681178455604051919092169283917f8be0079c531659141344cd1fd0a4f28419497f9722a3daafe3b4186f6b6457e09190a35050565b6000826000018281548110610dcb57610dcb6112c1565b9060005260206000200154905092915050565b60008181526001830160205260408120548015610ec7576000610e0260018361127e565b8554909150600090610e169060019061127e565b9050818114610e7b576000866000018281548110610e3657610e366112c1565b9060005260206000200154905080876000018481548110610e5957610e596112c1565b6000918252602080832090910192909255918252600188019052604090208390555b8554869080610e8c57610e8c6112d7565b6001900381819060005260206000200160009055905585600101600086815260200190815260200160002060009055600193505050506102ab565b60009150506102ab565b6000610f26826040518060400160405280602081526020017f5361666545524332303a206c6f772d6c6576656c2063616c6c206661696c6564815250856001600160a01b03166110089092919063ffffffff16565b9050805160001480610f47575080806020019051810190610f4791906112ed565b6103bf5760405162461bcd60e51b815260206004820152602a60248201527f5361666545524332303a204552433230206f7065726174696f6e20646964206e60448201527f6f74207375636365656400000000000000000000000000000000000000000000606482015260840161030b565b6000818152600183016020526040812054611000575081546001818101845560008481526020808220909301849055845484825282860190935260409020919091556102ab565b5060006102ab565b6060611017848460008561101f565b949350505050565b6060824710156110975760405162461bcd60e51b815260206004820152602660248201527f416464726573733a20696e73756666696369656e742062616c616e636520666f60448201527f722063616c6c0000000000000000000000000000000000000000000000000000606482015260840161030b565b600080866001600160a01b031685876040516110b39190611333565b60006040518083038185875af1925050503d80600081146110f0576040519150601f19603f3d011682016040523d82523d6000602084013e6110f5565b606091505b509150915061110687838387611111565b979650505050505050565b60608315611180578251600003611179576001600160a01b0385163b6111795760405162461bcd60e51b815260206004820152601d60248201527f416464726573733a2063616c6c20746f206e6f6e2d636f6e7472616374000000604482015260640161030b565b5081611017565b61101783838151156111955781518083602001fd5b8060405162461bcd60e51b815260040161030b919061134f565b6000602082840312156111c157600080fd5b5035919050565b6001600160a01b0381168114610b9157600080fd5b6000806000606084860312156111f257600080fd5b83356111fd816111c8565b9250602084013591506040840135611214816111c8565b809150509250925092565b60006020828403121561123157600080fd5b8135610ba0816111c8565b6000806040838503121561124f57600080fd5b823561125a816111c8565b946020939093013593505050565b634e487b7160e01b600052601160045260246000fd5b818103818111156102ab576102ab611268565b808201808211156102ab576102ab611268565b6000602082840312156112b657600080fd5b8151610ba0816111c8565b634e487b7160e01b600052603260045260246000fd5b634e487b7160e01b600052603160045260246000fd5b6000602082840312156112ff57600080fd5b81518015158114610ba057600080fd5b60005b8381101561132a578181015183820152602001611312565b50506000910152565b6000825161134581846020870161130f565b9190910192915050565b602081526000825180602084015261136e81604085016020870161130f565b601f01601f1916919091016040019291505056fea2646970667358221220950fc6141a52b7b4b300fd3020d048d62d8db8fc72623aef4fd0fb8efe3fc7a764736f6c63430008130033",
  "devdoc": {
    "kind": "dev",
    "methods": {
      "owner()": {
        "details": "Returns the address of the current owner."
      },
      "renounceOwnership()": {
        "details": "Leaves the contract without owner. It will not be possible to call `onlyOwner` functions. Can only be called by the current owner. NOTE: Renouncing ownership will leave the contract without an owner, thereby disabling any functionality that is only available to the owner."
      },
      "transferOwnership(address)": {
        "details": "Transfers ownership of the contract to a new account (`newOwner`). Can only be called by the current owner."
      }
    },
    "version": 1
  },
  "userdoc": {
    "kind": "user",
    "methods": {},
    "version": 1
  },
  "storageLayout": {
    "storage": [
      {
        "astId": 110,
        "contract": "contracts/LastResortLiquidation.sol:LastResortLiquidation",
        "label": "_owner",
        "offset": 0,
        "slot": "0",
        "type": "t_address"
      },
      {
        "astId": 229,
        "contract": "contracts/LastResortLiquidation.sol:LastResortLiquidation",
        "label": "_status",
        "offset": 0,
        "slot": "1",
        "type": "t_uint256"
      },
      {
        "astId": 4036,
        "contract": "contracts/LastResortLiquidation.sol:LastResortLiquidation",
        "label": "collateralSet",
        "offset": 0,
        "slot": "2",
        "type": "t_struct(AddressSet)2063_storage"
      },
      {
        "astId": 4039,
        "contract": "contracts/LastResortLiquidation.sol:LastResortLiquidation",
        "label": "allowedSet",
        "offset": 0,
        "slot": "4",
        "type": "t_struct(AddressSet)2063_storage"
      },
      {
        "astId": 4041,
        "contract": "contracts/LastResortLiquidation.sol:LastResortLiquidation",
        "label": "vaultFactory",
        "offset": 0,
        "slot": "6",
        "type": "t_address"
      },
      {
        "astId": 4045,
        "contract": "contracts/LastResortLiquidation.sol:LastResortLiquidation",
        "label": "collateral",
        "offset": 0,
        "slot": "7",
        "type": "t_mapping(t_address,t_uint256)"
      },
      {
        "astId": 4047,
        "contract": "contracts/LastResortLiquidation.sol:LastResortLiquidation",
        "label": "badDebt",
        "offset": 0,
        "slot": "8",
        "type": "t_uint256"
      }
    ],
    "types": {
      "t_address": {
        "encoding": "inplace",
        "label": "address",
        "numberOfBytes": "20"
      },
      "t_array(t_bytes32)dyn_storage": {
        "base": "t_bytes32",
        "encoding": "dynamic_array",
        "label": "bytes32[]",
        "numberOfBytes": "32"
      },
      "t_bytes32": {
        "encoding": "inplace",
        "label": "bytes32",
        "numberOfBytes": "32"
      },
      "t_mapping(t_address,t_uint256)": {
        "encoding": "mapping",
        "key": "t_address",
        "label": "mapping(address => uint256)",
        "numberOfBytes": "32",
        "value": "t_uint256"
      },
      "t_mapping(t_bytes32,t_uint256)": {
        "encoding": "mapping",
        "key": "t_bytes32",
        "label": "mapping(bytes32 => uint256)",
        "numberOfBytes": "32",
        "value": "t_uint256"
      },
      "t_struct(AddressSet)2063_storage": {
        "encoding": "inplace",
        "label": "struct EnumerableSet.AddressSet",
        "members": [
          {
            "astId": 2062,
            "contract": "contracts/LastResortLiquidation.sol:LastResortLiquidation",
            "label": "_inner",
            "offset": 0,
            "slot": "0",
            "type": "t_struct(Set)1748_storage"
          }
        ],
        "numberOfBytes": "64"
      },
      "t_struct(Set)1748_storage": {
        "encoding": "inplace",
        "label": "struct EnumerableSet.Set",
        "members": [
          {
            "astId": 1743,
            "contract": "contracts/LastResortLiquidation.sol:LastResortLiquidation",
            "label": "_values",
            "offset": 0,
            "slot": "0",
            "type": "t_array(t_bytes32)dyn_storage"
          },
          {
            "astId": 1747,
            "contract": "contracts/LastResortLiquidation.sol:LastResortLiquidation",
            "label": "_indexes",
            "offset": 0,
            "slot": "1",
            "type": "t_mapping(t_bytes32,t_uint256)"
          }
        ],
        "numberOfBytes": "64"
      },
      "t_uint256": {
        "encoding": "inplace",
        "label": "uint256",
        "numberOfBytes": "32"
      }
    }
  }
}