{
  "address": "0x00ff66600b35428b8eb76dc622d404c7ac27a99f",
  "abi": [
    {
      "anonymous": false,
      "inputs": [
        {
          "indexed": true,
          "internalType": "address",
          "name": "_auctionManager",
          "type": "address"
        }
      ],
      "name": "AuctionManagerUpdated",
      "type": "event"
    },
    {
      "anonymous": false,
      "inputs": [
        {
          "indexed": true,
          "internalType": "address",
          "name": "_vault",
          "type": "address"
        },
        {
          "indexed": false,
          "internalType": "uint256",
          "name": "amount",
          "type": "uint256"
        }
      ],
      "name": "BadDebtDistributed",
      "type": "event"
    },
    {
      "anonymous": false,
      "inputs": [
        {
          "indexed": true,
          "internalType": "address",
          "name": "_lastResortLiquidation",
          "type": "address"
        }
      ],
      "name": "LastResortLiquidationUpdated",
      "type": "event"
    },
    {
      "anonymous": false,
      "inputs": [
        {
          "indexed": true,
          "internalType": "address",
          "name": "previousOwner",
          "type": "address"
        },
        {
          "indexed": true,
          "internalType": "address",
          "name": "newOwner",
          "type": "address"
        }
      ],
      "name": "OwnershipTransferred",
      "type": "event"
    },
    {
      "anonymous": false,
      "inputs": [
        {
          "indexed": true,
          "internalType": "address",
          "name": "collateral",
          "type": "address"
        },
        {
          "indexed": true,
          "internalType": "address",
          "name": "_vaultFactory",
          "type": "address"
        },
        {
          "indexed": true,
          "internalType": "address",
          "name": "_vault",
          "type": "address"
        },
        {
          "indexed": false,
          "internalType": "uint256",
          "name": "amount",
          "type": "uint256"
        }
      ],
      "name": "SeizedCollateralAdded",
      "type": "event"
    },
    {
      "anonymous": false,
      "inputs": [
        {
          "indexed": true,
          "internalType": "address",
          "name": "_stabilityPool",
          "type": "address"
        }
      ],
      "name": "StabilityPoolUpdated",
      "type": "event"
    },
    {
      "anonymous": false,
      "inputs": [
        {
          "indexed": true,
          "internalType": "address",
          "name": "_vaultFactory",
          "type": "address"
        },
        {
          "indexed": true,
          "internalType": "address",
          "name": "_vault",
          "type": "address"
        },
        {
          "indexed": false,
          "internalType": "uint256",
          "name": "debtAmount",
          "type": "uint256"
        }
      ],
      "name": "UnderWaterDebtAdded",
      "type": "event"
    },
    {
      "anonymous": false,
      "inputs": [
        {
          "indexed": true,
          "internalType": "address",
          "name": "_vaultFactory",
          "type": "address"
        },
        {
          "indexed": false,
          "internalType": "uint256",
          "name": "debtAmount",
          "type": "uint256"
        }
      ],
      "name": "UnderWaterDebtRemoved",
      "type": "event"
    },
    {
      "anonymous": false,
      "inputs": [
        {
          "indexed": true,
          "internalType": "address",
          "name": "_vaultFactory",
          "type": "address"
        }
      ],
      "name": "VaultFactoryUpdated",
      "type": "event"
    },
    {
      "inputs": [
        {
          "internalType": "address",
          "name": "_collateral",
          "type": "address"
        },
        {
          "internalType": "uint256",
          "name": "_amount",
          "type": "uint256"
        }
      ],
      "name": "addSeizedCollateral",
      "outputs": [],
      "stateMutability": "nonpayable",
      "type": "function"
    },
    {
      "inputs": [
        {
          "internalType": "address",
          "name": "_vault",
          "type": "address"
        },
        {
          "internalType": "uint256",
          "name": "_amount",
          "type": "uint256"
        }
      ],
      "name": "addUnderWaterDebt",
      "outputs": [],
      "stateMutability": "nonpayable",
      "type": "function"
    },
    {
      "inputs": [],
      "name": "auctionManager",
      "outputs": [
        {
          "internalType": "address",
          "name": "",
          "type": "address"
        }
      ],
      "stateMutability": "view",
      "type": "function"
    },
    {
      "inputs": [
        {
          "internalType": "address",
          "name": "",
          "type": "address"
        }
      ],
      "name": "collateral",
      "outputs": [
        {
          "internalType": "uint256",
          "name": "",
          "type": "uint256"
        }
      ],
      "stateMutability": "view",
      "type": "function"
    },
    {
      "inputs": [
        {
          "internalType": "uint256",
          "name": "_index",
          "type": "uint256"
        }
      ],
      "name": "collateralAt",
      "outputs": [
        {
          "internalType": "address",
          "name": "",
          "type": "address"
        }
      ],
      "stateMutability": "view",
      "type": "function"
    },
    {
      "inputs": [],
      "name": "collaterals",
      "outputs": [
        {
          "internalType": "address[]",
          "name": "",
          "type": "address[]"
        }
      ],
      "stateMutability": "view",
      "type": "function"
    },
    {
      "inputs": [],
      "name": "collateralsLength",
      "outputs": [
        {
          "internalType": "uint256",
          "name": "",
          "type": "uint256"
        }
      ],
      "stateMutability": "view",
      "type": "function"
    },
    {
      "inputs": [
        {
          "internalType": "address",
          "name": "_collateral",
          "type": "address"
        }
      ],
      "name": "containsCollateral",
      "outputs": [
        {
          "internalType": "bool",
          "name": "",
          "type": "bool"
        }
      ],
      "stateMutability": "view",
      "type": "function"
    },
    {
      "inputs": [
        {
          "internalType": "address",
          "name": "_vault",
          "type": "address"
        },
        {
          "internalType": "uint256",
          "name": "_amount",
          "type": "uint256"
        }
      ],
      "name": "distributeBadDebt",
      "outputs": [],
      "stateMutability": "nonpayable",
      "type": "function"
    },
    {
      "inputs": [],
      "name": "lastResortLiquidation",
      "outputs": [
        {
          "internalType": "address",
          "name": "",
          "type": "address"
        }
      ],
      "stateMutability": "view",
      "type": "function"
    },
    {
      "inputs": [],
      "name": "owner",
      "outputs": [
        {
          "internalType": "address",
          "name": "",
          "type": "address"
        }
      ],
      "stateMutability": "view",
      "type": "function"
    },
    {
      "inputs": [],
      "name": "renounceOwnership",
      "outputs": [],
      "stateMutability": "nonpayable",
      "type": "function"
    },
    {
      "inputs": [
        {
          "internalType": "address",
          "name": "_auctionManager",
          "type": "address"
        }
      ],
      "name": "setAuctionManager",
      "outputs": [],
      "stateMutability": "nonpayable",
      "type": "function"
    },
    {
      "inputs": [
        {
          "internalType": "address",
          "name": "_lastResortLiquidation",
          "type": "address"
        }
      ],
      "name": "setLastResortLiquidation",
      "outputs": [],
      "stateMutability": "nonpayable",
      "type": "function"
    },
    {
      "inputs": [
        {
          "internalType": "address",
          "name": "_stabilityPool",
          "type": "address"
        }
      ],
      "name": "setStabilityPool",
      "outputs": [],
      "stateMutability": "nonpayable",
      "type": "function"
    },
    {
      "inputs": [
        {
          "internalType": "address",
          "name": "_vaultFactory",
          "type": "address"
        }
      ],
      "name": "setVaultFactory",
      "outputs": [],
      "stateMutability": "nonpayable",
      "type": "function"
    },
    {
      "inputs": [],
      "name": "stabilityPool",
      "outputs": [
        {
          "internalType": "address",
          "name": "",
          "type": "address"
        }
      ],
      "stateMutability": "view",
      "type": "function"
    },
    {
      "inputs": [
        {
          "internalType": "address",
          "name": "newOwner",
          "type": "address"
        }
      ],
      "name": "transferOwnership",
      "outputs": [],
      "stateMutability": "nonpayable",
      "type": "function"
    },
    {
      "inputs": [],
      "name": "tryLiquidate",
      "outputs": [],
      "stateMutability": "nonpayable",
      "type": "function"
    },
    {
      "inputs": [],
      "name": "underWaterDebt",
      "outputs": [
        {
          "internalType": "uint256",
          "name": "",
          "type": "uint256"
        }
      ],
      "stateMutability": "view",
      "type": "function"
    },
    {
      "inputs": [],
      "name": "vaultFactory",
      "outputs": [
        {
          "internalType": "address",
          "name": "",
          "type": "address"
        }
      ],
      "stateMutability": "view",
      "type": "function"
    },
    {
      "inputs": [
        {
          "internalType": "address",
          "name": "_collateral",
          "type": "address"
        },
        {
          "internalType": "address",
          "name": "_to",
          "type": "address"
        },
        {
          "internalType": "uint256",
          "name": "_amount",
          "type": "uint256"
        }
      ],
      "name": "withdrawLiquidatedCollateral",
      "outputs": [],
      "stateMutability": "nonpayable",
      "type": "function"
    }
  ],
  "transactionHash": "0xd1cc7095c6fd3e24b66fe1af352e496dfadac59cf534f5ef0a82348109eb31a4",
  "args": [],
  "numDeployments": 1,
  "solcInputHash": "3d7ac3cd8c655c7d05e6510673d0ef5d",
  "bytecode": "0x608060405234801561001057600080fd5b5061001a33610023565b60018055610073565b600080546001600160a01b038381166001600160a01b0319831681178455604051919092169283917f8be0079c531659141344cd1fd0a4f28419497f9722a3daafe3b4186f6b6457e09190a35050565b61195e806100826000396000f3fe608060405234801561001057600080fd5b50600436106101825760003560e01c806395e4cacb116100d8578063b7017b911161008c578063dd1c9f5411610066578063dd1c9f541461030f578063edeb1c8e14610322578063f2fde38b1461033557600080fd5b8063b7017b91146102d6578063d1400f68146102e9578063d8a06f73146102fc57600080fd5b8063a0c03a36116100bd578063a0c03a361461029b578063a5fdc5de146102a3578063b0192f9a146102c357600080fd5b806395e4cacb1461027557806398d721e01461028857600080fd5b80633ea7fbdb1161013a5780635f1bf01b116101145780635f1bf01b14610249578063715018a61461025c5780638da5cb5b1461026457600080fd5b80633ea7fbdb146101fe5780634113e5ca146102115780634bfc894d1461022657600080fd5b806323d8d8b91161016b57806323d8d8b9146101ca57806329ad2fb2146101e15780632fb04272146101e957600080fd5b8063048c661d146101875780631f665646146101b7575b600080fd5b60045461019a906001600160a01b031681565b6040516001600160a01b0390911681526020015b60405180910390f35b61019a6101c53660046116c1565b610348565b6101d360025481565b6040519081526020016101ae565b6101d361035b565b6101fc6101f73660046116ef565b61036c565b005b6101fc61020c36600461171b565b610476565b6102196105e0565b6040516101ae9190611738565b61023961023436600461171b565b610693565b60405190151581526020016101ae565b6101fc61025736600461171b565b6106a0565b6101fc610748565b6000546001600160a01b031661019a565b6101fc61028336600461171b565b61075c565b6101fc61029636600461171b565b610804565b6101fc6108ac565b6101d36102b136600461171b565b60096020526000908152604090205481565b60055461019a906001600160a01b031681565b6101fc6102e43660046116ef565b610a89565b6101fc6102f73660046116ef565b610c37565b60035461019a906001600160a01b031681565b6101fc61031d366004611785565b610d57565b60065461019a906001600160a01b031681565b6101fc61034336600461171b565b610dd1565b6000610355600783610e61565b92915050565b60006103676007610e74565b905090565b60035460405163020e64db60e61b81523360048201526001600160a01b039091169063839936c090602401602060405180830381865afa1580156103b4573d6000803e3d6000fd5b505050506040513d601f19601f820116820180604052508101906103d891906117c6565b6104175760405162461bcd60e51b815260206004820152600b60248201526a1b9bdd0b584b5d985d5b1d60aa1b60448201526064015b60405180910390fd5b806002600082825461042991906117fe565b90915550506003546040518281526001600160a01b038481169216907facb6f54789f5e306486ba115f373acdd6aab8afb10a8717db164c8af38d9c27b9060200160405180910390a35050565b61047e610e7e565b6001600160a01b0381166104d45760405162461bcd60e51b815260206004820152601260248201527f7661756c742d666163746f72792d69732d300000000000000000000000000000604482015260640161040e565b306001600160a01b0316816001600160a01b031663679fda706040518163ffffffff1660e01b8152600401602060405180830381865afa15801561051c573d6000803e3d6000fd5b505050506040513d601f19601f820116820180604052508101906105409190611811565b6001600160a01b0316146105965760405162461bcd60e51b815260206004820152601860248201527f77726f6e672d6c69717569646174696f6e2d726f757465720000000000000000604482015260640161040e565b600380546001600160a01b0319166001600160a01b0383169081179091556040517f4618618bd25d53d81b13f8ebde476031681bbb9f5b409de00b6bca9656f96f4790600090a250565b606060006105ee6007610e74565b67ffffffffffffffff8111156106065761060661182e565b60405190808252806020026020018201604052801561062f578160200160208202803683370190505b50905060005b61063f6007610e74565b81101561068d57610651600782610e61565b82828151811061066357610663611844565b6001600160a01b0390921660209283029190910190910152806106858161185a565b915050610635565b50919050565b6000610355600783610ed8565b6106a8610e7e565b6001600160a01b0381166106fe5760405162461bcd60e51b815260206004820152601c60248201527f6c6173742d7265736f72742d6c69717569646174696f6e2d69732d3000000000604482015260640161040e565b600680546001600160a01b0319166001600160a01b0383169081179091556040517f7609199bf1997ec0f8a36fbd539d788f36b2069b47a48919303b9658633ff7a590600090a250565b610750610e7e565b61075a6000610efa565b565b610764610e7e565b6001600160a01b0381166107ba5760405162461bcd60e51b815260206004820152601460248201527f61756374696f6e2d6d616e616765722d69732d30000000000000000000000000604482015260640161040e565b600580546001600160a01b0319166001600160a01b0383169081179091556040517f9fa2b6607d54dc4a0fc0e840407365d82db1c9dd7ecd102b8a7ac6290444675e90600090a250565b61080c610e7e565b6001600160a01b0381166108625760405162461bcd60e51b815260206004820152601360248201527f73746162696c6974792d706f6f6c2d69732d3000000000000000000000000000604482015260640161040e565b600480546001600160a01b0319166001600160a01b0383169081179091556040517fa360b6a43cb1d8db2fe62bed1ebc63d7ec94d4875e4b19b022d06340db98987390600090a250565b6108b4610f4a565b6000600254116109065760405162461bcd60e51b815260206004820152601260248201527f6e6f2d756e64657277617465722d646562740000000000000000000000000000604482015260640161040e565b6000600460009054906101000a90046001600160a01b03166001600160a01b031663f6153ccd6040518163ffffffff1660e01b8152600401602060405180830381865afa15801561095b573d6000803e3d6000fd5b505050506040513d601f19601f8201168201806040525081019061097f9190611873565b90506002548110610a035760048054604080517f28a0702500000000000000000000000000000000000000000000000000000000815290516001600160a01b03909216926328a0702592828201926000929082900301818387803b1580156109e657600080fd5b505af11580156109fa573d6000803e3d6000fd5b50505050610a6c565b600560009054906101000a90046001600160a01b03166001600160a01b03166398afd5836040518163ffffffff1660e01b8152600401600060405180830381600087803b158015610a5357600080fd5b505af1158015610a67573d6000803e3d6000fd5b505050505b610a74610fa3565b610a7f600254610ff8565b5061075a60018055565b60035460405163020e64db60e61b81523360048201526001600160a01b039091169063839936c090602401602060405180830381865afa158015610ad1573d6000803e3d6000fd5b505050506040513d601f19601f82011682018060405250810190610af591906117c6565b610b2f5760405162461bcd60e51b815260206004820152600b60248201526a1b9bdd0b584b5d985d5b1d60aa1b604482015260640161040e565b610b446001600160a01b038316333084611054565b600454610b5f906001600160a01b0384811691166000611105565b600454610b7b906001600160a01b038481169116600019611105565b600554610b96906001600160a01b0384811691166000611105565b600554610bb2906001600160a01b038481169116600019611105565b610bbd600783611253565b506001600160a01b03821660009081526009602052604081208054839290610be69084906117fe565b909155505060035460405182815233916001600160a01b0390811691908516907f3503c0ce8b4f88d1482dce1f992d14582b99e2b80d6664483eb03886524a09739060200160405180910390a45050565b6006546001600160a01b03163314610c915760405162461bcd60e51b815260206004820152601b60248201527f6e6f742d6c6173742d7265736f72742d6c69717569646174696f6e0000000000604482015260640161040e565b6003546040517fd1400f680000000000000000000000000000000000000000000000000000000081526001600160a01b038481166004830152602482018490529091169063d1400f6890604401600060405180830381600087803b158015610cf857600080fd5b505af1158015610d0c573d6000803e3d6000fd5b50505050816001600160a01b03167f1f147b88491987990bbad74c1116276498d16e9115087a05b8b9ee1caaad3bec82604051610d4b91815260200190565b60405180910390a25050565b610d5f610e7e565b610d736001600160a01b0384168383611268565b6001600160a01b03831660009081526009602052604081208054839290610d9b90849061188c565b90915550506001600160a01b0383166000908152600960205260408120549003610dcc57610dca6007846112b1565b505b505050565b610dd9610e7e565b6001600160a01b038116610e555760405162461bcd60e51b815260206004820152602660248201527f4f776e61626c653a206e6577206f776e657220697320746865207a65726f206160448201527f6464726573730000000000000000000000000000000000000000000000000000606482015260840161040e565b610e5e81610efa565b50565b6000610e6d83836112c6565b9392505050565b6000610355825490565b6000546001600160a01b0316331461075a5760405162461bcd60e51b815260206004820181905260248201527f4f776e61626c653a2063616c6c6572206973206e6f7420746865206f776e6572604482015260640161040e565b6001600160a01b03811660009081526001830160205260408120541515610e6d565b600080546001600160a01b038381166001600160a01b0319831681178455604051919092169283917f8be0079c531659141344cd1fd0a4f28419497f9722a3daafe3b4186f6b6457e09190a35050565b600260015403610f9c5760405162461bcd60e51b815260206004820152601f60248201527f5265656e7472616e637947756172643a207265656e7472616e742063616c6c00604482015260640161040e565b6002600155565b6000610faf6007610e74565b905060005b81811015610ff4576000610fc9600783610e61565b6001600160a01b03166000908152600960205260408120555080610fec8161185a565b915050610fb4565b5050565b806002600082825461100a919061188c565b90915550506003546040518281526001600160a01b03909116907f0d2ab37334406a05a85d41fbec9cae970464294edb7fc171ae033e5a18794dc49060200160405180910390a250565b6040516001600160a01b0380851660248301528316604482015260648101829052610dca9085907f23b872dd00000000000000000000000000000000000000000000000000000000906084015b60408051601f198184030181529190526020810180517bffffffffffffffffffffffffffffffffffffffffffffffffffffffff167fffffffff00000000000000000000000000000000000000000000000000000000909316929092179091526112f0565b80158061119857506040517fdd62ed3e0000000000000000000000000000000000000000000000000000000081523060048201526001600160a01b03838116602483015284169063dd62ed3e90604401602060405180830381865afa158015611172573d6000803e3d6000fd5b505050506040513d601f19601f820116820180604052508101906111969190611873565b155b61120a5760405162461bcd60e51b815260206004820152603660248201527f5361666545524332303a20617070726f76652066726f6d206e6f6e2d7a65726f60448201527f20746f206e6f6e2d7a65726f20616c6c6f77616e636500000000000000000000606482015260840161040e565b6040516001600160a01b038316602482015260448101829052610dcc9084907f095ea7b300000000000000000000000000000000000000000000000000000000906064016110a1565b6000610e6d836001600160a01b0384166113d8565b6040516001600160a01b038316602482015260448101829052610dcc9084907fa9059cbb00000000000000000000000000000000000000000000000000000000906064016110a1565b6000610e6d836001600160a01b038416611427565b60008260000182815481106112dd576112dd611844565b9060005260206000200154905092915050565b6000611345826040518060400160405280602081526020017f5361666545524332303a206c6f772d6c6576656c2063616c6c206661696c6564815250856001600160a01b031661151a9092919063ffffffff16565b905080516000148061136657508080602001905181019061136691906117c6565b610dcc5760405162461bcd60e51b815260206004820152602a60248201527f5361666545524332303a204552433230206f7065726174696f6e20646964206e60448201527f6f74207375636365656400000000000000000000000000000000000000000000606482015260840161040e565b600081815260018301602052604081205461141f57508154600181810184556000848152602080822090930184905584548482528286019093526040902091909155610355565b506000610355565b6000818152600183016020526040812054801561151057600061144b60018361188c565b855490915060009061145f9060019061188c565b90508181146114c457600086600001828154811061147f5761147f611844565b90600052602060002001549050808760000184815481106114a2576114a2611844565b6000918252602080832090910192909255918252600188019052604090208390555b85548690806114d5576114d561189f565b600190038181906000526020600020016000905590558560010160008681526020019081526020016000206000905560019350505050610355565b6000915050610355565b60606115298484600085611531565b949350505050565b6060824710156115a95760405162461bcd60e51b815260206004820152602660248201527f416464726573733a20696e73756666696369656e742062616c616e636520666f60448201527f722063616c6c0000000000000000000000000000000000000000000000000000606482015260840161040e565b600080866001600160a01b031685876040516115c591906118d9565b60006040518083038185875af1925050503d8060008114611602576040519150601f19603f3d011682016040523d82523d6000602084013e611607565b606091505b509150915061161887838387611623565b979650505050505050565b6060831561169257825160000361168b576001600160a01b0385163b61168b5760405162461bcd60e51b815260206004820152601d60248201527f416464726573733a2063616c6c20746f206e6f6e2d636f6e7472616374000000604482015260640161040e565b5081611529565b61152983838151156116a75781518083602001fd5b8060405162461bcd60e51b815260040161040e91906118f5565b6000602082840312156116d357600080fd5b5035919050565b6001600160a01b0381168114610e5e57600080fd5b6000806040838503121561170257600080fd5b823561170d816116da565b946020939093013593505050565b60006020828403121561172d57600080fd5b8135610e6d816116da565b6020808252825182820181905260009190848201906040850190845b818110156117795783516001600160a01b031683529284019291840191600101611754565b50909695505050505050565b60008060006060848603121561179a57600080fd5b83356117a5816116da565b925060208401356117b5816116da565b929592945050506040919091013590565b6000602082840312156117d857600080fd5b81518015158114610e6d57600080fd5b634e487b7160e01b600052601160045260246000fd5b80820180821115610355576103556117e8565b60006020828403121561182357600080fd5b8151610e6d816116da565b634e487b7160e01b600052604160045260246000fd5b634e487b7160e01b600052603260045260246000fd5b60006001820161186c5761186c6117e8565b5060010190565b60006020828403121561188557600080fd5b5051919050565b81810381811115610355576103556117e8565b634e487b7160e01b600052603160045260246000fd5b60005b838110156118d05781810151838201526020016118b8565b50506000910152565b600082516118eb8184602087016118b5565b9190910192915050565b60208152600082518060208401526119148160408501602087016118b5565b601f01601f1916919091016040019291505056fea2646970667358221220557ec2ea6ed6695caa17f1ffdc1c960f18b2891ed2639fe6f688e04a717c67fb64736f6c63430008130033",
  "devdoc": {
    "kind": "dev",
    "methods": {
      "owner()": {
        "details": "Returns the address of the current owner."
      },
      "renounceOwnership()": {
        "details": "Leaves the contract without owner. It will not be possible to call `onlyOwner` functions. Can only be called by the current owner. NOTE: Renouncing ownership will leave the contract without an owner, thereby disabling any functionality that is only available to the owner."
      },
      "transferOwnership(address)": {
        "details": "Transfers ownership of the contract to a new account (`newOwner`). Can only be called by the current owner."
      }
    },
    "version": 1
  },
  "userdoc": {
    "kind": "user",
    "methods": {},
    "version": 1
  },
  "storageLayout": {
    "storage": [
      {
        "astId": 110,
        "contract": "contracts/LiquidationRouter.sol:LiquidationRouter",
        "label": "_owner",
        "offset": 0,
        "slot": "0",
        "type": "t_address"
      },
      {
        "astId": 229,
        "contract": "contracts/LiquidationRouter.sol:LiquidationRouter",
        "label": "_status",
        "offset": 0,
        "slot": "1",
        "type": "t_uint256"
      },
      {
        "astId": 4494,
        "contract": "contracts/LiquidationRouter.sol:LiquidationRouter",
        "label": "underWaterDebt",
        "offset": 0,
        "slot": "2",
        "type": "t_uint256"
      },
      {
        "astId": 4496,
        "contract": "contracts/LiquidationRouter.sol:LiquidationRouter",
        "label": "vaultFactory",
        "offset": 0,
        "slot": "3",
        "type": "t_address"
      },
      {
        "astId": 4498,
        "contract": "contracts/LiquidationRouter.sol:LiquidationRouter",
        "label": "stabilityPool",
        "offset": 0,
        "slot": "4",
        "type": "t_address"
      },
      {
        "astId": 4500,
        "contract": "contracts/LiquidationRouter.sol:LiquidationRouter",
        "label": "auctionManager",
        "offset": 0,
        "slot": "5",
        "type": "t_address"
      },
      {
        "astId": 4502,
        "contract": "contracts/LiquidationRouter.sol:LiquidationRouter",
        "label": "lastResortLiquidation",
        "offset": 0,
        "slot": "6",
        "type": "t_address"
      },
      {
        "astId": 4505,
        "contract": "contracts/LiquidationRouter.sol:LiquidationRouter",
        "label": "collateralSet",
        "offset": 0,
        "slot": "7",
        "type": "t_struct(AddressSet)2063_storage"
      },
      {
        "astId": 4509,
        "contract": "contracts/LiquidationRouter.sol:LiquidationRouter",
        "label": "collateral",
        "offset": 0,
        "slot": "9",
        "type": "t_mapping(t_address,t_uint256)"
      }
    ],
    "types": {
      "t_address": {
        "encoding": "inplace",
        "label": "address",
        "numberOfBytes": "20"
      },
      "t_array(t_bytes32)dyn_storage": {
        "base": "t_bytes32",
        "encoding": "dynamic_array",
        "label": "bytes32[]",
        "numberOfBytes": "32"
      },
      "t_bytes32": {
        "encoding": "inplace",
        "label": "bytes32",
        "numberOfBytes": "32"
      },
      "t_mapping(t_address,t_uint256)": {
        "encoding": "mapping",
        "key": "t_address",
        "label": "mapping(address => uint256)",
        "numberOfBytes": "32",
        "value": "t_uint256"
      },
      "t_mapping(t_bytes32,t_uint256)": {
        "encoding": "mapping",
        "key": "t_bytes32",
        "label": "mapping(bytes32 => uint256)",
        "numberOfBytes": "32",
        "value": "t_uint256"
      },
      "t_struct(AddressSet)2063_storage": {
        "encoding": "inplace",
        "label": "struct EnumerableSet.AddressSet",
        "members": [
          {
            "astId": 2062,
            "contract": "contracts/LiquidationRouter.sol:LiquidationRouter",
            "label": "_inner",
            "offset": 0,
            "slot": "0",
            "type": "t_struct(Set)1748_storage"
          }
        ],
        "numberOfBytes": "64"
      },
      "t_struct(Set)1748_storage": {
        "encoding": "inplace",
        "label": "struct EnumerableSet.Set",
        "members": [
          {
            "astId": 1743,
            "contract": "contracts/LiquidationRouter.sol:LiquidationRouter",
            "label": "_values",
            "offset": 0,
            "slot": "0",
            "type": "t_array(t_bytes32)dyn_storage"
          },
          {
            "astId": 1747,
            "contract": "contracts/LiquidationRouter.sol:LiquidationRouter",
            "label": "_indexes",
            "offset": 0,
            "slot": "1",
            "type": "t_mapping(t_bytes32,t_uint256)"
          }
        ],
        "numberOfBytes": "64"
      },
      "t_uint256": {
        "encoding": "inplace",
        "label": "uint256",
        "numberOfBytes": "32"
      }
    }
  }
}