{
  "address": "0xB3857F86A95516902C953D530D3E5C29B1518a85",
  "abi": [
    {
      "inputs": [
        {
          "internalType": "address",
          "name": "_token",
          "type": "address"
        }
      ],
      "stateMutability": "nonpayable",
      "type": "constructor"
    },
    {
      "anonymous": false,
      "inputs": [
        {
          "indexed": false,
          "internalType": "address",
          "name": "newMinter",
          "type": "address"
        }
      ],
      "name": "MinterAdded",
      "type": "event"
    },
    {
      "anonymous": false,
      "inputs": [
        {
          "indexed": true,
          "internalType": "address",
          "name": "previousOwner",
          "type": "address"
        },
        {
          "indexed": true,
          "internalType": "address",
          "name": "newOwner",
          "type": "address"
        }
      ],
      "name": "OwnershipTransferred",
      "type": "event"
    },
    {
      "inputs": [
        {
          "internalType": "address",
          "name": "_newMinter",
          "type": "address"
        }
      ],
      "name": "addMinter",
      "outputs": [],
      "stateMutability": "nonpayable",
      "type": "function"
    },
    {
      "inputs": [
        {
          "internalType": "address",
          "name": "_recipient",
          "type": "address"
        },
        {
          "internalType": "uint256",
          "name": "_amount",
          "type": "uint256"
        }
      ],
      "name": "mint",
      "outputs": [],
      "stateMutability": "nonpayable",
      "type": "function"
    },
    {
      "inputs": [
        {
          "internalType": "address",
          "name": "",
          "type": "address"
        }
      ],
      "name": "minters",
      "outputs": [
        {
          "internalType": "bool",
          "name": "",
          "type": "bool"
        }
      ],
      "stateMutability": "view",
      "type": "function"
    },
    {
      "inputs": [],
      "name": "owner",
      "outputs": [
        {
          "internalType": "address",
          "name": "",
          "type": "address"
        }
      ],
      "stateMutability": "view",
      "type": "function"
    },
    {
      "inputs": [],
      "name": "renounceOwnership",
      "outputs": [],
      "stateMutability": "nonpayable",
      "type": "function"
    },
    {
      "inputs": [
        {
          "internalType": "address",
          "name": "_minter",
          "type": "address"
        }
      ],
      "name": "revokeMinter",
      "outputs": [],
      "stateMutability": "nonpayable",
      "type": "function"
    },
    {
      "inputs": [],
      "name": "token",
      "outputs": [
        {
          "internalType": "contract IMintableToken",
          "name": "",
          "type": "address"
        }
      ],
      "stateMutability": "view",
      "type": "function"
    },
    {
      "inputs": [
        {
          "internalType": "address",
          "name": "newOwner",
          "type": "address"
        }
      ],
      "name": "transferOwnership",
      "outputs": [],
      "stateMutability": "nonpayable",
      "type": "function"
    },
    {
      "inputs": [
        {
          "internalType": "address",
          "name": "_newOwner",
          "type": "address"
        }
      ],
      "name": "transferTokenOwnership",
      "outputs": [],
      "stateMutability": "nonpayable",
      "type": "function"
    }
  ],
  "transactionHash": "0xf7d7b49d29eaede66fe86091ed8b3902b704a2ab31f104fbc23d175d2734f90b",
  "args": [
    "0xA0e4c84693266a9d3BBef2f394B33712c76599Ab"
  ],
  "numDeployments": 1,
  "solcInputHash": "3d7ac3cd8c655c7d05e6510673d0ef5d",
  "bytecode": "0x60a060405234801561001057600080fd5b506040516106df3803806106df83398101604081905261002f91610099565b61003833610049565b6001600160a01b03166080526100c9565b600080546001600160a01b038381166001600160a01b0319831681178455604051919092169283917f8be0079c531659141344cd1fd0a4f28419497f9722a3daafe3b4186f6b6457e09190a35050565b6000602082840312156100ab57600080fd5b81516001600160a01b03811681146100c257600080fd5b9392505050565b6080516105ed6100f260003960008181610173015281816101d501526102fd01526105ed6000f3fe608060405234801561001057600080fd5b50600436106100a35760003560e01c8063983b2d5611610076578063f2fde38b1161005b578063f2fde38b14610128578063f46eccc41461013b578063fc0c546a1461016e57600080fd5b8063983b2d5614610102578063cfbd48851461011557600080fd5b806321e6b53d146100a857806340c10f19146100bd578063715018a6146100d05780638da5cb5b146100d8575b600080fd5b6100bb6100b636600461056b565b610195565b005b6100bb6100cb36600461058d565b610234565b6100bb61035d565b6000546001600160a01b03165b6040516001600160a01b0390911681526020015b60405180910390f35b6100bb61011036600461056b565b610371565b6100bb61012336600461056b565b6103d4565b6100bb61013636600461056b565b6103fd565b61015e61014936600461056b565b60016020526000908152604090205460ff1681565b60405190151581526020016100f9565b6100e57f000000000000000000000000000000000000000000000000000000000000000081565b61019d61048d565b6040517ff2fde38b0000000000000000000000000000000000000000000000000000000081526001600160a01b0382811660048301527f0000000000000000000000000000000000000000000000000000000000000000169063f2fde38b90602401600060405180830381600087803b15801561021957600080fd5b505af115801561022d573d6000803e3d6000fd5b5050505050565b3360009081526001602052604090205460ff166102be5760405162461bcd60e51b815260206004820152603f60248201527f4d696e7461626c65546f6b656e4f776e65723a6d696e743a207468652073656e60448201527f646572206d75737420626520696e20746865206d696e74657273206c6973740060648201526084015b60405180910390fd5b6040517f40c10f190000000000000000000000000000000000000000000000000000000081526001600160a01b038381166004830152602482018390527f000000000000000000000000000000000000000000000000000000000000000016906340c10f1990604401600060405180830381600087803b15801561034157600080fd5b505af1158015610355573d6000803e3d6000fd5b505050505050565b61036561048d565b61036f60006104e7565b565b61037961048d565b6001600160a01b038116600081815260016020818152604092839020805460ff191690921790915590519182527f6ae172837ea30b801fbfcdd4108aa1d5bf8ff775444fd70256b44e6bf3dfc3f6910160405180910390a150565b6103dc61048d565b6001600160a01b03166000908152600160205260409020805460ff19169055565b61040561048d565b6001600160a01b0381166104815760405162461bcd60e51b815260206004820152602660248201527f4f776e61626c653a206e6577206f776e657220697320746865207a65726f206160448201527f646472657373000000000000000000000000000000000000000000000000000060648201526084016102b5565b61048a816104e7565b50565b6000546001600160a01b0316331461036f5760405162461bcd60e51b815260206004820181905260248201527f4f776e61626c653a2063616c6c6572206973206e6f7420746865206f776e657260448201526064016102b5565b600080546001600160a01b038381167fffffffffffffffffffffffff0000000000000000000000000000000000000000831681178455604051919092169283917f8be0079c531659141344cd1fd0a4f28419497f9722a3daafe3b4186f6b6457e09190a35050565b80356001600160a01b038116811461056657600080fd5b919050565b60006020828403121561057d57600080fd5b6105868261054f565b9392505050565b600080604083850312156105a057600080fd5b6105a98361054f565b94602093909301359350505056fea264697066735822122015c9f66e174c4ec825a69e7e7c9dbc119d8132b14f57c64c9b36fc8bf7c4b95e64736f6c63430008130033",
  "devdoc": {
    "kind": "dev",
    "methods": {
      "addMinter(address)": {
        "details": "adds new minter",
        "params": {
          "_newMinter": "address of new minter"
        }
      },
      "mint(address,uint256)": {
        "details": "mints tokens to the recipient, to be called from owner",
        "params": {
          "_amount": "amount to be minted",
          "_recipient": "address to mint"
        }
      },
      "owner()": {
        "details": "Returns the address of the current owner."
      },
      "renounceOwnership()": {
        "details": "Leaves the contract without owner. It will not be possible to call `onlyOwner` functions. Can only be called by the current owner. NOTE: Renouncing ownership will leave the contract without an owner, thereby disabling any functionality that is only available to the owner."
      },
      "revokeMinter(address)": {
        "details": "removes minter from minter list",
        "params": {
          "_minter": "address of the minter"
        }
      },
      "transferOwnership(address)": {
        "details": "Transfers ownership of the contract to a new account (`newOwner`). Can only be called by the current owner."
      }
    },
    "title": "implements owner of the MintableToken contract",
    "version": 1
  },
  "userdoc": {
    "kind": "user",
    "methods": {},
    "version": 1
  },
  "storageLayout": {
    "storage": [
      {
        "astId": 110,
        "contract": "contracts/MintableTokenOwner.sol:MintableTokenOwner",
        "label": "_owner",
        "offset": 0,
        "slot": "0",
        "type": "t_address"
      },
      {
        "astId": 5073,
        "contract": "contracts/MintableTokenOwner.sol:MintableTokenOwner",
        "label": "minters",
        "offset": 0,
        "slot": "1",
        "type": "t_mapping(t_address,t_bool)"
      }
    ],
    "types": {
      "t_address": {
        "encoding": "inplace",
        "label": "address",
        "numberOfBytes": "20"
      },
      "t_bool": {
        "encoding": "inplace",
        "label": "bool",
        "numberOfBytes": "1"
      },
      "t_mapping(t_address,t_bool)": {
        "encoding": "mapping",
        "key": "t_address",
        "label": "mapping(address => bool)",
        "numberOfBytes": "32",
        "value": "t_bool"
      }
    }
  }
}