{
  "address": "0x4760847023fa0833221ae76E01Db1E483A5D20e0",
  "abi": [
    {
      "inputs": [
        {
          "internalType": "address",
          "name": "_mintableTokenOwner",
          "type": "address"
        },
        {
          "internalType": "address",
          "name": "_nativeWrapped",
          "type": "address"
        },
        {
          "internalType": "address",
          "name": "_priceFeed",
          "type": "address"
        },
        {
          "internalType": "address",
          "name": "_vaultDeployer",
          "type": "address"
        },
        {
          "internalType": "address",
          "name": "_liquidationRouter",
          "type": "address"
        },
        {
          "internalType": "address",
          "name": "_borrowRate",
          "type": "address"
        }
      ],
      "stateMutability": "nonpayable",
      "type": "constructor"
    },
    {
      "anonymous": false,
      "inputs": [
        {
          "indexed": false,
          "internalType": "address",
          "name": "oldBorrowRate",
          "type": "address"
        },
        {
          "indexed": false,
          "internalType": "address",
          "name": "newBorrowRate",
          "type": "address"
        }
      ],
      "name": "BorrowRateUpdated",
      "type": "event"
    },
    {
      "anonymous": false,
      "inputs": [
        {
          "indexed": true,
          "internalType": "address",
          "name": "collateral",
          "type": "address"
        },
        {
          "indexed": false,
          "internalType": "uint256",
          "name": "oldCapacity",
          "type": "uint256"
        },
        {
          "indexed": false,
          "internalType": "uint256",
          "name": "newCapacity",
          "type": "uint256"
        }
      ],
      "name": "CollateralCapacityUpdated",
      "type": "event"
    },
    {
      "anonymous": false,
      "inputs": [
        {
          "indexed": false,
          "internalType": "uint256",
          "name": "oldDebtCeiling",
          "type": "uint256"
        },
        {
          "indexed": false,
          "internalType": "uint256",
          "name": "newDebtCeiling",
          "type": "uint256"
        }
      ],
      "name": "DebtCeilingUpdated",
      "type": "event"
    },
    {
      "anonymous": false,
      "inputs": [
        {
          "indexed": false,
          "internalType": "uint256",
          "name": "oldDebtWindowSize",
          "type": "uint256"
        },
        {
          "indexed": false,
          "internalType": "uint256",
          "name": "newDebtWindowSize",
          "type": "uint256"
        }
      ],
      "name": "DebtWindowSizeUpdated",
      "type": "event"
    },
    {
      "anonymous": false,
      "inputs": [
        {
          "indexed": false,
          "internalType": "uint256",
          "name": "oldMaxDebtPerWindow",
          "type": "uint256"
        },
        {
          "indexed": false,
          "internalType": "uint256",
          "name": "newMaxDebtPerWindow",
          "type": "uint256"
        }
      ],
      "name": "MaxDebtPerWindowUpdated",
      "type": "event"
    },
    {
      "anonymous": false,
      "inputs": [
        {
          "indexed": false,
          "internalType": "uint256",
          "name": "oldMaxTokensPerVault",
          "type": "uint256"
        },
        {
          "indexed": false,
          "internalType": "uint256",
          "name": "newMaxTokensPerVault",
          "type": "uint256"
        }
      ],
      "name": "MaxTokensPerVaultUpdated",
      "type": "event"
    },
    {
      "anonymous": false,
      "inputs": [
        {
          "indexed": true,
          "internalType": "address",
          "name": "vault",
          "type": "address"
        },
        {
          "indexed": false,
          "internalType": "string",
          "name": "name",
          "type": "string"
        },
        {
          "indexed": true,
          "internalType": "address",
          "name": "owner",
          "type": "address"
        }
      ],
      "name": "NewVault",
      "type": "event"
    },
    {
      "anonymous": false,
      "inputs": [
        {
          "indexed": true,
          "internalType": "address",
          "name": "previousOwner",
          "type": "address"
        },
        {
          "indexed": true,
          "internalType": "address",
          "name": "newOwner",
          "type": "address"
        }
      ],
      "name": "OwnershipTransferred",
      "type": "event"
    },
    {
      "anonymous": false,
      "inputs": [
        {
          "indexed": true,
          "internalType": "address",
          "name": "priceFeed",
          "type": "address"
        }
      ],
      "name": "PriceFeedUpdated",
      "type": "event"
    },
    {
      "anonymous": false,
      "inputs": [
        {
          "indexed": false,
          "internalType": "uint256",
          "name": "oldRedemptionHealthFactorLimit",
          "type": "uint256"
        },
        {
          "indexed": false,
          "internalType": "uint256",
          "name": "newRedemptionHealthFactorLimit",
          "type": "uint256"
        }
      ],
      "name": "RedemptionHealthFactorLimitUpdated",
      "type": "event"
    },
    {
      "anonymous": false,
      "inputs": [
        {
          "indexed": false,
          "internalType": "uint256",
          "name": "oldRedemptionRate",
          "type": "uint256"
        },
        {
          "indexed": false,
          "internalType": "uint256",
          "name": "newRedemptionRate",
          "type": "uint256"
        }
      ],
      "name": "RedemptionRateUpdated",
      "type": "event"
    },
    {
      "anonymous": false,
      "inputs": [
        {
          "indexed": true,
          "internalType": "address",
          "name": "vault",
          "type": "address"
        },
        {
          "indexed": true,
          "internalType": "address",
          "name": "oldOwner",
          "type": "address"
        },
        {
          "indexed": true,
          "internalType": "address",
          "name": "newOwner",
          "type": "address"
        }
      ],
      "name": "VaultOwnerChanged",
      "type": "event"
    },
    {
      "anonymous": false,
      "inputs": [
        {
          "indexed": true,
          "internalType": "address",
          "name": "liquidationRouter",
          "type": "address"
        }
      ],
      "name": "liquidationRouterUpdated",
      "type": "event"
    },
    {
      "inputs": [],
      "name": "DECIMAL_PRECISION",
      "outputs": [
        {
          "internalType": "uint256",
          "name": "",
          "type": "uint256"
        }
      ],
      "stateMutability": "view",
      "type": "function"
    },
    {
      "inputs": [],
      "name": "LIQUIDATION_RESERVE",
      "outputs": [
        {
          "internalType": "uint256",
          "name": "",
          "type": "uint256"
        }
      ],
      "stateMutability": "view",
      "type": "function"
    },
    {
      "inputs": [],
      "name": "MAX_BORROWING_RATE",
      "outputs": [
        {
          "internalType": "uint256",
          "name": "",
          "type": "uint256"
        }
      ],
      "stateMutability": "view",
      "type": "function"
    },
    {
      "inputs": [],
      "name": "MAX_INT",
      "outputs": [
        {
          "internalType": "uint256",
          "name": "",
          "type": "uint256"
        }
      ],
      "stateMutability": "view",
      "type": "function"
    },
    {
      "inputs": [],
      "name": "MAX_REDEMPTION_RATE",
      "outputs": [
        {
          "internalType": "uint256",
          "name": "",
          "type": "uint256"
        }
      ],
      "stateMutability": "view",
      "type": "function"
    },
    {
      "inputs": [],
      "name": "MAX_TOKENS_PER_VAULT",
      "outputs": [
        {
          "internalType": "uint256",
          "name": "",
          "type": "uint256"
        }
      ],
      "stateMutability": "view",
      "type": "function"
    },
    {
      "inputs": [],
      "name": "PERCENT",
      "outputs": [
        {
          "internalType": "uint256",
          "name": "",
          "type": "uint256"
        }
      ],
      "stateMutability": "view",
      "type": "function"
    },
    {
      "inputs": [],
      "name": "PERCENT10",
      "outputs": [
        {
          "internalType": "uint256",
          "name": "",
          "type": "uint256"
        }
      ],
      "stateMutability": "view",
      "type": "function"
    },
    {
      "inputs": [],
      "name": "PERCENT_05",
      "outputs": [
        {
          "internalType": "uint256",
          "name": "",
          "type": "uint256"
        }
      ],
      "stateMutability": "view",
      "type": "function"
    },
    {
      "inputs": [
        {
          "internalType": "address",
          "name": "_vault",
          "type": "address"
        },
        {
          "internalType": "address",
          "name": "_collateral",
          "type": "address"
        },
        {
          "internalType": "uint256",
          "name": "_amount",
          "type": "uint256"
        }
      ],
      "name": "addCollateral",
      "outputs": [],
      "stateMutability": "nonpayable",
      "type": "function"
    },
    {
      "inputs": [
        {
          "internalType": "address",
          "name": "_vault",
          "type": "address"
        }
      ],
      "name": "addCollateralNative",
      "outputs": [],
      "stateMutability": "payable",
      "type": "function"
    },
    {
      "inputs": [
        {
          "internalType": "address",
          "name": "_vault",
          "type": "address"
        },
        {
          "internalType": "uint256",
          "name": "_amount",
          "type": "uint256"
        },
        {
          "internalType": "address",
          "name": "_to",
          "type": "address"
        }
      ],
      "name": "borrow",
      "outputs": [],
      "stateMutability": "nonpayable",
      "type": "function"
    },
    {
      "inputs": [],
      "name": "borrowFeeRecipient",
      "outputs": [
        {
          "internalType": "address",
          "name": "",
          "type": "address"
        }
      ],
      "stateMutability": "view",
      "type": "function"
    },
    {
      "inputs": [],
      "name": "borrowRate",
      "outputs": [
        {
          "internalType": "address",
          "name": "",
          "type": "address"
        }
      ],
      "stateMutability": "view",
      "type": "function"
    },
    {
      "inputs": [
        {
          "internalType": "address",
          "name": "_vault",
          "type": "address"
        }
      ],
      "name": "closeVault",
      "outputs": [],
      "stateMutability": "nonpayable",
      "type": "function"
    },
    {
      "inputs": [
        {
          "internalType": "address",
          "name": "",
          "type": "address"
        }
      ],
      "name": "collateral",
      "outputs": [
        {
          "internalType": "uint256",
          "name": "",
          "type": "uint256"
        }
      ],
      "stateMutability": "view",
      "type": "function"
    },
    {
      "inputs": [
        {
          "internalType": "address",
          "name": "",
          "type": "address"
        }
      ],
      "name": "collateralCap",
      "outputs": [
        {
          "internalType": "uint256",
          "name": "",
          "type": "uint256"
        }
      ],
      "stateMutability": "view",
      "type": "function"
    },
    {
      "inputs": [
        {
          "internalType": "address",
          "name": "_vault",
          "type": "address"
        }
      ],
      "name": "containsVault",
      "outputs": [
        {
          "internalType": "bool",
          "name": "",
          "type": "bool"
        }
      ],
      "stateMutability": "view",
      "type": "function"
    },
    {
      "inputs": [
        {
          "internalType": "string",
          "name": "_name",
          "type": "string"
        }
      ],
      "name": "createVault",
      "outputs": [
        {
          "internalType": "address",
          "name": "",
          "type": "address"
        }
      ],
      "stateMutability": "nonpayable",
      "type": "function"
    },
    {
      "inputs": [],
      "name": "debtCeiling",
      "outputs": [
        {
          "internalType": "uint256",
          "name": "",
          "type": "uint256"
        }
      ],
      "stateMutability": "view",
      "type": "function"
    },
    {
      "inputs": [],
      "name": "debtWindowAmount",
      "outputs": [
        {
          "internalType": "uint256",
          "name": "",
          "type": "uint256"
        }
      ],
      "stateMutability": "view",
      "type": "function"
    },
    {
      "inputs": [],
      "name": "debtWindowSize",
      "outputs": [
        {
          "internalType": "uint256",
          "name": "",
          "type": "uint256"
        }
      ],
      "stateMutability": "view",
      "type": "function"
    },
    {
      "inputs": [
        {
          "internalType": "address",
          "name": "_vault",
          "type": "address"
        },
        {
          "internalType": "uint256",
          "name": "_amount",
          "type": "uint256"
        }
      ],
      "name": "distributeBadDebt",
      "outputs": [],
      "stateMutability": "nonpayable",
      "type": "function"
    },
    {
      "inputs": [],
      "name": "firstVault",
      "outputs": [
        {
          "internalType": "address",
          "name": "",
          "type": "address"
        }
      ],
      "stateMutability": "view",
      "type": "function"
    },
    {
      "inputs": [
        {
          "internalType": "address",
          "name": "_collateral",
          "type": "address"
        }
      ],
      "name": "isCollateralSupported",
      "outputs": [
        {
          "internalType": "bool",
          "name": "",
          "type": "bool"
        }
      ],
      "stateMutability": "view",
      "type": "function"
    },
    {
      "inputs": [
        {
          "internalType": "address",
          "name": "_vault",
          "type": "address"
        }
      ],
      "name": "isLiquidatable",
      "outputs": [
        {
          "internalType": "bool",
          "name": "",
          "type": "bool"
        }
      ],
      "stateMutability": "view",
      "type": "function"
    },
    {
      "inputs": [
        {
          "internalType": "address",
          "name": "_vault",
          "type": "address"
        },
        {
          "internalType": "address",
          "name": "_collateral",
          "type": "address"
        }
      ],
      "name": "isReedemable",
      "outputs": [
        {
          "internalType": "bool",
          "name": "",
          "type": "bool"
        }
      ],
      "stateMutability": "view",
      "type": "function"
    },
    {
      "inputs": [],
      "name": "lastDebtWindow",
      "outputs": [
        {
          "internalType": "uint256",
          "name": "",
          "type": "uint256"
        }
      ],
      "stateMutability": "view",
      "type": "function"
    },
    {
      "inputs": [],
      "name": "lastVault",
      "outputs": [
        {
          "internalType": "address",
          "name": "",
          "type": "address"
        }
      ],
      "stateMutability": "view",
      "type": "function"
    },
    {
      "inputs": [
        {
          "internalType": "address",
          "name": "_vault",
          "type": "address"
        }
      ],
      "name": "liquidate",
      "outputs": [],
      "stateMutability": "nonpayable",
      "type": "function"
    },
    {
      "inputs": [],
      "name": "liquidationRouter",
      "outputs": [
        {
          "internalType": "address",
          "name": "",
          "type": "address"
        }
      ],
      "stateMutability": "view",
      "type": "function"
    },
    {
      "inputs": [],
      "name": "maxDebtPerWindow",
      "outputs": [
        {
          "internalType": "uint256",
          "name": "",
          "type": "uint256"
        }
      ],
      "stateMutability": "view",
      "type": "function"
    },
    {
      "inputs": [],
      "name": "mintableTokenOwner",
      "outputs": [
        {
          "internalType": "contract IMintableTokenOwner",
          "name": "",
          "type": "address"
        }
      ],
      "stateMutability": "view",
      "type": "function"
    },
    {
      "inputs": [],
      "name": "nativeWrapped",
      "outputs": [
        {
          "internalType": "address",
          "name": "",
          "type": "address"
        }
      ],
      "stateMutability": "view",
      "type": "function"
    },
    {
      "inputs": [
        {
          "internalType": "address",
          "name": "_vault",
          "type": "address"
        }
      ],
      "name": "nextVault",
      "outputs": [
        {
          "internalType": "address",
          "name": "",
          "type": "address"
        }
      ],
      "stateMutability": "view",
      "type": "function"
    },
    {
      "inputs": [],
      "name": "owner",
      "outputs": [
        {
          "internalType": "address",
          "name": "",
          "type": "address"
        }
      ],
      "stateMutability": "view",
      "type": "function"
    },
    {
      "inputs": [
        {
          "internalType": "address",
          "name": "_vault",
          "type": "address"
        }
      ],
      "name": "prevVault",
      "outputs": [
        {
          "internalType": "address",
          "name": "",
          "type": "address"
        }
      ],
      "stateMutability": "view",
      "type": "function"
    },
    {
      "inputs": [],
      "name": "priceFeed",
      "outputs": [
        {
          "internalType": "address",
          "name": "",
          "type": "address"
        }
      ],
      "stateMutability": "view",
      "type": "function"
    },
    {
      "inputs": [
        {
          "internalType": "address",
          "name": "_vault",
          "type": "address"
        },
        {
          "internalType": "address",
          "name": "_collateral",
          "type": "address"
        },
        {
          "internalType": "uint256",
          "name": "_collateralAmount",
          "type": "uint256"
        },
        {
          "internalType": "address",
          "name": "_to",
          "type": "address"
        }
      ],
      "name": "redeem",
      "outputs": [],
      "stateMutability": "nonpayable",
      "type": "function"
    },
    {
      "inputs": [],
      "name": "redemptionFeeRecipient",
      "outputs": [
        {
          "internalType": "address",
          "name": "",
          "type": "address"
        }
      ],
      "stateMutability": "view",
      "type": "function"
    },
    {
      "inputs": [],
      "name": "redemptionHealthFactorLimit",
      "outputs": [
        {
          "internalType": "uint256",
          "name": "",
          "type": "uint256"
        }
      ],
      "stateMutability": "view",
      "type": "function"
    },
    {
      "inputs": [],
      "name": "redemptionRate",
      "outputs": [
        {
          "internalType": "uint256",
          "name": "",
          "type": "uint256"
        }
      ],
      "stateMutability": "view",
      "type": "function"
    },
    {
      "inputs": [
        {
          "internalType": "address",
          "name": "_vault",
          "type": "address"
        },
        {
          "internalType": "address",
          "name": "_collateral",
          "type": "address"
        },
        {
          "internalType": "uint256",
          "name": "_amount",
          "type": "uint256"
        },
        {
          "internalType": "address",
          "name": "_to",
          "type": "address"
        }
      ],
      "name": "removeCollateral",
      "outputs": [],
      "stateMutability": "nonpayable",
      "type": "function"
    },
    {
      "inputs": [
        {
          "internalType": "address",
          "name": "_vault",
          "type": "address"
        },
        {
          "internalType": "uint256",
          "name": "_amount",
          "type": "uint256"
        },
        {
          "internalType": "address",
          "name": "_to",
          "type": "address"
        }
      ],
      "name": "removeCollateralNative",
      "outputs": [],
      "stateMutability": "nonpayable",
      "type": "function"
    },
    {
      "inputs": [],
      "name": "renounceOwnership",
      "outputs": [],
      "stateMutability": "nonpayable",
      "type": "function"
    },
    {
      "inputs": [
        {
          "internalType": "address",
          "name": "_vault",
          "type": "address"
        },
        {
          "internalType": "uint256",
          "name": "_amount",
          "type": "uint256"
        }
      ],
      "name": "repay",
      "outputs": [],
      "stateMutability": "nonpayable",
      "type": "function"
    },
    {
      "inputs": [
        {
          "internalType": "address",
          "name": "_borrowFeeRecipient",
          "type": "address"
        }
      ],
      "name": "setBorrowFeeRecipient",
      "outputs": [],
      "stateMutability": "nonpayable",
      "type": "function"
    },
    {
      "inputs": [
        {
          "internalType": "address",
          "name": "_borrowRate",
          "type": "address"
        }
      ],
      "name": "setBorrowRate",
      "outputs": [],
      "stateMutability": "nonpayable",
      "type": "function"
    },
    {
      "inputs": [
        {
          "internalType": "address",
          "name": "_collateral",
          "type": "address"
        },
        {
          "internalType": "uint256",
          "name": "_cap",
          "type": "uint256"
        }
      ],
      "name": "setCollateralCapacity",
      "outputs": [],
      "stateMutability": "nonpayable",
      "type": "function"
    },
    {
      "inputs": [
        {
          "internalType": "uint256",
          "name": "_debtCeiling",
          "type": "uint256"
        }
      ],
      "name": "setDebtCeiling",
      "outputs": [],
      "stateMutability": "nonpayable",
      "type": "function"
    },
    {
      "inputs": [
        {
          "internalType": "uint256",
          "name": "_debtWindowSize",
          "type": "uint256"
        }
      ],
      "name": "setDebtWindowSize",
      "outputs": [],
      "stateMutability": "nonpayable",
      "type": "function"
    },
    {
      "inputs": [
        {
          "internalType": "address",
          "name": "_liquidationRouter",
          "type": "address"
        }
      ],
      "name": "setLiquidationRouter",
      "outputs": [],
      "stateMutability": "nonpayable",
      "type": "function"
    },
    {
      "inputs": [
        {
          "internalType": "uint256",
          "name": "_maxDebtPerWindow",
          "type": "uint256"
        }
      ],
      "name": "setMaxDebtPerWindow",
      "outputs": [],
      "stateMutability": "nonpayable",
      "type": "function"
    },
    {
      "inputs": [
        {
          "internalType": "uint256",
          "name": "_maxTokensPerVault",
          "type": "uint256"
        }
      ],
      "name": "setMaxTokensPerVault",
      "outputs": [],
      "stateMutability": "nonpayable",
      "type": "function"
    },
    {
      "inputs": [
        {
          "internalType": "address",
          "name": "_priceFeed",
          "type": "address"
        }
      ],
      "name": "setPriceFeed",
      "outputs": [],
      "stateMutability": "nonpayable",
      "type": "function"
    },
    {
      "inputs": [
        {
          "internalType": "address",
          "name": "_redemptionFeeRecipient",
          "type": "address"
        }
      ],
      "name": "setRedemptionFeeRecipient",
      "outputs": [],
      "stateMutability": "nonpayable",
      "type": "function"
    },
    {
      "inputs": [
        {
          "internalType": "uint256",
          "name": "_redemptionHealthFactorLimit",
          "type": "uint256"
        }
      ],
      "name": "setRedemptionHealthFactorLimit",
      "outputs": [],
      "stateMutability": "nonpayable",
      "type": "function"
    },
    {
      "inputs": [
        {
          "internalType": "uint256",
          "name": "_redemptionRate",
          "type": "uint256"
        }
      ],
      "name": "setRedemptionRate",
      "outputs": [],
      "stateMutability": "nonpayable",
      "type": "function"
    },
    {
      "inputs": [
        {
          "internalType": "address",
          "name": "_vaultDeployer",
          "type": "address"
        }
      ],
      "name": "setVaultDeployer",
      "outputs": [],
      "stateMutability": "nonpayable",
      "type": "function"
    },
    {
      "inputs": [],
      "name": "stable",
      "outputs": [
        {
          "internalType": "address",
          "name": "",
          "type": "address"
        }
      ],
      "stateMutability": "view",
      "type": "function"
    },
    {
      "inputs": [],
      "name": "totalDebt",
      "outputs": [
        {
          "internalType": "uint256",
          "name": "",
          "type": "uint256"
        }
      ],
      "stateMutability": "view",
      "type": "function"
    },
    {
      "inputs": [
        {
          "internalType": "address",
          "name": "newOwner",
          "type": "address"
        }
      ],
      "name": "transferOwnership",
      "outputs": [],
      "stateMutability": "nonpayable",
      "type": "function"
    },
    {
      "inputs": [
        {
          "internalType": "address",
          "name": "_vault",
          "type": "address"
        },
        {
          "internalType": "address",
          "name": "_newOwner",
          "type": "address"
        }
      ],
      "name": "transferVaultOwnership",
      "outputs": [],
      "stateMutability": "nonpayable",
      "type": "function"
    },
    {
      "inputs": [],
      "name": "vaultCount",
      "outputs": [
        {
          "internalType": "uint256",
          "name": "",
          "type": "uint256"
        }
      ],
      "stateMutability": "view",
      "type": "function"
    },
    {
      "inputs": [],
      "name": "vaultDeployer",
      "outputs": [
        {
          "internalType": "address",
          "name": "",
          "type": "address"
        }
      ],
      "stateMutability": "view",
      "type": "function"
    },
    {
      "inputs": [
        {
          "internalType": "address",
          "name": "_owner",
          "type": "address"
        },
        {
          "internalType": "uint256",
          "name": "_index",
          "type": "uint256"
        }
      ],
      "name": "vaultsByOwner",
      "outputs": [
        {
          "internalType": "address",
          "name": "",
          "type": "address"
        }
      ],
      "stateMutability": "view",
      "type": "function"
    },
    {
      "inputs": [
        {
          "internalType": "address",
          "name": "_owner",
          "type": "address"
        }
      ],
      "name": "vaultsByOwnerLength",
      "outputs": [
        {
          "internalType": "uint256",
          "name": "",
          "type": "uint256"
        }
      ],
      "stateMutability": "view",
      "type": "function"
    },
    {
      "stateMutability": "payable",
      "type": "receive"
    }
  ],
  "transactionHash": "0x8e7deeb9ed1fab3a16b1b83131d5c63938275eb4c7d46cd978322489d42b1677",
  "args": [
    "0xB3857F86A95516902C953D530D3E5C29B1518a85",
    "0x0d500b1d8e8ef31e21c99d1db9a6444d3adf1270",
    "0xfBC5cfEb809c6352Bc4ef2FFe842f72a8769E45e",
    "0x6234325c353508c677701aC85e671A6A57c8fe59",
    "0x00ff66600b35428b8eb76dc622d404c7ac27a99f",
    "0x1E7224703E1B289e06F0Ff12519685fCf8E9306c"
  ],
  "numDeployments": 1,
  "solcInputHash": "d92118657e9aead9627ae1f18635314a",
  "bytecode": "0x60e060405260056004556002606462000022670de0b6b3a7640000600162000450565b6200002e91906200047c565b6200003a91906200047c565b6005556714d1120d7b160000600655600019600a55686c6b935b8bbd400000600b55610e10600c553480156200006f57600080fd5b5060405162004e7538038062004e758339810160408190526200009291620004b8565b60016000558282620000a433620003fe565b6001600160a01b038216620001005760405162461bcd60e51b815260206004820152601360248201527f7661756c742d6465706c6f7965722d69732d300000000000000000000000000060448201526064015b60405180910390fd5b6001600160a01b038116620001585760405162461bcd60e51b815260206004820152601860248201527f6c69717569646174696f6e2d666163746f72792d69732d3000000000000000006044820152606401620000f7565b600f80546001600160a01b0319166001600160a01b0384161790556200017b3390565b600780546001600160a01b0319166001600160a01b0392909216919091179055620001a33390565b600880546001600160a01b03199081166001600160a01b039384161790915542600d55601080549091169282169290921790915587169050620002295760405162461bcd60e51b815260206004820152601960248201527f6d696e7461626c652d746f6b656e2d6f776e65722d69732d30000000000000006044820152606401620000f7565b6001600160a01b03861660c081905260408051637e062a3560e11b8152905163fc0c546a916004808201926020929091908290030181865afa15801562000274573d6000803e3d6000fd5b505050506040513d601f19601f820116820180604052508101906200029a91906200054c565b6001600160a01b03166080819052620002e45760405162461bcd60e51b815260206004820152600b60248201526a0737461626c652d69732d360ac1b6044820152606401620000f7565b6001600160a01b0385166200032b5760405162461bcd60e51b815260206004820152600c60248201526b06e6174697665772d69732d360a41b6044820152606401620000f7565b6001600160a01b038416620003745760405162461bcd60e51b815260206004820152600e60248201526d07072696365666565642d69732d360941b6044820152606401620000f7565b6001600160a01b038116620003bf5760405162461bcd60e51b815260206004820152601060248201526f0626f72726f772d726174652d69732d360841b6044820152606401620000f7565b600380546001600160a01b03199081166001600160a01b039384161790915594811660a052600280549095169316929092179092555062000573915050565b600180546001600160a01b038381166001600160a01b0319831681179093556040519116919082907f8be0079c531659141344cd1fd0a4f28419497f9722a3daafe3b4186f6b6457e090600090a35050565b80820281158282048414176200047657634e487b7160e01b600052601160045260246000fd5b92915050565b6000826200049a57634e487b7160e01b600052601260045260246000fd5b500490565b6001600160a01b0381168114620004b557600080fd5b50565b60008060008060008060c08789031215620004d257600080fd5b8651620004df816200049f565b6020880151909650620004f2816200049f565b604088015190955062000505816200049f565b606088015190945062000518816200049f565b60808801519093506200052b816200049f565b60a08801519092506200053e816200049f565b809150509295509295509295565b6000602082840312156200055f57600080fd5b81516200056c816200049f565b9392505050565b60805160a05160c05161485462000621600039600081816109c80152818161231501526123fb015260008181610428015281816108c601528181610dff01528181610e8601528181610f0001528181610f7501528181611b9301528181611c0d01528181611c5c01528181611ce701528181611d650152611da80152600081816105c4015281816115cf0152818161160d0152818161303a01528181613078015261310301526148546000f3fe6080604052600436106104185760003560e01c80638ffadd0c11610228578063b85a8b2011610128578063dd351b9a116100bb578063fa6bd2ee1161008a578063fdbb3acf1161006f578063fdbb3acf14610c79578063fdc10daf14610cb2578063ffbfb8ad14610cd257600080fd5b8063fa6bd2ee14610c43578063fc7b9c1814610c6357600080fd5b8063dd351b9a14610bd7578063e1c84ea414610bed578063f2fde38b14610c03578063f7b6090814610c2357600080fd5b8063d1400f68116100f7578063d1400f6814610b61578063d8fdf91714610b81578063d984d5b214610ba1578063d9aa047314610bb757600080fd5b8063b85a8b201461075a578063c3971f6514610b0b578063c914b43714610b21578063c99cb2b714610b4157600080fd5b8063a3320222116101bb578063abdc55411161018a578063ad09014d1161016f578063ad09014d14610ab6578063b1511cc914610acb578063b6b2196d14610aeb57600080fd5b8063abdc554114610a8c578063aceb2d0414610aa157600080fd5b8063a332022214610a0a578063a5fdc5de14610a2a578063a74dd4c414610a57578063a7c6a10014610a7757600080fd5b806396f57b6e116101f757806396f57b6e146109985780639ce11f2d146109b6578063a0609bd4146109ea578063a20baee61461093c57600080fd5b80638ffadd0c1461091c578063923c1eec1461093c578063924adef01461095857806394bcfdaa1461097857600080fd5b80633fe1da8811610333578063679fda70116102c6578063741bef1a116102955780638abca6731161027a5780638abca673146108b45780638da5cb5b146108e85780638f81c12c1461090657600080fd5b8063741bef1a14610856578063839936c01461087657600080fd5b8063679fda70146107e15780636c665a5514610801578063715018a614610821578063724e78da1461083657600080fd5b80634bb97042116103025780634bb970421461075a578063540385a31461076f57806359781034146107855780635b8b5770146107a557600080fd5b80633fe1da88146106e45780634349d0811461070457806344ba8b0e14610717578063451e87391461072d57600080fd5b806323896091116103ab5780632f17e0301161037a5780632f17e030146106645780632f865568146106845780633cf57c61146106a45780633d913818146106c457600080fd5b806323896091146105e6578063274b600a14610606578063294c6095146106265780632a807f7c1461064657600080fd5b80630b3392d8116103e75780630b3392d81461053a5780631a0121db1461055a57806322867d781461059257806322be3de1146105b257600080fd5b8063027d5946146104a1578063042e02cf146104c157806304aecb76146104f6578063098d32281461051657600080fd5b3661049c57336001600160a01b037f0000000000000000000000000000000000000000000000000000000000000000161461049a5760405162461bcd60e51b815260206004820152601360248201527f6f6e6c792d6e61746976652d777261707065640000000000000000000000000060448201526064015b60405180910390fd5b005b600080fd5b3480156104ad57600080fd5b5061049a6104bc366004614335565b610ce8565b3480156104cd57600080fd5b506104e16104dc366004614377565b611016565b60405190151581526020015b60405180910390f35b34801561050257600080fd5b506104e1610511366004614394565b6110ee565b34801561052257600080fd5b5061052c60001981565b6040519081526020016104ed565b34801561054657600080fd5b5061049a6105553660046143cd565b611463565b34801561056657600080fd5b5061057a6105753660046143e6565b6114ac565b6040516001600160a01b0390911681526020016104ed565b34801561059e57600080fd5b5061049a6105ad3660046143e6565b6114d5565b3480156105be57600080fd5b5061057a7f000000000000000000000000000000000000000000000000000000000000000081565b3480156105f257600080fd5b5061049a610601366004614377565b611676565b34801561061257600080fd5b5061049a610621366004614377565b6116f6565b34801561063257600080fd5b5060075461057a906001600160a01b031681565b34801561065257600080fd5b506011546001600160a01b031661057a565b34801561067057600080fd5b50600f5461057a906001600160a01b031681565b34801561069057600080fd5b5061049a61069f366004614377565b611776565b3480156106b057600080fd5b5061049a6106bf3660046143cd565b6118d9565b3480156106d057600080fd5b5061049a6106df3660046143e6565b611972565b3480156106f057600080fd5b5061057a6106ff366004614459565b611a3f565b61049a610712366004614377565b611b32565b34801561072357600080fd5b5061052c600c5481565b34801561073957600080fd5b5061052c610748366004614377565b60096020526000908152604090205481565b34801561076657600080fd5b5061052c611de6565b34801561077b57600080fd5b5061052c60055481565b34801561079157600080fd5b5061049a6107a03660046144ee565b611e08565b3480156107b157600080fd5b5061057a6107c0366004614377565b6001600160a01b039081166000908152601460205260409020600101541690565b3480156107ed57600080fd5b5060105461057a906001600160a01b031681565b34801561080d57600080fd5b5061049a61081c366004614335565b611fd5565b34801561082d57600080fd5b5061049a612463565b34801561084257600080fd5b5061049a610851366004614377565b612477565b34801561086257600080fd5b5060025461057a906001600160a01b031681565b34801561088257600080fd5b506104e1610891366004614377565b6001600160a01b0390811660009081526014602052604090206001015416151590565b3480156108c057600080fd5b5061057a7f000000000000000000000000000000000000000000000000000000000000000081565b3480156108f457600080fd5b506001546001600160a01b031661057a565b34801561091257600080fd5b5061052c600e5481565b34801561092857600080fd5b5061052c610937366004614377565b61251f565b34801561094857600080fd5b5061052c670de0b6b3a764000081565b34801561096457600080fd5b5061049a610973366004614377565b612540565b34801561098457600080fd5b5060085461057a906001600160a01b031681565b3480156109a457600080fd5b506012546001600160a01b031661057a565b3480156109c257600080fd5b5061057a7f000000000000000000000000000000000000000000000000000000000000000081565b3480156109f657600080fd5b5061049a610a0536600461452f565b6125c0565b348015610a1657600080fd5b5061049a610a253660046143cd565b6127c5565b348015610a3657600080fd5b5061052c610a45366004614377565b60166020526000908152604090205481565b348015610a6357600080fd5b5061049a610a723660046143cd565b61280e565b348015610a8357600080fd5b5060135461052c565b348015610a9857600080fd5b5061052c612857565b348015610aad57600080fd5b5061052c61286c565b348015610ac257600080fd5b5061052c61288d565b348015610ad757600080fd5b5061049a610ae63660046143cd565b6128b7565b348015610af757600080fd5b5061049a610b063660046143cd565b612900565b348015610b1757600080fd5b5061052c60065481565b348015610b2d57600080fd5b5060035461057a906001600160a01b031681565b348015610b4d57600080fd5b5061049a610b5c366004614377565b6129b7565b348015610b6d57600080fd5b5061049a610b7c3660046143e6565b612c35565b348015610b8d57600080fd5b5061049a610b9c366004614377565b612d87565b348015610bad57600080fd5b5061052c600d5481565b348015610bc357600080fd5b5061049a610bd236600461452f565b612e4e565b348015610be357600080fd5b5061052c600b5481565b348015610bf957600080fd5b5061052c600a5481565b348015610c0f57600080fd5b5061049a610c1e366004614377565b61319b565b348015610c2f57600080fd5b5061049a610c3e366004614377565b613228565b348015610c4f57600080fd5b506104e1610c5e366004614377565b6132d0565b348015610c6f57600080fd5b5061052c60175481565b348015610c8557600080fd5b5061057a610c94366004614377565b6001600160a01b039081166000908152601460205260409020541690565b348015610cbe57600080fd5b5061049a610ccd366004614394565b6132db565b348015610cde57600080fd5b5061052c60045481565b82336001600160a01b0316816001600160a01b0316631f52692b6040518163ffffffff1660e01b8152600401602060405180830381865afa158015610d31573d6000803e3d6000fd5b505050506040513d601f19601f82011682018060405250810190610d559190614582565b6001600160a01b031614610d9e5760405162461bcd60e51b815260206004820152601060248201526f37b7363c96bb30bab63a16b7bbb732b960811b6044820152606401610491565b6001600160a01b0380851660009081526014602052604090206001015416610dfa5760405162461bcd60e51b815260206004820152600f60248201526e1d985d5b1d0b5b9bdd0b599bdd5b99608a1b6044820152606401610491565b610e237f000000000000000000000000000000000000000000000000000000000000000061350d565b610e6f5760405162461bcd60e51b815260206004820152601860248201527f636f6c6c61746572616c2d6e6f742d737570706f7274656400000000000000006044820152606401610491565b604051633879b0c560e01b81526001600160a01b037f00000000000000000000000000000000000000000000000000000000000000008116600483015260248201859052306044830152851690633879b0c590606401600060405180830381600087803b158015610edf57600080fd5b505af1158015610ef3573d6000803e3d6000fd5b5050506001600160a01b037f00000000000000000000000000000000000000000000000000000000000000001660009081526016602052604081208054869350909190610f419084906145b5565b90915550506040517f2e1a7d4d000000000000000000000000000000000000000000000000000000008152600481018490527f00000000000000000000000000000000000000000000000000000000000000006001600160a01b031690632e1a7d4d90602401600060405180830381600087803b158015610fc157600080fd5b505af1158015610fd5573d6000803e3d6000fd5b50506040516001600160a01b038516925085156108fc02915085906000818181858888f1935050505015801561100f573d6000803e3d6000fd5b5050505050565b6001600160a01b038082166000908152601460205260408120600101549091166110745760405162461bcd60e51b815260206004820152600f60248201526e1d985d5b1d0b5b9bdd0b599bdd5b99608a1b6044820152606401610491565b60405163c3f7e0b760e01b815260016004820152670de0b6b3a7640000906001600160a01b0384169063c3f7e0b790602401602060405180830381865afa1580156110c3573d6000803e3d6000fd5b505050506040513d601f19601f820116820180604052508101906110e791906145c8565b1092915050565b60006110f98261350d565b6111455760405162461bcd60e51b815260206004820152601860248201527f636f6c6c61746572616c2d6e6f742d737570706f7274656400000000000000006044820152606401610491565b6040517f4bfc894d0000000000000000000000000000000000000000000000000000000081526001600160a01b038381166004830152841690634bfc894d90602401602060405180830381865afa1580156111a4573d6000803e3d6000fd5b505050506040513d601f19601f820116820180604052508101906111c891906145e1565b6111d45750600061145d565b60405163c3f7e0b760e01b8152600060048201819052906001600160a01b0385169063c3f7e0b790602401602060405180830381865afa15801561121c573d6000803e3d6000fd5b505050506040513d601f19601f8201168201806040525081019061124091906145c8565b9050600654811061125557600091505061145d565b6002546040517faa41911f0000000000000000000000000000000000000000000000000000000081526001600160a01b03858116600483015290911690600090829063aa41911f90602401602060405180830381865afa1580156112bd573d6000803e3d6000fd5b505050506040513d601f19601f820116820180604052508101906112e191906145c8565b90506000866001600160a01b0316634113e5ca6040518163ffffffff1660e01b8152600401600060405180830381865afa158015611323573d6000803e3d6000fd5b505050506040513d6000823e601f3d908101601f1916820160405261134b9190810190614603565b805190915060005b8181101561145257876001600160a01b0316838281518110611377576113776146b5565b60200260200101516001600160a01b031614611440576000856001600160a01b031663aa41911f8584815181106113b0576113b06146b5565b60200260200101516040518263ffffffff1660e01b81526004016113e391906001600160a01b0391909116815260200190565b602060405180830381865afa158015611400573d6000803e3d6000fd5b505050506040513d601f19601f8201168201806040525081019061142491906145c8565b90508481111561143e57600097505050505050505061145d565b505b8061144a816146cb565b915050611353565b506001955050505050505b92915050565b61146b6135ab565b600b5460408051918252602082018390527f83243d8dfaeb36f198b8b4fae6e54c48ee1a5a89dcf13fcafe5486801cac5464910160405180910390a1600b55565b6001600160a01b03821660009081526015602052604081206114ce9083613605565b9392505050565b6001600160a01b03808316600090815260146020526040902060010154166115315760405162461bcd60e51b815260206004820152600f60248201526e1d985d5b1d0b5b9bdd0b599bdd5b99608a1b6044820152606401610491565b806017600082825461154391906145b5565b90915550506040517f371fd8e6000000000000000000000000000000000000000000000000000000008152600481018290526001600160a01b0383169063371fd8e690602401600060405180830381600087803b1580156115a357600080fd5b505af11580156115b7573d6000803e3d6000fd5b505050506115f76115c53390565b6001600160a01b037f000000000000000000000000000000000000000000000000000000000000000016903084613611565b604051630852cd8d60e31b8152600481018290527f00000000000000000000000000000000000000000000000000000000000000006001600160a01b0316906342966c68906024015b600060405180830381600087803b15801561165a57600080fd5b505af115801561166e573d6000803e3d6000fd5b505050505050565b61167e6135ab565b6001600160a01b0381166116d45760405162461bcd60e51b815260206004820152601360248201527f7661756c742d6465706c6f7965722d69732d30000000000000000000000000006044820152606401610491565b600f80546001600160a01b0319166001600160a01b0392909216919091179055565b6116fe6135ab565b6001600160a01b0381166117545760405162461bcd60e51b815260206004820152601960248201527f626f72726f772d6665652d726563697069656e742d69732d30000000000000006044820152606401610491565b600780546001600160a01b0319166001600160a01b0392909216919091179055565b61177e6136c2565b6001600160a01b03808216600090815260146020526040902060010154166117da5760405162461bcd60e51b815260206004820152600f60248201526e1d985d5b1d0b5b9bdd0b599bdd5b99608a1b6044820152606401610491565b6000816001600160a01b0316631f52692b6040518163ffffffff1660e01b8152600401602060405180830381865afa15801561181a573d6000803e3d6000fd5b505050506040513d601f19601f8201168201806040525081019061183e9190614582565b90506000826001600160a01b03166328a070256040518163ffffffff1660e01b81526004016020604051808303816000875af1158015611882573d6000803e3d6000fd5b505050506040513d601f19601f820116820180604052508101906118a691906145c8565b905080601760008282546118ba91906145b5565b909155506118ca9050828461371b565b50506118d66001600055565b50565b6118e16135ab565b600081116119315760405162461bcd60e51b815260206004820152601960248201527f6d61782d746f6b656e732d7065722d7661756c742d69732d30000000000000006044820152606401610491565b60045460408051918252602082018390527fcaf5778278cf2f59a6d497322a6e5685e22da86955a754ebb64f427f1c4f4a3b910160405180910390a1600455565b61197a6135ab565b6001600160a01b0382166119d05760405162461bcd60e51b815260206004820152600f60248201527f636f6c6c61746572616c2d69732d3000000000000000000000000000000000006044820152606401610491565b6001600160a01b0382166000818152600960209081526040918290205482519081529081018490527fd77d4caf1a3d54b0174aa0175ec5db7866556e06ae85f72cfc27becb1d39c381910160405180910390a26001600160a01b03909116600090815260096020526040902055565b600f546040517f1233d5f4000000000000000000000000000000000000000000000000000000008152600091339183916001600160a01b031690631233d5f490611a9190309086908990600401614734565b6020604051808303816000875af1158015611ab0573d6000803e3d6000fd5b505050506040513d601f19601f82011682018060405250810190611ad49190614582565b9050611ae08282613799565b816001600160a01b0316816001600160a01b03167fd8e508729ff9830b43ef839ead95019f779b9b8ea6e4d30055512fb4ae58195986604051611b239190614769565b60405180910390a39392505050565b6001600160a01b0380821660009081526014602052604090206001015416611b8e5760405162461bcd60e51b815260206004820152600f60248201526e1d985d5b1d0b5b9bdd0b599bdd5b99608a1b6044820152606401610491565b611bb77f000000000000000000000000000000000000000000000000000000000000000061350d565b611c035760405162461bcd60e51b815260206004820152601860248201527f636f6c6c61746572616c2d6e6f742d737570706f7274656400000000000000006044820152606401610491565b6001600160a01b037f000000000000000000000000000000000000000000000000000000000000000016600090815260166020526040812080543492839291611c4d90849061477c565b90915550506001600160a01b037f0000000000000000000000000000000000000000000000000000000000000000166000908152600960209081526040808320546016909252909120541115611ce55760405162461bcd60e51b815260206004820152601660248201527f636f6c6c61746572616c2d6361702d72656163686564000000000000000000006044820152606401610491565b7f00000000000000000000000000000000000000000000000000000000000000006001600160a01b031663d0e30db0826040518263ffffffff1660e01b81526004016000604051808303818588803b158015611d4057600080fd5b505af1158015611d54573d6000803e3d6000fd5b50611d919350506001600160a01b037f00000000000000000000000000000000000000000000000000000000000000001691503090508484613611565b6040516336badcf760e11b81526001600160a01b037f00000000000000000000000000000000000000000000000000000000000000008116600483015260248201839052831690636d75b9ee90604401611640565b6064611dfb670de0b6b3a7640000600161478f565b611e0591906147a6565b81565b6001600160a01b0380841660009081526014602052604090206001015416611e645760405162461bcd60e51b815260206004820152600f60248201526e1d985d5b1d0b5b9bdd0b599bdd5b99608a1b6044820152606401610491565b611e6d8261350d565b611eb95760405162461bcd60e51b815260206004820152601860248201527f636f6c6c61746572616c2d6e6f742d737570706f7274656400000000000000006044820152606401610491565b6001600160a01b03821660009081526016602052604081208054839290611ee190849061477c565b90915550506001600160a01b0382166000908152600960209081526040808320546016909252909120541115611f595760405162461bcd60e51b815260206004820152601660248201527f636f6c6c61746572616c2d6361702d72656163686564000000000000000000006044820152606401610491565b611f6e6001600160a01b038316338584613611565b6040516336badcf760e11b81526001600160a01b03838116600483015260248201839052841690636d75b9ee90604401600060405180830381600087803b158015611fb857600080fd5b505af1158015611fcc573d6000803e3d6000fd5b50505050505050565b82336001600160a01b0316816001600160a01b0316631f52692b6040518163ffffffff1660e01b8152600401602060405180830381865afa15801561201e573d6000803e3d6000fd5b505050506040513d601f19601f820116820180604052508101906120429190614582565b6001600160a01b031614806120e257506001600160a01b038116636d70f7ae336040517fffffffff0000000000000000000000000000000000000000000000000000000060e084901b1681526001600160a01b039091166004820152602401602060405180830381865afa1580156120be573d6000803e3d6000fd5b505050506040513d601f19601f820116820180604052508101906120e291906145e1565b61212e5760405162461bcd60e51b815260206004820152601c60248201527f6f6e6c792d7661756c742d6f776e65722d6f722d6f70657261746f72000000006044820152606401610491565b6001600160a01b038085166000908152601460205260409020600101541661218a5760405162461bcd60e51b815260206004820152600f60248201526e1d985d5b1d0b5b9bdd0b599bdd5b99608a1b6044820152606401610491565b6001600160a01b0382166121ca5760405162461bcd60e51b81526020600482015260076024820152660746f2d69732d360cc1b6044820152606401610491565b82601760008282546121dc919061477c565b909155506121eb905083613815565b6040517fc5ebeaec000000000000000000000000000000000000000000000000000000008152600481018490526001600160a01b0385169063c5ebeaec90602401600060405180830381600087803b15801561224657600080fd5b505af115801561225a573d6000803e3d6000fd5b50506003546040517fd71275f60000000000000000000000000000000000000000000000000000000081526001600160a01b03888116600483015260009450909116915063d71275f690602401602060405180830381865afa1580156122c4573d6000803e3d6000fd5b505050506040513d601f19601f820116820180604052508101906122e891906145c8565b90506000670de0b6b3a76400006122ff838761478f565b61230991906147a6565b90506001600160a01b037f0000000000000000000000000000000000000000000000000000000000000000166340c10f198561234584896145b5565b6040517fffffffff0000000000000000000000000000000000000000000000000000000060e085901b1681526001600160a01b0390921660048301526024820152604401600060405180830381600087803b1580156123a357600080fd5b505af11580156123b7573d6000803e3d6000fd5b50506007546040517f40c10f190000000000000000000000000000000000000000000000000000000081526001600160a01b039182166004820152602481018590527f000000000000000000000000000000000000000000000000000000000000000090911692506340c10f199150604401600060405180830381600087803b15801561244357600080fd5b505af1158015612457573d6000803e3d6000fd5b50505050505050505050565b61246b6135ab565b61247560006138fa565b565b61247f6135ab565b6001600160a01b0381166124d55760405162461bcd60e51b815260206004820152600e60248201527f7072696365666565642d69732d300000000000000000000000000000000000006044820152606401610491565b600280546001600160a01b0319166001600160a01b0383169081179091556040517fe5b20b8497e4f3e2435ef9c20e2e26b47497ee13745ce1c681ad6640653119e690600090a250565b6001600160a01b038116600090815260156020526040812061145d9061394c565b6125486135ab565b6001600160a01b03811661259e5760405162461bcd60e51b815260206004820152601d60248201527f726564656d7074696f6e2d6665652d726563697069656e742d69732d300000006044820152606401610491565b600880546001600160a01b0319166001600160a01b0392909216919091179055565b83336001600160a01b0316816001600160a01b0316631f52692b6040518163ffffffff1660e01b8152600401602060405180830381865afa158015612609573d6000803e3d6000fd5b505050506040513d601f19601f8201168201806040525081019061262d9190614582565b6001600160a01b0316146126765760405162461bcd60e51b815260206004820152601060248201526f37b7363c96bb30bab63a16b7bbb732b960811b6044820152606401610491565b6001600160a01b03808616600090815260146020526040902060010154166126d25760405162461bcd60e51b815260206004820152600f60248201526e1d985d5b1d0b5b9bdd0b599bdd5b99608a1b6044820152606401610491565b6126db8461350d565b6127275760405162461bcd60e51b815260206004820152601860248201527f636f6c6c61746572616c2d6e6f742d737570706f7274656400000000000000006044820152606401610491565b6001600160a01b0384166000908152601660205260408120805485929061274f9084906145b5565b9091555050604051633879b0c560e01b81526001600160a01b038581166004830152602482018590528381166044830152861690633879b0c590606401600060405180830381600087803b1580156127a657600080fd5b505af11580156127ba573d6000803e3d6000fd5b505050505050505050565b6127cd6135ab565b60065460408051918252602082018390527f7d8c8ed0e3c555998cab69931038b9fdb45b5aa9781c72eda38d58283817e165910160405180910390a1600655565b6128166135ab565b600c5460408051918252602082018390527f2064bbd23980e8daa68cdd49af066139432d778de4b015dd88a98ebdaa882060910160405180910390a1600c55565b6064611dfb670de0b6b3a7640000600561478f565b60026064612883670de0b6b3a7640000600161478f565b611dfb91906147a6565b60646128a2670de0b6b3a7640000600161478f565b6128ac91906147a6565b611e0590600a61478f565b6128bf6135ab565b600a5460408051918252602082018390527f30ed4a4a8845d4c122766feed8fe1fbc1ca7a25750ad51a5763d59179da8b5df910160405180910390a1600a55565b6129086135ab565b606461291d670de0b6b3a7640000600161478f565b61292791906147a6565b8111156129765760405162461bcd60e51b815260206004820152601860248201527f726564656d7074696f6e2d726174652d746f6f2d6869676800000000000000006044820152606401610491565b60055460408051918252602082018390527f5c7ab69b0f96f475a3e817a94ff5726fbdbd80972444269449645cd383d5e122910160405180910390a1600555565b80336001600160a01b0316816001600160a01b0316631f52692b6040518163ffffffff1660e01b8152600401602060405180830381865afa158015612a00573d6000803e3d6000fd5b505050506040513d601f19601f82011682018060405250810190612a249190614582565b6001600160a01b031614612a6d5760405162461bcd60e51b815260206004820152601060248201526f37b7363c96bb30bab63a16b7bbb732b960811b6044820152606401610491565b6001600160a01b0380831660009081526014602052604090206001015416612ac95760405162461bcd60e51b815260206004820152600f60248201526e1d985d5b1d0b5b9bdd0b599bdd5b99608a1b6044820152606401610491565b816001600160a01b0316630dca59c16040518163ffffffff1660e01b8152600401602060405180830381865afa158015612b07573d6000803e3d6000fd5b505050506040513d601f19601f82011682018060405250810190612b2b91906145c8565b15612b785760405162461bcd60e51b815260206004820152600a60248201527f646562742d6e6f742d30000000000000000000000000000000000000000000006044820152606401610491565b816001600160a01b03166329ad2fb26040518163ffffffff1660e01b8152600401602060405180830381865afa158015612bb6573d6000803e3d6000fd5b505050506040513d601f19601f82011682018060405250810190612bda91906145c8565b15612c275760405162461bcd60e51b815260206004820152601060248201527f636f6c6c61746572616c2d6e6f742d30000000000000000000000000000000006044820152606401610491565b612c31338361371b565b5050565b612c3d6136c2565b6010546001600160a01b03163314612c975760405162461bcd60e51b815260206004820152601760248201527f6f6e6c792d6c69717569646174696f6e2d726f757465720000000000000000006044820152606401610491565b6001600160a01b0380831660009081526014602052604090206001015416612cf35760405162461bcd60e51b815260206004820152600f60248201526e1d985d5b1d0b5b9bdd0b599bdd5b99608a1b6044820152606401610491565b8060176000828254612d05919061477c565b90915550506040517f6b5bc994000000000000000000000000000000000000000000000000000000008152600481018290526001600160a01b03831690636b5bc99490602401600060405180830381600087803b158015612d6557600080fd5b505af1158015612d79573d6000803e3d6000fd5b50505050612c316001600055565b612d8f6135ab565b6001600160a01b038116612de55760405162461bcd60e51b815260206004820152601060248201527f626f72726f772d726174652d69732d30000000000000000000000000000000006044820152606401610491565b600354604080516001600160a01b03928316815291831660208301527f853cd4966a79d315d37b55e894f983b1b88af529ebcd5cedd9af2ec85f76e352910160405180910390a1600380546001600160a01b0319166001600160a01b0392909216919091179055565b612e566136c2565b6001600160a01b0380851660009081526014602052604090206001015416612eb25760405162461bcd60e51b815260206004820152600f60248201526e1d985d5b1d0b5b9bdd0b599bdd5b99608a1b6044820152606401610491565b6001600160a01b038116612ef25760405162461bcd60e51b81526020600482015260076024820152660746f2d69732d360cc1b6044820152606401610491565b612efc84846110ee565b612f485760405162461bcd60e51b815260206004820152600e60248201527f6e6f742d72656465656d61626c650000000000000000000000000000000000006044820152606401610491565b6040517f1e9a69500000000000000000000000000000000000000000000000000000000081526001600160a01b038481166004830152602482018490526000918291871690631e9a69509060440160408051808303816000875af1158015612fb4573d6000803e3d6000fd5b505050506040513d601f19601f82011682018060405250810190612fd891906147c8565b915091508160176000828254612fee91906145b5565b90915550506001600160a01b0385166000908152601660205260408120805486929061301b9084906145b5565b9091555061306290503330613030848661477c565b6001600160a01b037f000000000000000000000000000000000000000000000000000000000000000016929190613611565b604051630852cd8d60e31b8152600481018390527f00000000000000000000000000000000000000000000000000000000000000006001600160a01b0316906342966c6890602401600060405180830381600087803b1580156130c457600080fd5b505af11580156130d8573d6000803e3d6000fd5b505060085460405163a9059cbb60e01b81526001600160a01b039182166004820152602481018590527f0000000000000000000000000000000000000000000000000000000000000000909116925063a9059cbb91506044016020604051808303816000875af1158015613150573d6000803e3d6000fd5b505050506040513d601f19601f8201168201806040525081019061317491906145e1565b506131896001600160a01b0386168486613956565b50506131956001600055565b50505050565b6131a36135ab565b6001600160a01b03811661321f5760405162461bcd60e51b815260206004820152602660248201527f4f776e61626c653a206e6577206f776e657220697320746865207a65726f206160448201527f64647265737300000000000000000000000000000000000000000000000000006064820152608401610491565b6118d6816138fa565b6132306135ab565b6001600160a01b0381166132865760405162461bcd60e51b815260206004820152601760248201527f6c69717569646174696f6e2d726f757465722d69732d300000000000000000006044820152606401610491565b601080546001600160a01b0319166001600160a01b0383169081179091556040517fdf69295b476b36b3b7c7c84e1673f901b426d42b283a85fce98bb99ba0323caf90600090a250565b600061145d8261350d565b81336001600160a01b0316816001600160a01b0316631f52692b6040518163ffffffff1660e01b8152600401602060405180830381865afa158015613324573d6000803e3d6000fd5b505050506040513d601f19601f820116820180604052508101906133489190614582565b6001600160a01b0316146133915760405162461bcd60e51b815260206004820152601060248201526f37b7363c96bb30bab63a16b7bbb732b960811b6044820152606401610491565b336001600160a01b0383166133e85760405162461bcd60e51b815260206004820152600e60248201527f6e65772d6f776e65722d69732d300000000000000000000000000000000000006044820152606401610491565b6001600160a01b03808516600090815260146020526040902060010154166134445760405162461bcd60e51b815260206004820152600f60248201526e1d985d5b1d0b5b9bdd0b599bdd5b99608a1b6044820152606401610491565b826001600160a01b0316816001600160a01b0316856001600160a01b03167fff056cfc1a0ac5c7b42c2095ad4902b58b2896a2cf3c3f782c7d0087430af37360405160405180910390a46040517fe071c0ca0000000000000000000000000000000000000000000000000000000081526001600160a01b03848116600483015285169063e071c0ca90602401600060405180830381600087803b1580156134ea57600080fd5b505af11580156134fe573d6000803e3d6000fd5b50505050613195818486613986565b6002546040517f9878cbb30000000000000000000000000000000000000000000000000000000081526001600160a01b038381166004830152600092169082908290639878cbb390602401602060405180830381865afa158015613575573d6000803e3d6000fd5b505050506040513d601f19601f820116820180604052508101906135999190614582565b6001600160a01b031614159392505050565b6001546001600160a01b031633146124755760405162461bcd60e51b815260206004820181905260248201527f4f776e61626c653a2063616c6c6572206973206e6f7420746865206f776e65726044820152606401610491565b60006114ce83836139cb565b6040516001600160a01b03808516602483015283166044820152606481018290526131959085907f23b872dd00000000000000000000000000000000000000000000000000000000906084015b60408051601f198184030181529190526020810180517bffffffffffffffffffffffffffffffffffffffffffffffffffffffff167fffffffff00000000000000000000000000000000000000000000000000000000909316929092179091526139f5565b6002600054036137145760405162461bcd60e51b815260206004820152601f60248201527f5265656e7472616e637947756172643a207265656e7472616e742063616c6c006044820152606401610491565b6002600055565b613726601182613add565b6137725760405162461bcd60e51b815260206004820152601a60248201527f7661756c742d636f756c642d6e6f742d62652d72656d6f7665640000000000006044820152606401610491565b6001600160a01b03821660009081526015602052604090206137949082613ccc565b505050565b6137a7601182600080613ce1565b6137f35760405162461bcd60e51b815260206004820152601860248201527f7661756c742d636f756c642d6e6f742d62652d616464656400000000000000006044820152606401610491565b6001600160a01b0382166000908152601560205260409020613794908261402a565b600a5460175411156138695760405162461bcd60e51b815260206004820152601460248201527f646562742d6365696c696e672d726561636865640000000000000000000000006044820152606401610491565b600c54600d54613879919061477c565b42111561388e57600e81905542600d556138a6565b80600e60008282546138a0919061477c565b90915550505b600b54600e5411156118d65760405162461bcd60e51b815260206004820152601a60248201527f646562742d77696e646f772d616d6f756e742d726561636865640000000000006044820152606401610491565b600180546001600160a01b038381166001600160a01b0319831681179093556040519116919082907f8be0079c531659141344cd1fd0a4f28419497f9722a3daafe3b4186f6b6457e090600090a35050565b600061145d825490565b6040516001600160a01b03831660248201526044810182905261379490849063a9059cbb60e01b9060640161365e565b6001600160a01b03831660009081526015602052604090206139a89082613ccc565b506001600160a01b0382166000908152601560205260409020613195908261402a565b60008260000182815481106139e2576139e26146b5565b9060005260206000200154905092915050565b6000613a4a826040518060400160405280602081526020017f5361666545524332303a206c6f772d6c6576656c2063616c6c206661696c6564815250856001600160a01b031661403f9092919063ffffffff16565b9050805160001480613a6b575080806020019051810190613a6b91906145e1565b6137945760405162461bcd60e51b815260206004820152602a60248201527f5361666545524332303a204552433230206f7065726174696f6e20646964206e60448201527f6f742073756363656564000000000000000000000000000000000000000000006064820152608401610491565b6001600160a01b038082166000908152600384016020908152604080832081518083019092528054851682526001015490931690830181905290919015613cc25783546001600160a01b038481169116148015613b49575060018401546001600160a01b038481169116145b15613b6e5783546001600160a01b031990811685556001850180549091169055613c6e565b60018401546001600160a01b0390811690841603613bcc576020808201516001600160a01b0316600081815260038701909252604090912080546001600160a01b031990811683179091556001860180549091169091179055613c6e565b83546001600160a01b0390811690841603613c2057805184546001600160a01b039091166001600160a01b031991821681178655600081815260038701602052604090206001018054909216179055613c6e565b60208082015182516001600160a01b0391821660008181526003890190945260408085208054949093166001600160a01b031994851681179093559184529220600101805490911690911790555b6001600160a01b0383166000908152600385016020526040902080546001600160a01b031990811682556001918201805490911690556002850154613cb391906145b5565b6002850155506001905061145d565b5060009392505050565b60006114ce836001600160a01b03841661404e565b60006001600160a01b0383161580613d1757506001600160a01b0383811660009081526003870160205260409020600101541615155b613d635760405162461bcd60e51b815260206004820152601f60248201527f3739643364205f726566206e6569746865722076616c6964206e6f72203078006044820152606401610491565b6001600160a01b0380851660009081526003870160205260409020805490911661401c5785546001600160a01b0316613dd65780546001600160a01b0386166001600160a01b03199182168117835560018084018054841683179055880180548316821790558754909116178655613ffd565b828015613e0357506001600160a01b0384161580613e03575060018601546001600160a01b038581169116145b15613e6157600180870180546001600160a01b03908116600081815260038b01602052604090208054928a166001600160a01b0319938416811790915585548316811786559385018054831690911790558154169091179055613ffd565b82158015613e8c57506001600160a01b0384161580613e8c575085546001600160a01b038581169116145b15613ee85785546001600160a01b0390811660008181526003890160205260409020600190810180546001600160a01b0319908116948a1694851790915584548116909217845583018054821683179055875416178655613ffd565b6001600160a01b038085166000908152600388016020908152604091829020825180840190935280548416835260010154909216918101919091528315613f9057805182546001600160a01b039182166001600160a01b0319918216178455600180850180548985169084168117909155600090815260038b01602052604080822080548c871690861681179091558651909516825290200180549091169091179055613ffb565b81546001600160a01b038087166001600160a01b031992831681178555602080850180516001808901805492871692881692909217909155600093845260038d01909252604080842090920180548c8616908716811790915590519093168252902080549092161790555b505b600286015461400d90600161477c565b60028701555060019050614022565b60009150505b949350505050565b60006114ce836001600160a01b038416614141565b60606140228484600085614190565b600081815260018301602052604081205480156141375760006140726001836145b5565b8554909150600090614086906001906145b5565b90508181146140eb5760008660000182815481106140a6576140a66146b5565b90600052602060002001549050808760000184815481106140c9576140c96146b5565b6000918252602080832090910192909255918252600188019052604090208390555b85548690806140fc576140fc6147ec565b60019003818190600052602060002001600090559055856001016000868152602001908152602001600020600090556001935050505061145d565b600091505061145d565b60008181526001830160205260408120546141885750815460018181018455600084815260208082209093018490558454848252828601909352604090209190915561145d565b50600061145d565b6060824710156142085760405162461bcd60e51b815260206004820152602660248201527f416464726573733a20696e73756666696369656e742062616c616e636520666f60448201527f722063616c6c00000000000000000000000000000000000000000000000000006064820152608401610491565b600080866001600160a01b031685876040516142249190614802565b60006040518083038185875af1925050503d8060008114614261576040519150601f19603f3d011682016040523d82523d6000602084013e614266565b606091505b509150915061427787838387614282565b979650505050505050565b606083156142f15782516000036142ea576001600160a01b0385163b6142ea5760405162461bcd60e51b815260206004820152601d60248201527f416464726573733a2063616c6c20746f206e6f6e2d636f6e74726163740000006044820152606401610491565b5081614022565b61402283838151156143065781518083602001fd5b8060405162461bcd60e51b81526004016104919190614769565b6001600160a01b03811681146118d657600080fd5b60008060006060848603121561434a57600080fd5b833561435581614320565b925060208401359150604084013561436c81614320565b809150509250925092565b60006020828403121561438957600080fd5b81356114ce81614320565b600080604083850312156143a757600080fd5b82356143b281614320565b915060208301356143c281614320565b809150509250929050565b6000602082840312156143df57600080fd5b5035919050565b600080604083850312156143f957600080fd5b823561440481614320565b946020939093013593505050565b634e487b7160e01b600052604160045260246000fd5b604051601f8201601f1916810167ffffffffffffffff8111828210171561445157614451614412565b604052919050565b6000602080838503121561446c57600080fd5b823567ffffffffffffffff8082111561448457600080fd5b818501915085601f83011261449857600080fd5b8135818111156144aa576144aa614412565b6144bc601f8201601f19168501614428565b915080825286848285010111156144d257600080fd5b8084840185840137600090820190930192909252509392505050565b60008060006060848603121561450357600080fd5b833561450e81614320565b9250602084013561451e81614320565b929592945050506040919091013590565b6000806000806080858703121561454557600080fd5b843561455081614320565b9350602085013561456081614320565b925060408501359150606085013561457781614320565b939692955090935050565b60006020828403121561459457600080fd5b81516114ce81614320565b634e487b7160e01b600052601160045260246000fd5b8181038181111561145d5761145d61459f565b6000602082840312156145da57600080fd5b5051919050565b6000602082840312156145f357600080fd5b815180151581146114ce57600080fd5b6000602080838503121561461657600080fd5b825167ffffffffffffffff8082111561462e57600080fd5b818501915085601f83011261464257600080fd5b81518181111561465457614654614412565b8060051b9150614665848301614428565b818152918301840191848101908884111561467f57600080fd5b938501935b838510156146a9578451925061469983614320565b8282529385019390850190614684565b98975050505050505050565b634e487b7160e01b600052603260045260246000fd5b6000600182016146dd576146dd61459f565b5060010190565b60005b838110156146ff5781810151838201526020016146e7565b50506000910152565b600081518084526147208160208601602086016146e4565b601f01601f19169290920160200192915050565b60006001600160a01b038086168352808516602084015250606060408301526147606060830184614708565b95945050505050565b6020815260006114ce6020830184614708565b8082018082111561145d5761145d61459f565b808202811582820484141761145d5761145d61459f565b6000826147c357634e487b7160e01b600052601260045260246000fd5b500490565b600080604083850312156147db57600080fd5b505080516020909101519092909150565b634e487b7160e01b600052603160045260246000fd5b600082516148148184602087016146e4565b919091019291505056fea26469706673582212201131ad7c4198c2e837b3a46949c75212f16ac85fad33b44c0caecff85e61897d64736f6c63430008130033",
  "devdoc": {
    "kind": "dev",
    "methods": {
      "containsVault(address)": {
        "details": "returns and checks if such vault exists for this token"
      },
      "firstVault()": {
        "details": "returns the first vault by minimal collaterization ratio"
      },
      "lastVault()": {
        "details": "returns the last vault by maximum collaterization ratio"
      },
      "nextVault(address)": {
        "details": "returns the next vault by collaterization ratio"
      },
      "owner()": {
        "details": "Returns the address of the current owner."
      },
      "prevVault(address)": {
        "details": "returns the previous vault by collaterization ratio"
      },
      "renounceOwnership()": {
        "details": "Leaves the contract without owner. It will not be possible to call `onlyOwner` functions. Can only be called by the current owner. NOTE: Renouncing ownership will leave the contract without an owner, thereby disabling any functionality that is only available to the owner."
      },
      "transferOwnership(address)": {
        "details": "Transfers ownership of the contract to a new account (`newOwner`). Can only be called by the current owner."
      },
      "vaultCount()": {
        "details": "returns the number of vaults for specific token"
      }
    },
    "version": 1
  },
  "userdoc": {
    "kind": "user",
    "methods": {
      "isReedemable(address,address)": {
        "notice": "Collateral with higher MCR can be redeemed first"
      }
    },
    "version": 1
  },
  "storageLayout": {
    "storage": [
      {
        "astId": 229,
        "contract": "contracts/VaultFactory.sol:VaultFactory",
        "label": "_status",
        "offset": 0,
        "slot": "0",
        "type": "t_uint256"
      },
      {
        "astId": 110,
        "contract": "contracts/VaultFactory.sol:VaultFactory",
        "label": "_owner",
        "offset": 0,
        "slot": "1",
        "type": "t_address"
      },
      {
        "astId": 10411,
        "contract": "contracts/VaultFactory.sol:VaultFactory",
        "label": "priceFeed",
        "offset": 0,
        "slot": "2",
        "type": "t_address"
      },
      {
        "astId": 10413,
        "contract": "contracts/VaultFactory.sol:VaultFactory",
        "label": "borrowRate",
        "offset": 0,
        "slot": "3",
        "type": "t_address"
      },
      {
        "astId": 10416,
        "contract": "contracts/VaultFactory.sol:VaultFactory",
        "label": "MAX_TOKENS_PER_VAULT",
        "offset": 0,
        "slot": "4",
        "type": "t_uint256"
      },
      {
        "astId": 10419,
        "contract": "contracts/VaultFactory.sol:VaultFactory",
        "label": "redemptionRate",
        "offset": 0,
        "slot": "5",
        "type": "t_uint256"
      },
      {
        "astId": 10422,
        "contract": "contracts/VaultFactory.sol:VaultFactory",
        "label": "redemptionHealthFactorLimit",
        "offset": 0,
        "slot": "6",
        "type": "t_uint256"
      },
      {
        "astId": 10424,
        "contract": "contracts/VaultFactory.sol:VaultFactory",
        "label": "borrowFeeRecipient",
        "offset": 0,
        "slot": "7",
        "type": "t_address"
      },
      {
        "astId": 10426,
        "contract": "contracts/VaultFactory.sol:VaultFactory",
        "label": "redemptionFeeRecipient",
        "offset": 0,
        "slot": "8",
        "type": "t_address"
      },
      {
        "astId": 10430,
        "contract": "contracts/VaultFactory.sol:VaultFactory",
        "label": "collateralCap",
        "offset": 0,
        "slot": "9",
        "type": "t_mapping(t_address,t_uint256)"
      },
      {
        "astId": 10437,
        "contract": "contracts/VaultFactory.sol:VaultFactory",
        "label": "debtCeiling",
        "offset": 0,
        "slot": "10",
        "type": "t_uint256"
      },
      {
        "astId": 10440,
        "contract": "contracts/VaultFactory.sol:VaultFactory",
        "label": "maxDebtPerWindow",
        "offset": 0,
        "slot": "11",
        "type": "t_uint256"
      },
      {
        "astId": 10443,
        "contract": "contracts/VaultFactory.sol:VaultFactory",
        "label": "debtWindowSize",
        "offset": 0,
        "slot": "12",
        "type": "t_uint256"
      },
      {
        "astId": 10445,
        "contract": "contracts/VaultFactory.sol:VaultFactory",
        "label": "lastDebtWindow",
        "offset": 0,
        "slot": "13",
        "type": "t_uint256"
      },
      {
        "astId": 10447,
        "contract": "contracts/VaultFactory.sol:VaultFactory",
        "label": "debtWindowAmount",
        "offset": 0,
        "slot": "14",
        "type": "t_uint256"
      },
      {
        "astId": 10449,
        "contract": "contracts/VaultFactory.sol:VaultFactory",
        "label": "vaultDeployer",
        "offset": 0,
        "slot": "15",
        "type": "t_address"
      },
      {
        "astId": 10451,
        "contract": "contracts/VaultFactory.sol:VaultFactory",
        "label": "liquidationRouter",
        "offset": 0,
        "slot": "16",
        "type": "t_address"
      },
      {
        "astId": 11222,
        "contract": "contracts/VaultFactory.sol:VaultFactory",
        "label": "_vaults",
        "offset": 0,
        "slot": "17",
        "type": "t_struct(List)13629_storage"
      },
      {
        "astId": 11227,
        "contract": "contracts/VaultFactory.sol:VaultFactory",
        "label": "_vaultsByOwner",
        "offset": 0,
        "slot": "21",
        "type": "t_mapping(t_address,t_struct(AddressSet)2063_storage)"
      },
      {
        "astId": 9297,
        "contract": "contracts/VaultFactory.sol:VaultFactory",
        "label": "collateral",
        "offset": 0,
        "slot": "22",
        "type": "t_mapping(t_address,t_uint256)"
      },
      {
        "astId": 9299,
        "contract": "contracts/VaultFactory.sol:VaultFactory",
        "label": "totalDebt",
        "offset": 0,
        "slot": "23",
        "type": "t_uint256"
      }
    ],
    "types": {
      "t_address": {
        "encoding": "inplace",
        "label": "address",
        "numberOfBytes": "20"
      },
      "t_array(t_bytes32)dyn_storage": {
        "base": "t_bytes32",
        "encoding": "dynamic_array",
        "label": "bytes32[]",
        "numberOfBytes": "32"
      },
      "t_bytes32": {
        "encoding": "inplace",
        "label": "bytes32",
        "numberOfBytes": "32"
      },
      "t_mapping(t_address,t_struct(AddressSet)2063_storage)": {
        "encoding": "mapping",
        "key": "t_address",
        "label": "mapping(address => struct EnumerableSet.AddressSet)",
        "numberOfBytes": "32",
        "value": "t_struct(AddressSet)2063_storage"
      },
      "t_mapping(t_address,t_struct(EntryLink)13617_storage)": {
        "encoding": "mapping",
        "key": "t_address",
        "label": "mapping(address => struct LinkedAddressList.EntryLink)",
        "numberOfBytes": "32",
        "value": "t_struct(EntryLink)13617_storage"
      },
      "t_mapping(t_address,t_uint256)": {
        "encoding": "mapping",
        "key": "t_address",
        "label": "mapping(address => uint256)",
        "numberOfBytes": "32",
        "value": "t_uint256"
      },
      "t_mapping(t_bytes32,t_uint256)": {
        "encoding": "mapping",
        "key": "t_bytes32",
        "label": "mapping(bytes32 => uint256)",
        "numberOfBytes": "32",
        "value": "t_uint256"
      },
      "t_struct(AddressSet)2063_storage": {
        "encoding": "inplace",
        "label": "struct EnumerableSet.AddressSet",
        "members": [
          {
            "astId": 2062,
            "contract": "contracts/VaultFactory.sol:VaultFactory",
            "label": "_inner",
            "offset": 0,
            "slot": "0",
            "type": "t_struct(Set)1748_storage"
          }
        ],
        "numberOfBytes": "64"
      },
      "t_struct(EntryLink)13617_storage": {
        "encoding": "inplace",
        "label": "struct LinkedAddressList.EntryLink",
        "members": [
          {
            "astId": 13614,
            "contract": "contracts/VaultFactory.sol:VaultFactory",
            "label": "prev",
            "offset": 0,
            "slot": "0",
            "type": "t_address"
          },
          {
            "astId": 13616,
            "contract": "contracts/VaultFactory.sol:VaultFactory",
            "label": "next",
            "offset": 0,
            "slot": "1",
            "type": "t_address"
          }
        ],
        "numberOfBytes": "64"
      },
      "t_struct(List)13629_storage": {
        "encoding": "inplace",
        "label": "struct LinkedAddressList.List",
        "members": [
          {
            "astId": 13619,
            "contract": "contracts/VaultFactory.sol:VaultFactory",
            "label": "_last",
            "offset": 0,
            "slot": "0",
            "type": "t_address"
          },
          {
            "astId": 13621,
            "contract": "contracts/VaultFactory.sol:VaultFactory",
            "label": "_first",
            "offset": 0,
            "slot": "1",
            "type": "t_address"
          },
          {
            "astId": 13623,
            "contract": "contracts/VaultFactory.sol:VaultFactory",
            "label": "_size",
            "offset": 0,
            "slot": "2",
            "type": "t_uint256"
          },
          {
            "astId": 13628,
            "contract": "contracts/VaultFactory.sol:VaultFactory",
            "label": "_values",
            "offset": 0,
            "slot": "3",
            "type": "t_mapping(t_address,t_struct(EntryLink)13617_storage)"
          }
        ],
        "numberOfBytes": "128"
      },
      "t_struct(Set)1748_storage": {
        "encoding": "inplace",
        "label": "struct EnumerableSet.Set",
        "members": [
          {
            "astId": 1743,
            "contract": "contracts/VaultFactory.sol:VaultFactory",
            "label": "_values",
            "offset": 0,
            "slot": "0",
            "type": "t_array(t_bytes32)dyn_storage"
          },
          {
            "astId": 1747,
            "contract": "contracts/VaultFactory.sol:VaultFactory",
            "label": "_indexes",
            "offset": 0,
            "slot": "1",
            "type": "t_mapping(t_bytes32,t_uint256)"
          }
        ],
        "numberOfBytes": "64"
      },
      "t_uint256": {
        "encoding": "inplace",
        "label": "uint256",
        "numberOfBytes": "32"
      }
    }
  }
}