{
  "address": "0xb2FCfa5e61BF071fBb4f90ff5eBe40541202521d",
  "abi": [
    {
      "inputs": [
        {
          "internalType": "address",
          "name": "_factory",
          "type": "address"
        },
        {
          "internalType": "address",
          "name": "_vaultOwner",
          "type": "address"
        },
        {
          "internalType": "string",
          "name": "_name",
          "type": "string"
        }
      ],
      "name": "deployVault",
      "outputs": [
        {
          "internalType": "address",
          "name": "",
          "type": "address"
        }
      ],
      "stateMutability": "nonpayable",
      "type": "function"
    }
  ],
  "transactionHash": "0xa49cad6aecb0e447110a53759e574cd415b44ae7d5113d264e435435235f6f4c",
  "args": [],
  "numDeployments": 1,
  "solcInputHash": "483608a4d45fe73ca91702bd1cef8c9f",
  "bytecode": "0x608060405234801561001057600080fd5b50613773806100206000396000f3fe608060405234801561001057600080fd5b506004361061002b5760003560e01c80631233d5f414610030575b600080fd5b61004361003e366004610115565b61006c565b60405173ffffffffffffffffffffffffffffffffffffffff909116815260200160405180910390f35b60008084848460405161007e906100b0565b61008a939291906101e7565b604051809103906000f0801580156100a6573d6000803e3d6000fd5b5095945050505050565b6134de8061026083390190565b803573ffffffffffffffffffffffffffffffffffffffff811681146100e157600080fd5b919050565b7f4e487b7100000000000000000000000000000000000000000000000000000000600052604160045260246000fd5b60008060006060848603121561012a57600080fd5b610133846100bd565b9250610141602085016100bd565b9150604084013567ffffffffffffffff8082111561015e57600080fd5b818601915086601f83011261017257600080fd5b813581811115610184576101846100e6565b604051601f8201601f19908116603f011681019083821181831017156101ac576101ac6100e6565b816040528281528960208487010111156101c557600080fd5b8260208601602083013760006020848301015280955050505050509250925092565b600073ffffffffffffffffffffffffffffffffffffffff8086168352602081861681850152606060408501528451915081606085015260005b8281101561023c57858101820151858201608001528101610220565b50506000608082850101526080601f19601f83011684010191505094935050505056fe60c06040523480156200001157600080fd5b50604051620034de380380620034de8339810160408190526200003491620001ee565b6001600160a01b038216620000835760405162461bcd60e51b815260206004820152601060248201526f07661756c742d6f776e65722d69732d360841b60448201526064015b60405180910390fd5b6000815111620000c65760405162461bcd60e51b815260206004820152600d60248201526c6e616d652d69732d656d70747960981b60448201526064016200007a565b6001600160a01b0383166200010d5760405162461bcd60e51b815260206004820152600c60248201526b0666163746f72792d69732d360a41b60448201526064016200007a565b6001600160a01b0383811660a0819052600080546001600160a01b03191692851692909217909155604080516322be3de160e01b815290516322be3de1916004808201926020929091908290030181865afa15801562000171573d6000803e3d6000fd5b505050506040513d601f19601f82011682018060405250810190620001979190620002e8565b6001600160a01b03166080526001620001b182826200039c565b5050505062000468565b80516001600160a01b0381168114620001d357600080fd5b919050565b634e487b7160e01b600052604160045260246000fd5b6000806000606084860312156200020457600080fd5b6200020f84620001bb565b9250602062000220818601620001bb565b60408601519093506001600160401b03808211156200023e57600080fd5b818701915087601f8301126200025357600080fd5b815181811115620002685762000268620001d8565b604051601f8201601f19908116603f01168101908382118183101715620002935762000293620001d8565b816040528281528a86848701011115620002ac57600080fd5b600093505b82841015620002d05784840186015181850187015292850192620002b1565b60008684830101528096505050505050509250925092565b600060208284031215620002fb57600080fd5b6200030682620001bb565b9392505050565b600181811c908216806200032257607f821691505b6020821081036200034357634e487b7160e01b600052602260045260246000fd5b50919050565b601f8211156200039757600081815260208120601f850160051c81016020861015620003725750805b601f850160051c820191505b8181101562000393578281556001016200037e565b5050505b505050565b81516001600160401b03811115620003b857620003b8620001d8565b620003d081620003c984546200030d565b8462000349565b602080601f831160018114620004085760008415620003ef5750858301515b600019600386901b1c1916600185901b17855562000393565b600085815260208120601f198616915b82811015620004395788860151825594840194600190910190840162000418565b5085821015620004585787850151600019600388901b60f8161c191681555b5050505050600190811b01905550565b60805160a051612fd962000505600039600081816104ec0152818161066c0152818161082c01528181610a7e01528181610b5501528181610ccc01528181610d6301528181610f6f015281816110800152818161138501528181611488015281816115820152818161173d0152818161181c01528181611d5d01528181611f02015281816120b30152612262015260006103530152612fd96000f3fe608060405234801561001057600080fd5b50600436106102925760003560e01c80636d75b9ee11610160578063ad09014d116100d8578063c47f00271161008c578063e071c0ca11610071578063e071c0ca14610534578063e99a6ac714610547578063ffa1ad741461054f57600080fd5b8063c47f00271461050e578063c5ebeaec1461052157600080fd5b8063b8911267116100bd578063b8911267146104c1578063c3f7e0b7146104d4578063c45a0155146104e757600080fd5b8063ad09014d146104b9578063b85a8b20146103dd57600080fd5b8063a20baee61161012f578063abdc554111610114578063abdc554114610496578063ac8a584a1461049e578063aceb2d04146104b157600080fd5b8063a20baee614610454578063a5fdc5de1461047657600080fd5b80636d75b9ee1461042e5780638a1bcd7714610441578063923c1eec146104545780639870d7fe1461046357600080fd5b806328a070251161020e5780634ba2ad45116101c25780634bfc894d116101a75780634bfc894d146103e55780636b5bc994146104085780636d70f7ae1461041b57600080fd5b80634ba2ad45146103d55780634bb97042146103dd57600080fd5b8063371fd8e6116101f3578063371fd8e6146103985780633879b0c5146103ad5780634113e5ca146103c057600080fd5b806328a070251461038857806329ad2fb21461039057600080fd5b80631e9a6950116102655780631f6656461161024a5780631f6656461461033b57806322be3de11461034e578063261423351461037557600080fd5b80631e9a6950146102e85780631f52692b1461031057600080fd5b806306fdde0314610297578063098d3228146102b557806309d3655d146102cc5780630dca59c1146102df575b600080fd5b61029f61058b565b6040516102ac9190612997565b60405180910390f35b6102be60001981565b6040519081526020016102ac565b6102be6102da3660046129db565b610619565b6102be60075481565b6102fb6102f6366004612a20565b610666565b604080519283526020830191909152016102ac565b600054610323906001600160a01b031681565b6040516001600160a01b0390911681526020016102ac565b610323610349366004612a4c565b610a5f565b6103237f000000000000000000000000000000000000000000000000000000000000000081565b610323610383366004612a4c565b610a6c565b6102be610a79565b6102be610f5b565b6103ab6103a6366004612a4c565b610f6c565b005b6103ab6103bb366004612a65565b61107d565b6103c8611294565b6040516102ac9190612aa7565b6102be611347565b6102be611353565b6103f86103f3366004612af4565b611375565b60405190151581526020016102ac565b6103ab610416366004612a4c565b611382565b6103f8610429366004612af4565b611478565b6103ab61043c366004612a20565b611485565b6102fb61044f366004612b11565b6116e0565b6102be670de0b6b3a764000081565b6103ab610471366004612af4565b611ba4565b6102be610484366004612af4565b60066020526000908152604090205481565b6102be611c4f565b6103ab6104ac366004612af4565b611c64565b6102be611d0b565b6102be611d2c565b6102fb6104cf366004612a20565b611d56565b6102be6104e2366004612b64565b611fae565b6103237f000000000000000000000000000000000000000000000000000000000000000081565b6103ab61051c366004612b97565b611ffd565b6103ab61052f366004612a4c565b6120b0565b6103ab610542366004612af4565b61225f565b6102fb612300565b61029f6040518060400160405280600581526020017f312e312e3000000000000000000000000000000000000000000000000000000081525081565b6001805461059890612c48565b80601f01602080910402602001604051908101604052809291908181526020018280546105c490612c48565b80156106115780601f106105e657610100808354040283529160200191610611565b820191906000526020600020905b8154815290600101906020018083116105f457829003601f168201915b505050505081565b60008260000361062c5750600019610660565b600061063c6000806000866116e0565b50905083610652670de0b6b3a764000083612c92565b61065c9190612ca9565b9150505b92915050565b600080337f00000000000000000000000000000000000000000000000000000000000000006001600160a01b0316146106d55760405162461bcd60e51b815260206004820152600c60248201526b6f6e6c792d666163746f727960a01b60448201526064015b60405180910390fd5b6001600160a01b03841661071d5760405162461bcd60e51b815260206004820152600f60248201526e0636f6c6c61746572616c2d69732d3608c1b60448201526064016106cc565b6000831161075b5760405162461bcd60e51b815260206004820152600b60248201526a0616d6f756e742d69732d360ac1b60448201526064016106cc565b61076660028561231a565b6107b25760405162461bcd60e51b815260206004820152601460248201527f636f6c6c61746572616c2d6e6f742d616464656400000000000000000000000060448201526064016106cc565b6001600160a01b03841660009081526006602052604090205483111561081a5760405162461bcd60e51b815260206004820152601560248201527f6e6f742d656e6f7567682d636f6c6c61746572616c000000000000000000000060448201526064016106cc565b60006108266001611fae565b905060007f00000000000000000000000000000000000000000000000000000000000000006001600160a01b031663c3971f656040518163ffffffff1660e01b8152600401602060405180830381865afa158015610888573d6000803e3d6000fd5b505050506040513d601f19601f820116820180604052508101906108ac9190612ccb565b90508082106109225760405162461bcd60e51b8152602060048201526024808201527f6865616c74682d666163746f722d61626f76652d726564656d7074696f6e2d6c60448201527f696d69740000000000000000000000000000000000000000000000000000000060648201526084016106cc565b6001600160a01b0386166000908152600660205260408120805487929061094a908490612ce4565b9091555061095a90508686611d56565b809450819550505083600760008282546109749190612ce4565b90915550506001600160a01b03861660009081526006602052604081205490036109a5576109a360028761233c565b505b6109b96001600160a01b0387163387612351565b6001600160a01b03861660008181526006602090815260409182902054825189815291820152908101869052606081018590527fe3c5362354987ae7844588482f3912d58e2cb3ffa7d04a1d3025c99fa996d5259060800160405180910390a26007546040805186815260208101929092527f0d4979b0859a1951f8ed7cbe3b1994e740552588f27ba02ca0f8f1ddcad16e0c910160405180910390a150509250929050565b60006106606002836123ff565b60006106606004836123ff565b6000337f00000000000000000000000000000000000000000000000000000000000000006001600160a01b031614610ae25760405162461bcd60e51b815260206004820152600c60248201526b6f6e6c792d666163746f727960a01b60448201526064016106cc565b670de0b6b3a7640000610af56001611fae565b10610b425760405162461bcd60e51b815260206004820152601a60248201527f6c69717569646174696f6e2d666163746f722d61626f76652d3100000000000060448201526064016106cc565b60006007549050600060078190555060007f00000000000000000000000000000000000000000000000000000000000000006001600160a01b031663679fda706040518163ffffffff1660e01b8152600401602060405180830381865afa158015610bb1573d6000803e3d6000fd5b505050506040513d601f19601f82011682018060405250810190610bd59190612cf7565b905060005b610be4600261240b565b811015610e87576000610bf86002836123ff565b6001600160a01b0381166000818152600660205260408082205490517f70a08231000000000000000000000000000000000000000000000000000000008152306004820152939450929091906370a0823190602401602060405180830381865afa158015610c6a573d6000803e3d6000fd5b505050506040513d601f19601f82011682018060405250810190610c8e9190612ccb565b905081811015610c9c578091505b600060066000856001600160a01b03166001600160a01b0316815260200190815260200160002081905550610d5e7f00000000000000000000000000000000000000000000000000000000000000006001600160a01b031663679fda706040518163ffffffff1660e01b8152600401602060405180830381865afa158015610d28573d6000803e3d6000fd5b505050506040513d601f19601f82011682018060405250810190610d4c9190612cf7565b6001600160a01b038516906000612415565b610df67f00000000000000000000000000000000000000000000000000000000000000006001600160a01b031663679fda706040518163ffffffff1660e01b8152600401602060405180830381865afa158015610dbf573d6000803e3d6000fd5b505050506040513d601f19601f82011682018060405250810190610de39190612cf7565b6001600160a01b03851690600019612415565b6040517fb7017b910000000000000000000000000000000000000000000000000000000081526001600160a01b0384811660048301526024820184905286169063b7017b9190604401600060405180830381600087803b158015610e5957600080fd5b505af1158015610e6d573d6000803e3d6000fd5b505050505050508080610e7f90612d14565b915050610bda565b506040517f2fb04272000000000000000000000000000000000000000000000000000000008152306004820152602481018390526001600160a01b03821690632fb0427290604401600060405180830381600087803b158015610ee957600080fd5b505af1158015610efd573d6000803e3d6000fd5b50505050806001600160a01b031663a0c03a366040518163ffffffff1660e01b8152600401600060405180830381600087803b158015610f3c57600080fd5b505af1158015610f50573d6000803e3d6000fd5b509395945050505050565b6000610f67600261240b565b905090565b337f00000000000000000000000000000000000000000000000000000000000000006001600160a01b031614610fd35760405162461bcd60e51b815260206004820152600c60248201526b6f6e6c792d666163746f727960a01b60448201526064016106cc565b6007548111156110255760405162461bcd60e51b815260206004820152601360248201527f616d6f756e742d657863656564732d646562740000000000000000000000000060448201526064016106cc565b80600760008282546110379190612ce4565b90915550506007546040805183815260208101929092527f0d4979b0859a1951f8ed7cbe3b1994e740552588f27ba02ca0f8f1ddcad16e0c91015b60405180910390a150565b337f00000000000000000000000000000000000000000000000000000000000000006001600160a01b0316146110e45760405162461bcd60e51b815260206004820152600c60248201526b6f6e6c792d666163746f727960a01b60448201526064016106cc565b6001600160a01b03831661112c5760405162461bcd60e51b815260206004820152600f60248201526e0636f6c6c61746572616c2d69732d3608c1b60448201526064016106cc565b6000821161116a5760405162461bcd60e51b815260206004820152600b60248201526a0616d6f756e742d69732d360ac1b60448201526064016106cc565b6001600160a01b03831660009081526006602052604081208054849290611192908490612ce4565b90915550506001600160a01b03831660009081526006602052604081205490036111c3576111c160028461233c565b505b60006111cf6000611fae565b9050670de0b6b3a76400008110156112295760405162461bcd60e51b815260206004820152601560248201527f6865616c74682d666163746f722d62656c6f772d31000000000000000000000060448201526064016106cc565b61123d6001600160a01b0385168385612351565b6001600160a01b038416600081815260066020908152604091829020548251878152918201527f47e1336b6fdb5f42c3a1d28b558fa98786d820c3705d726358dcc8e63a401eef910160405180910390a250505050565b606060006112a2600261240b565b67ffffffffffffffff8111156112ba576112ba612b81565b6040519080825280602002602001820160405280156112e3578160200160208202803683370190505b50905060005b6112f3600261240b565b811015611341576113056002826123ff565b82828151811061131757611317612d2d565b6001600160a01b03909216602092830291909101909101528061133981612d14565b9150506112e9565b50919050565b6000610f67600461240b565b6064611368670de0b6b3a76400006001612c92565b6113729190612ca9565b81565b600061066060028361231a565b337f00000000000000000000000000000000000000000000000000000000000000006001600160a01b0316146113e95760405162461bcd60e51b815260206004820152600c60248201526b6f6e6c792d666163746f727960a01b60448201526064016106cc565b600081116114275760405162461bcd60e51b815260206004820152600b60248201526a0616d6f756e742d69732d360ac1b60448201526064016106cc565b80600760008282546114399190612d43565b90915550506007546040805183815260208101929092527f28c388e35418553e43dc360d4b6b01207242898c8e48fb1a12d9073c0579be6c9101611072565b600061066060048361231a565b337f00000000000000000000000000000000000000000000000000000000000000006001600160a01b0316146114ec5760405162461bcd60e51b815260206004820152600c60248201526b6f6e6c792d666163746f727960a01b60448201526064016106cc565b6001600160a01b0382166115345760405162461bcd60e51b815260206004820152600f60248201526e0636f6c6c61746572616c2d69732d3608c1b60448201526064016106cc565b600081116115725760405162461bcd60e51b815260206004820152600b60248201526a0616d6f756e742d69732d360ac1b60448201526064016106cc565b61157d600283612563565b5060007f00000000000000000000000000000000000000000000000000000000000000006001600160a01b031663ffbfb8ad6040518163ffffffff1660e01b8152600401602060405180830381865afa1580156115de573d6000803e3d6000fd5b505050506040513d601f19601f820116820180604052508101906116029190612ccb565b90508061160f600261240b565b111561165d5760405162461bcd60e51b815260206004820152601260248201527f6d61782d746f6b656e732d72656163686564000000000000000000000000000060448201526064016106cc565b6001600160a01b03831660009081526006602052604081208054849290611685908490612d43565b90915550506001600160a01b038316600081815260066020908152604091829020548251868152918201527f11f8990ac38271f23dea447d5728e9914fca7cea2edda43af6c43c415f8bc30b910160405180910390a2505050565b6001600160a01b0384166000818152600660205260408120549091829190829015611818576040517ffa6bd2ee0000000000000000000000000000000000000000000000000000000081526001600160a01b0389811660048301527f0000000000000000000000000000000000000000000000000000000000000000169063fa6bd2ee90602401602060405180830381865afa158015611784573d6000803e3d6000fd5b505050506040513d601f19601f820116820180604052508101906117a89190612d56565b6117f45760405162461bcd60e51b815260206004820152601860248201527f636f6c6c61746572616c2d6e6f742d737570706f72746564000000000000000060448201526064016106cc565b851561180b576118048783612d43565b9150611818565b6118158783612ce4565b91505b60007f00000000000000000000000000000000000000000000000000000000000000006001600160a01b031663741bef1a6040518163ffffffff1660e01b8152600401602060405180830381865afa158015611878573d6000803e3d6000fd5b505050506040513d601f19601f8201168201806040525081019061189c9190612cf7565b905060005b6118ab600261240b565b811015611b755760006118bf6002836123ff565b905060008b6001600160a01b0316826001600160a01b0316146118fa576001600160a01b0382166000908152600660205260409020546118fc565b855b6040516384ba3f6960e01b81526001600160a01b0384811660048301529192506000918616906384ba3f6990602401602060405180830381865afa158015611948573d6000803e3d6000fd5b505050506040513d601f19601f8201168201806040525081019061196c9190612ccb565b905060008a6119fd576040517faa41911f0000000000000000000000000000000000000000000000000000000081526001600160a01b03858116600483015287169063aa41911f90602401602060405180830381865afa1580156119d4573d6000803e3d6000fd5b505050506040513d601f19601f820116820180604052508101906119f89190612ccb565b611a80565b6040517f75b785440000000000000000000000000000000000000000000000000000000081526001600160a01b0385811660048301528716906375b7854490602401602060405180830381865afa158015611a5c573d6000803e3d6000fd5b505050506040513d601f19601f82011682018060405250810190611a809190612ccb565b604051636a24d41960e11b81526001600160a01b03868116600483015291925060009188169063d449a83290602401602060405180830381865afa158015611acc573d6000803e3d6000fd5b505050506040513d601f19601f82011682018060405250810190611af09190612ccb565b611afb906012612ce4565b611b0690600a612e57565b611b109085612c92565b90506000670de0b6b3a7640000611b278584612c92565b611b319190612ca9565b905082611b46670de0b6b3a764000083612c92565b611b509190612ca9565b611b5a908a612d43565b98505050505050508080611b6d90612d14565b9150506118a1565b50816007548311611b87576000611b94565b600754611b949084612ce4565b9450945050505094509492505050565b6000546001600160a01b0316336001600160a01b031614611bfa5760405162461bcd60e51b815260206004820152601060248201526f37b7363c96bb30bab63a16b7bbb732b960811b60448201526064016106cc565b6001600160a01b038116611c405760405162461bcd60e51b815260206004820152600d60248201526c06f70657261746f722d69732d3609c1b60448201526064016106cc565b611c4b600482612563565b5050565b6064611368670de0b6b3a76400006005612c92565b6000546001600160a01b0316336001600160a01b031614611cba5760405162461bcd60e51b815260206004820152601060248201526f37b7363c96bb30bab63a16b7bbb732b960811b60448201526064016106cc565b6001600160a01b038116611d005760405162461bcd60e51b815260206004820152600d60248201526c06f70657261746f722d69732d3609c1b60448201526064016106cc565b611c4b60048261233c565b60026064611d22670de0b6b3a76400006001612c92565b6113689190612ca9565b6064611d41670de0b6b3a76400006001612c92565b611d4b9190612ca9565b61137290600a612c92565b60008060007f00000000000000000000000000000000000000000000000000000000000000006001600160a01b031663741bef1a6040518163ffffffff1660e01b8152600401602060405180830381865afa158015611db9573d6000803e3d6000fd5b505050506040513d601f19601f82011682018060405250810190611ddd9190612cf7565b6040516384ba3f6960e01b81526001600160a01b0387811660048301529192506000918316906384ba3f6990602401602060405180830381865afa158015611e29573d6000803e3d6000fd5b505050506040513d601f19601f82011682018060405250810190611e4d9190612ccb565b604051636a24d41960e11b81526001600160a01b03888116600483015291925060009184169063d449a83290602401602060405180830381865afa158015611e99573d6000803e3d6000fd5b505050506040513d601f19601f82011682018060405250810190611ebd9190612ccb565b611ec8906012612ce4565b611ed390600a612e57565b611edd9087612c92565b9050670de0b6b3a7640000611ef28383612c92565b611efc9190612ca9565b945060007f00000000000000000000000000000000000000000000000000000000000000006001600160a01b031663540385a36040518163ffffffff1660e01b8152600401602060405180830381865afa158015611f5e573d6000803e3d6000fd5b505050506040513d601f19601f82011682018060405250810190611f829190612ccb565b9050670de0b6b3a7640000611f978288612c92565b611fa19190612ca9565b9450505050509250929050565b6000600754600003611fc35750600019919050565b6000611fd36000806000866116e0565b50600754909150611fec670de0b6b3a764000083612c92565b611ff69190612ca9565b9392505050565b6000546001600160a01b0316336001600160a01b0316146120535760405162461bcd60e51b815260206004820152601060248201526f37b7363c96bb30bab63a16b7bbb732b960811b60448201526064016106cc565b60008151116120a45760405162461bcd60e51b815260206004820152600d60248201527f6e616d652d69732d656d7074790000000000000000000000000000000000000060448201526064016106cc565b6001611c4b8282612eb1565b337f00000000000000000000000000000000000000000000000000000000000000006001600160a01b0316146121175760405162461bcd60e51b815260206004820152600c60248201526b6f6e6c792d666163746f727960a01b60448201526064016106cc565b600081116121555760405162461bcd60e51b815260206004820152600b60248201526a0616d6f756e742d69732d360ac1b60448201526064016106cc565b600080612160612300565b91509150808311156121b45760405162461bcd60e51b815260206004820152601560248201527f6e6f742d656e6f7567682d626f72726f7761626c65000000000000000000000060448201526064016106cc565b82600760008282546121c69190612d43565b909155505060075482101561221d5760405162461bcd60e51b815260206004820152601660248201527f6d61782d626f72726f7761626c652d726561636865640000000000000000000060448201526064016106cc565b6007546040805185815260208101929092527f28c388e35418553e43dc360d4b6b01207242898c8e48fb1a12d9073c0579be6c910160405180910390a1505050565b337f00000000000000000000000000000000000000000000000000000000000000006001600160a01b0316146122c65760405162461bcd60e51b815260206004820152600c60248201526b6f6e6c792d666163746f727960a01b60448201526064016106cc565b600080547fffffffffffffffffffffffff0000000000000000000000000000000000000000166001600160a01b0392909216919091179055565b6000806123116000806000806116e0565b90939092509050565b6001600160a01b03811660009081526001830160205260408120541515611ff6565b6000611ff6836001600160a01b038416612578565b6040516001600160a01b0383166024820152604481018290526123fa9084907fa9059cbb00000000000000000000000000000000000000000000000000000000906064015b60408051601f198184030181529190526020810180517bffffffffffffffffffffffffffffffffffffffffffffffffffffffff167fffffffff000000000000000000000000000000000000000000000000000000009093169290921790915261266b565b505050565b6000611ff68383612753565b6000610660825490565b8015806124a857506040517fdd62ed3e0000000000000000000000000000000000000000000000000000000081523060048201526001600160a01b03838116602483015284169063dd62ed3e90604401602060405180830381865afa158015612482573d6000803e3d6000fd5b505050506040513d601f19601f820116820180604052508101906124a69190612ccb565b155b61251a5760405162461bcd60e51b815260206004820152603660248201527f5361666545524332303a20617070726f76652066726f6d206e6f6e2d7a65726f60448201527f20746f206e6f6e2d7a65726f20616c6c6f77616e63650000000000000000000060648201526084016106cc565b6040516001600160a01b0383166024820152604481018290526123fa9084907f095ea7b30000000000000000000000000000000000000000000000000000000090606401612396565b6000611ff6836001600160a01b03841661277d565b6000818152600183016020526040812054801561266157600061259c600183612ce4565b85549091506000906125b090600190612ce4565b90508181146126155760008660000182815481106125d0576125d0612d2d565b90600052602060002001549050808760000184815481106125f3576125f3612d2d565b6000918252602080832090910192909255918252600188019052604090208390555b855486908061262657612626612f71565b600190038181906000526020600020016000905590558560010160008681526020019081526020016000206000905560019350505050610660565b6000915050610660565b60006126c0826040518060400160405280602081526020017f5361666545524332303a206c6f772d6c6576656c2063616c6c206661696c6564815250856001600160a01b03166127cc9092919063ffffffff16565b90508051600014806126e15750808060200190518101906126e19190612d56565b6123fa5760405162461bcd60e51b815260206004820152602a60248201527f5361666545524332303a204552433230206f7065726174696f6e20646964206e60448201527f6f7420737563636565640000000000000000000000000000000000000000000060648201526084016106cc565b600082600001828154811061276a5761276a612d2d565b9060005260206000200154905092915050565b60008181526001830160205260408120546127c457508154600181810184556000848152602080822090930184905584548482528286019093526040902091909155610660565b506000610660565b60606127db84846000856127e3565b949350505050565b60608247101561285b5760405162461bcd60e51b815260206004820152602660248201527f416464726573733a20696e73756666696369656e742062616c616e636520666f60448201527f722063616c6c000000000000000000000000000000000000000000000000000060648201526084016106cc565b600080866001600160a01b031685876040516128779190612f87565b60006040518083038185875af1925050503d80600081146128b4576040519150601f19603f3d011682016040523d82523d6000602084013e6128b9565b606091505b50915091506128ca878383876128d5565b979650505050505050565b6060831561294457825160000361293d576001600160a01b0385163b61293d5760405162461bcd60e51b815260206004820152601d60248201527f416464726573733a2063616c6c20746f206e6f6e2d636f6e747261637400000060448201526064016106cc565b50816127db565b6127db83838151156129595781518083602001fd5b8060405162461bcd60e51b81526004016106cc9190612997565b60005b8381101561298e578181015183820152602001612976565b50506000910152565b60208152600082518060208401526129b6816040850160208701612973565b601f01601f19169190910160400192915050565b80151581146129d857600080fd5b50565b600080604083850312156129ee57600080fd5b823591506020830135612a00816129ca565b809150509250929050565b6001600160a01b03811681146129d857600080fd5b60008060408385031215612a3357600080fd5b8235612a3e81612a0b565b946020939093013593505050565b600060208284031215612a5e57600080fd5b5035919050565b600080600060608486031215612a7a57600080fd5b8335612a8581612a0b565b9250602084013591506040840135612a9c81612a0b565b809150509250925092565b6020808252825182820181905260009190848201906040850190845b81811015612ae85783516001600160a01b031683529284019291840191600101612ac3565b50909695505050505050565b600060208284031215612b0657600080fd5b8135611ff681612a0b565b60008060008060808587031215612b2757600080fd5b8435612b3281612a0b565b9350602085013592506040850135612b49816129ca565b91506060850135612b59816129ca565b939692955090935050565b600060208284031215612b7657600080fd5b8135611ff6816129ca565b634e487b7160e01b600052604160045260246000fd5b600060208284031215612ba957600080fd5b813567ffffffffffffffff80821115612bc157600080fd5b818401915084601f830112612bd557600080fd5b813581811115612be757612be7612b81565b604051601f8201601f19908116603f01168101908382118183101715612c0f57612c0f612b81565b81604052828152876020848701011115612c2857600080fd5b826020860160208301376000928101602001929092525095945050505050565b600181811c90821680612c5c57607f821691505b60208210810361134157634e487b7160e01b600052602260045260246000fd5b634e487b7160e01b600052601160045260246000fd5b808202811582820484141761066057610660612c7c565b600082612cc657634e487b7160e01b600052601260045260246000fd5b500490565b600060208284031215612cdd57600080fd5b5051919050565b8181038181111561066057610660612c7c565b600060208284031215612d0957600080fd5b8151611ff681612a0b565b600060018201612d2657612d26612c7c565b5060010190565b634e487b7160e01b600052603260045260246000fd5b8082018082111561066057610660612c7c565b600060208284031215612d6857600080fd5b8151611ff6816129ca565b600181815b80851115612dae578160001904821115612d9457612d94612c7c565b80851615612da157918102915b93841c9390800290612d78565b509250929050565b600082612dc557506001610660565b81612dd257506000610660565b8160018114612de85760028114612df257612e0e565b6001915050610660565b60ff841115612e0357612e03612c7c565b50506001821b610660565b5060208310610133831016604e8410600b8410161715612e31575081810a610660565b612e3b8383612d73565b8060001904821115612e4f57612e4f612c7c565b029392505050565b6000611ff68383612db6565b601f8211156123fa57600081815260208120601f850160051c81016020861015612e8a5750805b601f850160051c820191505b81811015612ea957828155600101612e96565b505050505050565b815167ffffffffffffffff811115612ecb57612ecb612b81565b612edf81612ed98454612c48565b84612e63565b602080601f831160018114612f145760008415612efc5750858301515b600019600386901b1c1916600185901b178555612ea9565b600085815260208120601f198616915b82811015612f4357888601518255948401946001909101908401612f24565b5085821015612f615787850151600019600388901b60f8161c191681555b5050505050600190811b01905550565b634e487b7160e01b600052603160045260246000fd5b60008251612f99818460208701612973565b919091019291505056fea2646970667358221220414e8ba8fa051079a6c3ed896a19f9516abaf115040240353f899d58b44e168e64736f6c63430008130033a2646970667358221220ccedd2d7076a7a05131b6baba4085942db1ba3b7e25f267d11749d3734a811cd64736f6c63430008130033",
  "devdoc": {
    "kind": "dev",
    "methods": {},
    "version": 1
  },
  "userdoc": {
    "kind": "user",
    "methods": {},
    "version": 1
  },
  "storageLayout": {
    "storage": [],
    "types": null
  }
}