{
  "address": "0x8e83CA66Ec901E16BdAf137aC9eD7553E4dD95D3",
  "abi": [
    {
      "inputs": [
        {
          "internalType": "address",
          "name": "_vaultFactory",
          "type": "address"
        }
      ],
      "stateMutability": "nonpayable",
      "type": "constructor"
    },
    {
      "anonymous": false,
      "inputs": [
        {
          "indexed": true,
          "internalType": "address",
          "name": "previousOwner",
          "type": "address"
        },
        {
          "indexed": true,
          "internalType": "address",
          "name": "newOwner",
          "type": "address"
        }
      ],
      "name": "OwnershipTransferred",
      "type": "event"
    },
    {
      "inputs": [
        {
          "internalType": "address",
          "name": "_collateralToken",
          "type": "address"
        },
        {
          "internalType": "uint256",
          "name": "_collateralAmount",
          "type": "uint256"
        },
        {
          "internalType": "uint256",
          "name": "_borrowAmount",
          "type": "uint256"
        }
      ],
      "name": "createVault",
      "outputs": [
        {
          "internalType": "address",
          "name": "_vault",
          "type": "address"
        }
      ],
      "stateMutability": "nonpayable",
      "type": "function"
    },
    {
      "inputs": [
        {
          "internalType": "uint256",
          "name": "_borrowAmount",
          "type": "uint256"
        }
      ],
      "name": "createVaultNative",
      "outputs": [
        {
          "internalType": "address",
          "name": "_vault",
          "type": "address"
        }
      ],
      "stateMutability": "payable",
      "type": "function"
    },
    {
      "inputs": [],
      "name": "owner",
      "outputs": [
        {
          "internalType": "address",
          "name": "",
          "type": "address"
        }
      ],
      "stateMutability": "view",
      "type": "function"
    },
    {
      "inputs": [],
      "name": "prefix",
      "outputs": [
        {
          "internalType": "string",
          "name": "",
          "type": "string"
        }
      ],
      "stateMutability": "view",
      "type": "function"
    },
    {
      "inputs": [],
      "name": "renounceOwnership",
      "outputs": [],
      "stateMutability": "nonpayable",
      "type": "function"
    },
    {
      "inputs": [
        {
          "internalType": "string",
          "name": "_prefix",
          "type": "string"
        }
      ],
      "name": "setPrefix",
      "outputs": [],
      "stateMutability": "nonpayable",
      "type": "function"
    },
    {
      "inputs": [
        {
          "internalType": "address",
          "name": "_vaultFactory",
          "type": "address"
        }
      ],
      "name": "setVaultFactory",
      "outputs": [],
      "stateMutability": "nonpayable",
      "type": "function"
    },
    {
      "inputs": [
        {
          "internalType": "address",
          "name": "newOwner",
          "type": "address"
        }
      ],
      "name": "transferOwnership",
      "outputs": [],
      "stateMutability": "nonpayable",
      "type": "function"
    },
    {
      "inputs": [],
      "name": "vaultFactory",
      "outputs": [
        {
          "internalType": "contract IVaultFactory",
          "name": "",
          "type": "address"
        }
      ],
      "stateMutability": "view",
      "type": "function"
    },
    {
      "stateMutability": "payable",
      "type": "receive"
    }
  ],
  "transactionHash": "0x7a8bf317f01cfdc1b682f0ef7f82cd89dcc5036a6cb39097c37554dfd2039b3a",
  "args": [
    "0x027A597aD044bDDb7a6B7Ef9eD2B641122801220"
  ],
  "numDeployments": 1,
  "solcInputHash": "3d7ac3cd8c655c7d05e6510673d0ef5d",
  "bytecode": "0x60c06040526007608090815266135e55985d5b1d60ca1b60a05260029062000028908262000251565b503480156200003657600080fd5b506040516200175f3803806200175f83398101604081905262000059916200031d565b620000643362000076565b6200006f81620000c6565b506200034f565b600080546001600160a01b038381166001600160a01b0319831681178455604051919092169283917f8be0079c531659141344cd1fd0a4f28419497f9722a3daafe3b4186f6b6457e09190a35050565b620000d06200014e565b6001600160a01b0381166200012c5760405162461bcd60e51b815260206004820152601a60248201527f5661756c74466163746f72793a207a65726f206164647265737300000000000060448201526064015b60405180910390fd5b600180546001600160a01b0319166001600160a01b0392909216919091179055565b6000546001600160a01b03163314620001aa5760405162461bcd60e51b815260206004820181905260248201527f4f776e61626c653a2063616c6c6572206973206e6f7420746865206f776e6572604482015260640162000123565b565b634e487b7160e01b600052604160045260246000fd5b600181811c90821680620001d757607f821691505b602082108103620001f857634e487b7160e01b600052602260045260246000fd5b50919050565b601f8211156200024c57600081815260208120601f850160051c81016020861015620002275750805b601f850160051c820191505b81811015620002485782815560010162000233565b5050505b505050565b81516001600160401b038111156200026d576200026d620001ac565b62000285816200027e8454620001c2565b84620001fe565b602080601f831160018114620002bd5760008415620002a45750858301515b600019600386901b1c1916600185901b17855562000248565b600085815260208120601f198616915b82811015620002ee57888601518255948401946001909101908401620002cd565b50858210156200030d5787850151600019600388901b60f8161c191681555b5050505050600190811b01905550565b6000602082840312156200033057600080fd5b81516001600160a01b03811681146200034857600080fd5b9392505050565b611400806200035f6000396000f3fe60806040526004361061009a5760003560e01c806375dadb32116100695780638da5cb5b1161004e5780638da5cb5b1461016f578063d8a06f731461018d578063f2fde38b146101ad57600080fd5b806375dadb321461012d57806385cb593b1461014f57600080fd5b806325041986146100a65780633ea7fbdb146100d6578063486b0acb146100f8578063715018a61461011857600080fd5b366100a157005b600080fd5b6100b96100b4366004610f1f565b6101cd565b6040516001600160a01b0390911681526020015b60405180910390f35b3480156100e257600080fd5b506100f66100f1366004610f4d565b6103ab565b005b34801561010457600080fd5b506100b9610113366004610f71565b61043d565b34801561012457600080fd5b506100f6610659565b34801561013957600080fd5b5061014261066d565b6040516100cd9190610fca565b34801561015b57600080fd5b506100f661016a366004611013565b6106fb565b34801561017b57600080fd5b506000546001600160a01b03166100b9565b34801561019957600080fd5b506001546100b9906001600160a01b031681565b3480156101b957600080fd5b506100f66101c8366004610f4d565b610713565b6001546000906001600160a01b0316633fe1da886101ea336107a3565b6040518263ffffffff1660e01b81526004016102069190610fca565b6020604051808303816000875af1158015610225573d6000803e3d6000fd5b505050506040513d601f19601f8201168201806040525081019061024991906110c4565b90503415610341576001546040517f4349d0810000000000000000000000000000000000000000000000000000000081526001600160a01b03838116600483015290911690634349d0819034906024016000604051808303818588803b1580156102b257600080fd5b505af11580156102c6573d6000803e3d6000fd5b5050505050600082111561034157600154604051636c665a5560e01b81526001600160a01b0383811660048301526024820185905233604483015290911690636c665a5590606401600060405180830381600087803b15801561032857600080fd5b505af115801561033c573d6000803e3d6000fd5b505050505b60015460405163fdc10daf60e01b81526001600160a01b0383811660048301523360248301529091169063fdc10daf90604401600060405180830381600087803b15801561038e57600080fd5b505af11580156103a2573d6000803e3d6000fd5b50505050919050565b6103b361086f565b6001600160a01b03811661040e5760405162461bcd60e51b815260206004820152601a60248201527f5661756c74466163746f72793a207a65726f206164647265737300000000000060448201526064015b60405180910390fd5b6001805473ffffffffffffffffffffffffffffffffffffffff19166001600160a01b0392909216919091179055565b6001546000906001600160a01b0316633fe1da8861045a336107a3565b6040518263ffffffff1660e01b81526004016104769190610fca565b6020604051808303816000875af1158015610495573d6000803e3d6000fd5b505050506040513d601f19601f820116820180604052508101906104b991906110c4565b905082156105ed576104d66001600160a01b0385163330866108c9565b6001546104f0906001600160a01b03868116911685610980565b6001546040517f597810340000000000000000000000000000000000000000000000000000000081526001600160a01b03838116600483015286811660248301526044820186905290911690635978103490606401600060405180830381600087803b15801561055f57600080fd5b505af1158015610573573d6000803e3d6000fd5b5050505060008211156105ed57600154604051636c665a5560e01b81526001600160a01b0383811660048301526024820185905233604483015290911690636c665a5590606401600060405180830381600087803b1580156105d457600080fd5b505af11580156105e8573d6000803e3d6000fd5b505050505b60015460405163fdc10daf60e01b81526001600160a01b0383811660048301523360248301529091169063fdc10daf90604401600060405180830381600087803b15801561063a57600080fd5b505af115801561064e573d6000803e3d6000fd5b505050509392505050565b61066161086f565b61066b6000610ad3565b565b6002805461067a906110e1565b80601f01602080910402602001604051908101604052809291908181526020018280546106a6906110e1565b80156106f35780601f106106c8576101008083540402835291602001916106f3565b820191906000526020600020905b8154815290600101906020018083116106d657829003601f168201915b505050505081565b61070361086f565b600261070f8282611169565b5050565b61071b61086f565b6001600160a01b0381166107975760405162461bcd60e51b815260206004820152602660248201527f4f776e61626c653a206e6577206f776e657220697320746865207a65726f206160448201527f64647265737300000000000000000000000000000000000000000000000000006064820152608401610405565b6107a081610ad3565b50565b6001546040517f8ffadd0c0000000000000000000000000000000000000000000000000000000081526001600160a01b038381166004830152606092600092911690638ffadd0c90602401602060405180830381865afa15801561080b573d6000803e3d6000fd5b505050506040513d601f19601f8201168201806040525081019061082f9190611229565b61083a906001611258565b9050600261084782610b30565b604051602001610858929190611271565b604051602081830303815290604052915050919050565b6000546001600160a01b0316331461066b5760405162461bcd60e51b815260206004820181905260248201527f4f776e61626c653a2063616c6c6572206973206e6f7420746865206f776e65726044820152606401610405565b6040516001600160a01b038085166024830152831660448201526064810182905261097a9085907f23b872dd00000000000000000000000000000000000000000000000000000000906084015b60408051601f198184030181529190526020810180517bffffffffffffffffffffffffffffffffffffffffffffffffffffffff167fffffffff0000000000000000000000000000000000000000000000000000000090931692909217909152610c90565b50505050565b801580610a1357506040517fdd62ed3e0000000000000000000000000000000000000000000000000000000081523060048201526001600160a01b03838116602483015284169063dd62ed3e90604401602060405180830381865afa1580156109ed573d6000803e3d6000fd5b505050506040513d601f19601f82011682018060405250810190610a119190611229565b155b610a855760405162461bcd60e51b815260206004820152603660248201527f5361666545524332303a20617070726f76652066726f6d206e6f6e2d7a65726f60448201527f20746f206e6f6e2d7a65726f20616c6c6f77616e6365000000000000000000006064820152608401610405565b6040516001600160a01b038316602482015260448101829052610ace9084907f095ea7b30000000000000000000000000000000000000000000000000000000090606401610916565b505050565b600080546001600160a01b0383811673ffffffffffffffffffffffffffffffffffffffff19831681178455604051919092169283917f8be0079c531659141344cd1fd0a4f28419497f9722a3daafe3b4186f6b6457e09190a35050565b606081600003610b7357505060408051808201909152600181527f3000000000000000000000000000000000000000000000000000000000000000602082015290565b8160005b8115610b9d5780610b87816112f8565b9150610b969050600a83611311565b9150610b77565b60008167ffffffffffffffff811115610bb857610bb8610ffd565b6040519080825280601f01601f191660200182016040528015610be2576020820181803683370190505b509050815b8515610c8757610bf8600182611333565b90506000610c07600a88611311565b610c1290600a611346565b610c1c9088611333565b610c2790603061135d565b905060008160f81b905080848481518110610c4457610c44611376565b60200101907effffffffffffffffffffffffffffffffffffffffffffffffffffffffffffff1916908160001a905350610c7e600a89611311565b97505050610be7565b50949350505050565b6000610ce5826040518060400160405280602081526020017f5361666545524332303a206c6f772d6c6576656c2063616c6c206661696c6564815250856001600160a01b0316610d789092919063ffffffff16565b9050805160001480610d06575080806020019051810190610d06919061138c565b610ace5760405162461bcd60e51b815260206004820152602a60248201527f5361666545524332303a204552433230206f7065726174696f6e20646964206e60448201527f6f742073756363656564000000000000000000000000000000000000000000006064820152608401610405565b6060610d878484600085610d8f565b949350505050565b606082471015610e075760405162461bcd60e51b815260206004820152602660248201527f416464726573733a20696e73756666696369656e742062616c616e636520666f60448201527f722063616c6c00000000000000000000000000000000000000000000000000006064820152608401610405565b600080866001600160a01b03168587604051610e2391906113ae565b60006040518083038185875af1925050503d8060008114610e60576040519150601f19603f3d011682016040523d82523d6000602084013e610e65565b606091505b5091509150610e7687838387610e81565b979650505050505050565b60608315610ef0578251600003610ee9576001600160a01b0385163b610ee95760405162461bcd60e51b815260206004820152601d60248201527f416464726573733a2063616c6c20746f206e6f6e2d636f6e74726163740000006044820152606401610405565b5081610d87565b610d878383815115610f055781518083602001fd5b8060405162461bcd60e51b81526004016104059190610fca565b600060208284031215610f3157600080fd5b5035919050565b6001600160a01b03811681146107a057600080fd5b600060208284031215610f5f57600080fd5b8135610f6a81610f38565b9392505050565b600080600060608486031215610f8657600080fd5b8335610f9181610f38565b95602085013595506040909401359392505050565b60005b83811015610fc1578181015183820152602001610fa9565b50506000910152565b6020815260008251806020840152610fe9816040850160208701610fa6565b601f01601f19169190910160400192915050565b634e487b7160e01b600052604160045260246000fd5b60006020828403121561102557600080fd5b813567ffffffffffffffff8082111561103d57600080fd5b818401915084601f83011261105157600080fd5b81358181111561106357611063610ffd565b604051601f8201601f19908116603f0116810190838211818310171561108b5761108b610ffd565b816040528281528760208487010111156110a457600080fd5b826020860160208301376000928101602001929092525095945050505050565b6000602082840312156110d657600080fd5b8151610f6a81610f38565b600181811c908216806110f557607f821691505b60208210810361111557634e487b7160e01b600052602260045260246000fd5b50919050565b601f821115610ace57600081815260208120601f850160051c810160208610156111425750805b601f850160051c820191505b818110156111615782815560010161114e565b505050505050565b815167ffffffffffffffff81111561118357611183610ffd565b6111978161119184546110e1565b8461111b565b602080601f8311600181146111cc57600084156111b45750858301515b600019600386901b1c1916600185901b178555611161565b600085815260208120601f198616915b828110156111fb578886015182559484019460019091019084016111dc565b50858210156112195787850151600019600388901b60f8161c191681555b5050505050600190811b01905550565b60006020828403121561123b57600080fd5b5051919050565b634e487b7160e01b600052601160045260246000fd5b8082018082111561126b5761126b611242565b92915050565b600080845461127f816110e1565b6001828116801561129757600181146112ac576112db565b60ff19841687528215158302870194506112db565b8860005260208060002060005b858110156112d25781548a8201529084019082016112b9565b50505082870194505b5050505083516112ef818360208801610fa6565b01949350505050565b60006001820161130a5761130a611242565b5060010190565b60008261132e57634e487b7160e01b600052601260045260246000fd5b500490565b8181038181111561126b5761126b611242565b808202811582820484141761126b5761126b611242565b60ff818116838216019081111561126b5761126b611242565b634e487b7160e01b600052603260045260246000fd5b60006020828403121561139e57600080fd5b81518015158114610f6a57600080fd5b600082516113c0818460208701610fa6565b919091019291505056fea2646970667358221220b081062e5937ed2177d08521cd33c9edb52539fbd4a0e14ad4f4e84bc38bc15e64736f6c63430008130033",
  "devdoc": {
    "kind": "dev",
    "methods": {
      "owner()": {
        "details": "Returns the address of the current owner."
      },
      "renounceOwnership()": {
        "details": "Leaves the contract without owner. It will not be possible to call `onlyOwner` functions. Can only be called by the current owner. NOTE: Renouncing ownership will leave the contract without an owner, thereby disabling any functionality that is only available to the owner."
      },
      "transferOwnership(address)": {
        "details": "Transfers ownership of the contract to a new account (`newOwner`). Can only be called by the current owner."
      }
    },
    "version": 1
  },
  "userdoc": {
    "kind": "user",
    "methods": {},
    "version": 1
  },
  "storageLayout": {
    "storage": [
      {
        "astId": 110,
        "contract": "contracts/VaultFactoryZapper.sol:VaultFactoryZapper",
        "label": "_owner",
        "offset": 0,
        "slot": "0",
        "type": "t_address"
      },
      {
        "astId": 11395,
        "contract": "contracts/VaultFactoryZapper.sol:VaultFactoryZapper",
        "label": "vaultFactory",
        "offset": 0,
        "slot": "1",
        "type": "t_contract(IVaultFactory)12769"
      },
      {
        "astId": 11398,
        "contract": "contracts/VaultFactoryZapper.sol:VaultFactoryZapper",
        "label": "prefix",
        "offset": 0,
        "slot": "2",
        "type": "t_string_storage"
      }
    ],
    "types": {
      "t_address": {
        "encoding": "inplace",
        "label": "address",
        "numberOfBytes": "20"
      },
      "t_contract(IVaultFactory)12769": {
        "encoding": "inplace",
        "label": "contract IVaultFactory",
        "numberOfBytes": "20"
      },
      "t_string_storage": {
        "encoding": "bytes",
        "label": "string",
        "numberOfBytes": "32"
      }
    }
  }
}