{
  "address": "0x9b5089A5a48A8F3A7f8F5CB4837249787533f85A",
  "abi": [
    {
      "inputs": [
        {
          "internalType": "address",
          "name": "_vaultFactory",
          "type": "address"
        },
        {
          "internalType": "address",
          "name": "_a3aToken",
          "type": "address"
        }
      ],
      "stateMutability": "nonpayable",
      "type": "constructor"
    },
    {
      "anonymous": false,
      "inputs": [
        {
          "indexed": false,
          "internalType": "address",
          "name": "_a3aTokenAddress",
          "type": "address"
        }
      ],
      "name": "A3aTokenAddressSet",
      "type": "event"
    },
    {
      "anonymous": false,
      "inputs": [
        {
          "indexed": false,
          "internalType": "address",
          "name": "_factoryAddress",
          "type": "address"
        }
      ],
      "name": "FactoryAddressSet",
      "type": "event"
    },
    {
      "anonymous": false,
      "inputs": [
        {
          "indexed": false,
          "internalType": "uint256",
          "name": "_amount",
          "type": "uint256"
        },
        {
          "indexed": false,
          "internalType": "uint256",
          "name": "_F_StableCoin",
          "type": "uint256"
        },
        {
          "indexed": false,
          "internalType": "bool",
          "name": "_redemptionFee",
          "type": "bool"
        }
      ],
      "name": "FeeTaken",
      "type": "event"
    },
    {
      "anonymous": false,
      "inputs": [
        {
          "indexed": true,
          "internalType": "address",
          "name": "previousOwner",
          "type": "address"
        },
        {
          "indexed": true,
          "internalType": "address",
          "name": "newOwner",
          "type": "address"
        }
      ],
      "name": "OwnershipTransferred",
      "type": "event"
    },
    {
      "anonymous": false,
      "inputs": [
        {
          "indexed": false,
          "internalType": "address",
          "name": "_account",
          "type": "address"
        },
        {
          "indexed": false,
          "internalType": "uint256",
          "name": "_stableAmount",
          "type": "uint256"
        },
        {
          "indexed": false,
          "internalType": "address",
          "name": "_vaultAddress",
          "type": "address"
        }
      ],
      "name": "RewardRedeemed",
      "type": "event"
    },
    {
      "anonymous": false,
      "inputs": [
        {
          "indexed": false,
          "internalType": "address",
          "name": "_stableCoinAddress",
          "type": "address"
        }
      ],
      "name": "StableCoinAddressSet",
      "type": "event"
    },
    {
      "anonymous": false,
      "inputs": [
        {
          "indexed": true,
          "internalType": "address",
          "name": "_staker",
          "type": "address"
        },
        {
          "indexed": false,
          "internalType": "uint256",
          "name": "_newStake",
          "type": "uint256"
        }
      ],
      "name": "StakeChanged",
      "type": "event"
    },
    {
      "anonymous": false,
      "inputs": [
        {
          "indexed": false,
          "internalType": "address",
          "name": "_staker",
          "type": "address"
        },
        {
          "indexed": false,
          "internalType": "uint256",
          "name": "_F_StableCoin",
          "type": "uint256"
        },
        {
          "indexed": false,
          "internalType": "uint256",
          "name": "_stableGains",
          "type": "uint256"
        }
      ],
      "name": "StakerSnapshotsUpdated",
      "type": "event"
    },
    {
      "anonymous": false,
      "inputs": [
        {
          "indexed": false,
          "internalType": "uint256",
          "name": "_totalA3AStaked",
          "type": "uint256"
        }
      ],
      "name": "TotalA3AStakedUpdated",
      "type": "event"
    },
    {
      "inputs": [],
      "name": "DECIMAL_PRECISION",
      "outputs": [
        {
          "internalType": "uint256",
          "name": "",
          "type": "uint256"
        }
      ],
      "stateMutability": "view",
      "type": "function"
    },
    {
      "inputs": [],
      "name": "F_StableCoin",
      "outputs": [
        {
          "internalType": "uint256",
          "name": "",
          "type": "uint256"
        }
      ],
      "stateMutability": "view",
      "type": "function"
    },
    {
      "inputs": [
        {
          "internalType": "address",
          "name": "",
          "type": "address"
        }
      ],
      "name": "F_StableCoinSnapshots",
      "outputs": [
        {
          "internalType": "uint256",
          "name": "",
          "type": "uint256"
        }
      ],
      "stateMutability": "view",
      "type": "function"
    },
    {
      "inputs": [],
      "name": "LIQUIDATION_RESERVE",
      "outputs": [
        {
          "internalType": "uint256",
          "name": "",
          "type": "uint256"
        }
      ],
      "stateMutability": "view",
      "type": "function"
    },
    {
      "inputs": [],
      "name": "MAX_BORROWING_RATE",
      "outputs": [
        {
          "internalType": "uint256",
          "name": "",
          "type": "uint256"
        }
      ],
      "stateMutability": "view",
      "type": "function"
    },
    {
      "inputs": [],
      "name": "MAX_INT",
      "outputs": [
        {
          "internalType": "uint256",
          "name": "",
          "type": "uint256"
        }
      ],
      "stateMutability": "view",
      "type": "function"
    },
    {
      "inputs": [],
      "name": "MAX_REDEMPTION_RATE",
      "outputs": [
        {
          "internalType": "uint256",
          "name": "",
          "type": "uint256"
        }
      ],
      "stateMutability": "view",
      "type": "function"
    },
    {
      "inputs": [],
      "name": "PERCENT",
      "outputs": [
        {
          "internalType": "uint256",
          "name": "",
          "type": "uint256"
        }
      ],
      "stateMutability": "view",
      "type": "function"
    },
    {
      "inputs": [],
      "name": "PERCENT10",
      "outputs": [
        {
          "internalType": "uint256",
          "name": "",
          "type": "uint256"
        }
      ],
      "stateMutability": "view",
      "type": "function"
    },
    {
      "inputs": [],
      "name": "PERCENT_05",
      "outputs": [
        {
          "internalType": "uint256",
          "name": "",
          "type": "uint256"
        }
      ],
      "stateMutability": "view",
      "type": "function"
    },
    {
      "inputs": [],
      "name": "a3aToken",
      "outputs": [
        {
          "internalType": "contract IERC20",
          "name": "",
          "type": "address"
        }
      ],
      "stateMutability": "view",
      "type": "function"
    },
    {
      "inputs": [],
      "name": "factory",
      "outputs": [
        {
          "internalType": "contract IVaultFactory",
          "name": "",
          "type": "address"
        }
      ],
      "stateMutability": "view",
      "type": "function"
    },
    {
      "inputs": [],
      "name": "getRewardsTotal",
      "outputs": [
        {
          "internalType": "uint256",
          "name": "",
          "type": "uint256"
        }
      ],
      "stateMutability": "view",
      "type": "function"
    },
    {
      "inputs": [
        {
          "internalType": "address",
          "name": "_user",
          "type": "address"
        }
      ],
      "name": "getUnpaidStableCoinGain",
      "outputs": [
        {
          "internalType": "uint256",
          "name": "",
          "type": "uint256"
        }
      ],
      "stateMutability": "view",
      "type": "function"
    },
    {
      "inputs": [],
      "name": "lastFeeOperationTime",
      "outputs": [
        {
          "internalType": "uint256",
          "name": "",
          "type": "uint256"
        }
      ],
      "stateMutability": "view",
      "type": "function"
    },
    {
      "inputs": [],
      "name": "owner",
      "outputs": [
        {
          "internalType": "address",
          "name": "",
          "type": "address"
        }
      ],
      "stateMutability": "view",
      "type": "function"
    },
    {
      "inputs": [
        {
          "internalType": "uint256",
          "name": "_amount",
          "type": "uint256"
        },
        {
          "internalType": "address",
          "name": "_vaultAddress",
          "type": "address"
        }
      ],
      "name": "redeemReward",
      "outputs": [],
      "stateMutability": "nonpayable",
      "type": "function"
    },
    {
      "inputs": [],
      "name": "renounceOwnership",
      "outputs": [],
      "stateMutability": "nonpayable",
      "type": "function"
    },
    {
      "inputs": [
        {
          "internalType": "address",
          "name": "_factoryAddress",
          "type": "address"
        }
      ],
      "name": "setFactory",
      "outputs": [],
      "stateMutability": "nonpayable",
      "type": "function"
    },
    {
      "inputs": [
        {
          "internalType": "uint256",
          "name": "_timestamp",
          "type": "uint256"
        }
      ],
      "name": "setInitialLastFee",
      "outputs": [],
      "stateMutability": "nonpayable",
      "type": "function"
    },
    {
      "inputs": [],
      "name": "stableCoin",
      "outputs": [
        {
          "internalType": "contract IERC20",
          "name": "",
          "type": "address"
        }
      ],
      "stateMutability": "view",
      "type": "function"
    },
    {
      "inputs": [
        {
          "internalType": "address",
          "name": "",
          "type": "address"
        }
      ],
      "name": "stableCoinUserGains",
      "outputs": [
        {
          "internalType": "uint256",
          "name": "",
          "type": "uint256"
        }
      ],
      "stateMutability": "view",
      "type": "function"
    },
    {
      "inputs": [
        {
          "internalType": "uint256",
          "name": "_a3aAmount",
          "type": "uint256"
        }
      ],
      "name": "stake",
      "outputs": [],
      "stateMutability": "nonpayable",
      "type": "function"
    },
    {
      "inputs": [
        {
          "internalType": "address",
          "name": "",
          "type": "address"
        }
      ],
      "name": "stakes",
      "outputs": [
        {
          "internalType": "uint256",
          "name": "",
          "type": "uint256"
        }
      ],
      "stateMutability": "view",
      "type": "function"
    },
    {
      "inputs": [
        {
          "internalType": "uint256",
          "name": "_amount",
          "type": "uint256"
        }
      ],
      "name": "takeFees",
      "outputs": [
        {
          "internalType": "bool",
          "name": "",
          "type": "bool"
        }
      ],
      "stateMutability": "nonpayable",
      "type": "function"
    },
    {
      "inputs": [],
      "name": "totalA3AStaked",
      "outputs": [
        {
          "internalType": "uint256",
          "name": "",
          "type": "uint256"
        }
      ],
      "stateMutability": "view",
      "type": "function"
    },
    {
      "inputs": [],
      "name": "totalStake",
      "outputs": [
        {
          "internalType": "uint256",
          "name": "",
          "type": "uint256"
        }
      ],
      "stateMutability": "view",
      "type": "function"
    },
    {
      "inputs": [
        {
          "internalType": "address",
          "name": "newOwner",
          "type": "address"
        }
      ],
      "name": "transferOwnership",
      "outputs": [],
      "stateMutability": "nonpayable",
      "type": "function"
    },
    {
      "inputs": [
        {
          "internalType": "uint256",
          "name": "_a3aAmount",
          "type": "uint256"
        }
      ],
      "name": "unstake",
      "outputs": [],
      "stateMutability": "nonpayable",
      "type": "function"
    }
  ],
  "transactionHash": "0xe36b4523e6ffeabf7989fb2381572fb64ba62c71c95433cbcfe70e0e94a524f5",
  "args": [
    "0x027A597aD044bDDb7a6B7Ef9eD2B641122801220",
    "0x58c7B2828e7F2B2CaA0cC7fEef242fA3196d03df"
  ],
  "numDeployments": 1,
  "solcInputHash": "3d7ac3cd8c655c7d05e6510673d0ef5d",
  "bytecode": "0x60806040523480156200001157600080fd5b506040516200175d3803806200175d833981016040819052620000349162000165565b6200003f33620000f8565b600780546001600160a01b038085166001600160a01b031992831681179093556008805491851691909216179055604080516322be3de160e01b815290516322be3de1916004808201926020929091908290030181865afa158015620000a9573d6000803e3d6000fd5b505050506040513d601f19601f82011682018060405250810190620000cf91906200019d565b600980546001600160a01b0319166001600160a01b039290921691909117905550620001c29050565b600080546001600160a01b038381166001600160a01b0319831681178455604051919092169283917f8be0079c531659141344cd1fd0a4f28419497f9722a3daafe3b4186f6b6457e09190a35050565b80516001600160a01b03811681146200016057600080fd5b919050565b600080604083850312156200017957600080fd5b620001848362000148565b9150620001946020840162000148565b90509250929050565b600060208284031215620001b057600080fd5b620001bb8262000148565b9392505050565b61158b80620001d26000396000f3fe608060405234801561001057600080fd5b50600436106101cf5760003560e01c8063923c1eec11610104578063ad236ffb116100a2578063cbb9435911610071578063cbb9435914610368578063d380a37c1461038b578063dabc41a714610394578063f2fde38b146103a757600080fd5b8063ad236ffb1461032f578063b85a8b201461024e578063c45a015514610342578063c4fd31471461035557600080fd5b8063a694fc3a116100de578063a694fc3a14610304578063abdc554114610317578063aceb2d041461031f578063ad09014d1461032757600080fd5b8063923c1eec146102e2578063992642e5146102f1578063a20baee6146102e257600080fd5b80635b13ae0811610171578063715018a61161014b578063715018a6146102a45780637c66c8ac146102ac5780638b0e9f3f146102b55780638da5cb5b146102bd57600080fd5b80635b13ae08146102695780635bb47808146102715780636fb084c41461028457600080fd5b8063413b1abf116101ad578063413b1abf1461022557806348fd2f5a146102455780634bb970421461024e578063501da2721461025657600080fd5b8063098d3228146101d457806316934fc4146101f05780632e17de7814610210575b600080fd5b6101dd60001981565b6040519081526020015b60405180910390f35b6101dd6101fe3660046113af565b60016020526000908152604090205481565b61022361021e3660046113cc565b6103ba565b005b6101dd6102333660046113af565b60056020526000908152604090205481565b6101dd60035481565b6101dd6104ac565b6101dd6102643660046113af565b6104ce565b6003546101dd565b61022361027f3660046113af565b6104df565b6101dd6102923660046113af565b60066020526000908152604090205481565b61022361062d565b6101dd60025481565b6002546101dd565b6000546001600160a01b03165b6040516001600160a01b0390911681526020016101e7565b6101dd670de0b6b3a764000081565b6009546102ca906001600160a01b031681565b6102236103123660046113cc565b610641565b6101dd610811565b6101dd610826565b6101dd610847565b6008546102ca906001600160a01b031681565b6007546102ca906001600160a01b031681565b6102236103633660046113e5565b610871565b61037b6103763660046113cc565b610c1c565b60405190151581526020016101e7565b6101dd60045481565b6102236103a23660046113cc565b610cdf565b6102236103b53660046113af565b610cfd565b6103c381610d8d565b336000908152600160205260409020546103dc81610ddd565b6103e533610e2d565b60006103f18383610e9e565b905060006103ff828461142b565b33600090815260016020526040902081905560025490915061042290839061142b565b60028190556040519081527fd603a6f5cfd364ee7e55b2df46b1c79e35f2c59c9c35877ddca607e20ed380159060200160405180910390a1600854610471906001600160a01b03163384610eb6565b60405181815233907f39df0e5286a3ef2f42a0bf52f32cfe2c58e5b0405f47fe512f2c2439e4cfe2049060200160405180910390a250505050565b60646104c1670de0b6b3a7640000600161143e565b6104cb9190611455565b81565b60006104d982610f64565b92915050565b6104e7610f92565b6007805473ffffffffffffffffffffffffffffffffffffffff19166001600160a01b038316908117909155604080517f22be3de100000000000000000000000000000000000000000000000000000000815290516322be3de1916004808201926020929091908290030181865afa158015610566573d6000803e3d6000fd5b505050506040513d601f19601f8201168201806040525081019061058a9190611477565b6009805473ffffffffffffffffffffffffffffffffffffffff19166001600160a01b03928316179055600754604051911681527f9d910c9fad7f6caea97ddebdae1c9588dcbeee40ac58fbea43811e3554b6d7279060200160405180910390a16009546040516001600160a01b0390911681527f8b3e443d01c14c05684786a0273fdb48381417285bd830b7e71354d3ce6016669060200160405180910390a150565b610635610f92565b61063f6000610fec565b565b61064a81610d8d565b33600081815260016020526040908190205460085491516323b872dd60e01b8152600481019390935230602484015260448301849052916001600160a01b03909116906323b872dd906064016020604051808303816000875af11580156106b5573d6000803e3d6000fd5b505050506040513d601f19601f820116820180604052508101906106d99190611494565b61072a5760405162461bcd60e51b815260206004820152601460248201527f7472616e736665722d66726f6d2d6661696c656400000000000000000000000060448201526064015b60405180910390fd5b600254600081900361075e5760035433600090815260066020526040812080549091906107589084906114b6565b90915550505b61076733610e2d565b600061077384836114b6565b60028190559050600061078685856114b6565b3360009081526001602052604090819020829055519091507fd603a6f5cfd364ee7e55b2df46b1c79e35f2c59c9c35877ddca607e20ed38015906107cd9084815260200190565b60405180910390a160405181815233907f39df0e5286a3ef2f42a0bf52f32cfe2c58e5b0405f47fe512f2c2439e4cfe2049060200160405180910390a25050505050565b60646104c1670de0b6b3a7640000600561143e565b6002606461083d670de0b6b3a7640000600161143e565b6104c19190611455565b606461085c670de0b6b3a7640000600161143e565b6108669190611455565b6104cb90600a61143e565b61087a82610d8d565b6007546040517f839936c00000000000000000000000000000000000000000000000000000000081526001600160a01b0383811660048301523392169063839936c090602401602060405180830381865afa1580156108dd573d6000803e3d6000fd5b505050506040513d601f19601f820116820180604052508101906109019190611494565b61094d5760405162461bcd60e51b815260206004820152600f60248201527f7661756c742d6e6f742d666f756e6400000000000000000000000000000000006044820152606401610721565b60008290506109be84826001600160a01b0316630dca59c16040518163ffffffff1660e01b8152600401602060405180830381865afa158015610994573d6000803e3d6000fd5b505050506040513d601f19601f820116820180604052508101906109b891906114c9565b90610e9e565b9350836109ca33610f64565b1015610a185760405162461bcd60e51b815260206004820152601e60248201527f616d6f756e742d6d7573742d6669742d726577617264732d616d6f756e7400006044820152606401610721565b610a2182610e2d565b6001600160a01b038216600090815260066020526040902054610a4590859061142b565b6001600160a01b0383811660009081526006602052604080822093909355600954600754935163095ea7b360e01b815293831660048501526024840191909152169063095ea7b3906044016020604051808303816000875af1158015610aaf573d6000803e3d6000fd5b505050506040513d601f19601f82011682018060405250810190610ad39190611494565b5060095460075460405163095ea7b360e01b81526001600160a01b0391821660048201526024810187905291169063095ea7b3906044016020604051808303816000875af1158015610b29573d6000803e3d6000fd5b505050506040513d601f19601f82011682018060405250810190610b4d9190611494565b506007546040517f22867d780000000000000000000000000000000000000000000000000000000081526001600160a01b03858116600483015260248201879052909116906322867d7890604401600060405180830381600087803b158015610bb557600080fd5b505af1158015610bc9573d6000803e3d6000fd5b505060408051338152602081018890526001600160a01b0387168183015290517f554a7c404e78f8dcda2f3ae4ba95a40c05dafc822fb45865a27f0e43dad4edcf9350908190036060019150a150505050565b6000610c2782610d8d565b600954610c3f906001600160a01b0316333085611049565b600254828115610c695781610c5c670de0b6b3a76400008661143e565b610c669190611455565b90505b600081600354610c7991906114b6565b60038190554260045560075460408051888152602081018490526001600160a01b039092163314908201529091507f62747fbd5ac2f0c08a49c2f926da70c4bb6c33e4db33a42674de054ae5c2dd269060600160405180910390a1506001949350505050565b610ce7610f92565b60008111610cf55742610cf7565b805b60045550565b610d05610f92565b6001600160a01b038116610d815760405162461bcd60e51b815260206004820152602660248201527f4f776e61626c653a206e6577206f776e657220697320746865207a65726f206160448201527f64647265737300000000000000000000000000000000000000000000000000006064820152608401610721565b610d8a81610fec565b50565b60008111610d8a5760405162461bcd60e51b815260206004820152600e60248201527f616d6f756e742d69732d7a65726f0000000000000000000000000000000000006044820152606401610721565b60008111610d8a5760405162461bcd60e51b815260206004820152600e60248201527f7374616b65732d69732d7a65726f0000000000000000000000000000000000006044820152606401610721565b610e3681611087565b6003546001600160a01b0382166000818152600560209081526040808320859055600682529182902054825193845290830184905282820152517f6b5cf27595af4428271524e0a5abd2b63f6fee1a61e31970490f5a10e257a1cd9181900360600190a15050565b6000818310610ead5781610eaf565b825b9392505050565b6040516001600160a01b038316602482015260448101829052610f5f9084907fa9059cbb00000000000000000000000000000000000000000000000000000000906064015b60408051601f198184030181529190526020810180517bffffffffffffffffffffffffffffffffffffffffffffffffffffffff167fffffffff0000000000000000000000000000000000000000000000000000000090931692909217909152611127565b505050565b6000610f6f8261120f565b6001600160a01b0383166000908152600660205260409020546104d991906114b6565b6000546001600160a01b0316331461063f5760405162461bcd60e51b815260206004820181905260248201527f4f776e61626c653a2063616c6c6572206973206e6f7420746865206f776e65726044820152606401610721565b600080546001600160a01b0383811673ffffffffffffffffffffffffffffffffffffffff19831681178455604051919092169283917f8be0079c531659141344cd1fd0a4f28419497f9722a3daafe3b4186f6b6457e09190a35050565b6040516001600160a01b03808516602483015283166044820152606481018290526110819085906323b872dd60e01b90608401610efb565b50505050565b6001600160a01b0381166000908152600160205260409020548015611123576001600160a01b038216600090815260056020526040812054600354909190670de0b6b3a7640000906110da90849061142b565b6110e4908561143e565b6110ee9190611455565b6001600160a01b03851660009081526006602052604081208054929350839290919061111b9084906114b6565b909155505050505b5050565b600061117c826040518060400160405280602081526020017f5361666545524332303a206c6f772d6c6576656c2063616c6c206661696c6564815250856001600160a01b03166112779092919063ffffffff16565b905080516000148061119d57508080602001905181019061119d9190611494565b610f5f5760405162461bcd60e51b815260206004820152602a60248201527f5361666545524332303a204552433230206f7065726174696f6e20646964206e60448201527f6f742073756363656564000000000000000000000000000000000000000000006064820152608401610721565b6001600160a01b0381166000908152600560205260408120546003548290670de0b6b3a76400009061124290849061142b565b6001600160a01b038616600090815260016020526040902054611265919061143e565b61126f9190611455565b949350505050565b606061126f848460008585600080866001600160a01b0316858760405161129e9190611506565b60006040518083038185875af1925050503d80600081146112db576040519150601f19603f3d011682016040523d82523d6000602084013e6112e0565b606091505b50915091506112f1878383876112fc565b979650505050505050565b6060831561136b578251600003611364576001600160a01b0385163b6113645760405162461bcd60e51b815260206004820152601d60248201527f416464726573733a2063616c6c20746f206e6f6e2d636f6e74726163740000006044820152606401610721565b508161126f565b61126f83838151156113805781518083602001fd5b8060405162461bcd60e51b81526004016107219190611522565b6001600160a01b0381168114610d8a57600080fd5b6000602082840312156113c157600080fd5b8135610eaf8161139a565b6000602082840312156113de57600080fd5b5035919050565b600080604083850312156113f857600080fd5b82359150602083013561140a8161139a565b809150509250929050565b634e487b7160e01b600052601160045260246000fd5b818103818111156104d9576104d9611415565b80820281158282048414176104d9576104d9611415565b60008261147257634e487b7160e01b600052601260045260246000fd5b500490565b60006020828403121561148957600080fd5b8151610eaf8161139a565b6000602082840312156114a657600080fd5b81518015158114610eaf57600080fd5b808201808211156104d9576104d9611415565b6000602082840312156114db57600080fd5b5051919050565b60005b838110156114fd5781810151838201526020016114e5565b50506000910152565b600082516115188184602087016114e2565b9190910192915050565b60208152600082518060208401526115418160408501602087016114e2565b601f01601f1916919091016040019291505056fea2646970667358221220ba8e3450c8dc939d9d31655392539f5bdd2b00664dcdee6cbbd347058222b94764736f6c63430008130033",
  "devdoc": {
    "kind": "dev",
    "methods": {
      "getRewardsTotal()": {
        "details": "reads the unpaid rewards of the user"
      },
      "getUnpaidStableCoinGain(address)": {
        "details": "reads the unpaid rewards of the user",
        "params": {
          "_user": "the user to check"
        }
      },
      "owner()": {
        "details": "Returns the address of the current owner."
      },
      "redeemReward(uint256,address)": {
        "details": "to redeem StableCoin rewards, transfers the amount only to repay debt of the Vault",
        "params": {
          "_amount": "amount of StableCoin to repay the debt",
          "_vaultAddress": "address of the valid vault to repay the debt"
        }
      },
      "renounceOwnership()": {
        "details": "Leaves the contract without owner. It will not be possible to call `onlyOwner` functions. Can only be called by the current owner. NOTE: Renouncing ownership will leave the contract without an owner, thereby disabling any functionality that is only available to the owner."
      },
      "setFactory(address)": {
        "details": "sets the VaultFactory contract, if address was updated"
      },
      "setInitialLastFee(uint256)": {
        "details": "set timestamp to calculate next decayed rate from",
        "params": {
          "_timestamp": "uint256 in seconds"
        }
      },
      "stake(uint256)": {
        "details": "to stake A3A",
        "params": {
          "_a3aAmount": "amount of A3A to stake"
        }
      },
      "totalStake()": {
        "details": "to get total A3A stkae amount"
      },
      "transferOwnership(address)": {
        "details": "Transfers ownership of the contract to a new account (`newOwner`). Can only be called by the current owner."
      },
      "unstake(uint256)": {
        "details": "to unstake A3A",
        "params": {
          "_a3aAmount": "amount of A3A to unstake"
        }
      }
    },
    "title": "A3A Staking contract, rewards stakers in StableCoin that is used to pay fee",
    "version": 1
  },
  "userdoc": {
    "kind": "user",
    "methods": {
      "redeemReward(uint256,address)": {
        "notice": "user can redeem StableCoin rewards only to repay the debt of the vaults"
      },
      "stake(uint256)": {
        "notice": "If caller has a pre-existing stake, records any accumulated StableCoin gains to them."
      },
      "unstake(uint256)": {
        "notice": "Unstake the A3A and send the it back to the caller, and record accumulated StableCoin gains. If requested amount > stake, send their entire stake."
      }
    },
    "version": 1
  },
  "storageLayout": {
    "storage": [
      {
        "astId": 110,
        "contract": "contracts/A3AStaking.sol:A3AStaking",
        "label": "_owner",
        "offset": 0,
        "slot": "0",
        "type": "t_address"
      },
      {
        "astId": 2399,
        "contract": "contracts/A3AStaking.sol:A3AStaking",
        "label": "stakes",
        "offset": 0,
        "slot": "1",
        "type": "t_mapping(t_address,t_uint256)"
      },
      {
        "astId": 2401,
        "contract": "contracts/A3AStaking.sol:A3AStaking",
        "label": "totalA3AStaked",
        "offset": 0,
        "slot": "2",
        "type": "t_uint256"
      },
      {
        "astId": 2403,
        "contract": "contracts/A3AStaking.sol:A3AStaking",
        "label": "F_StableCoin",
        "offset": 0,
        "slot": "3",
        "type": "t_uint256"
      },
      {
        "astId": 2405,
        "contract": "contracts/A3AStaking.sol:A3AStaking",
        "label": "lastFeeOperationTime",
        "offset": 0,
        "slot": "4",
        "type": "t_uint256"
      },
      {
        "astId": 2409,
        "contract": "contracts/A3AStaking.sol:A3AStaking",
        "label": "F_StableCoinSnapshots",
        "offset": 0,
        "slot": "5",
        "type": "t_mapping(t_address,t_uint256)"
      },
      {
        "astId": 2413,
        "contract": "contracts/A3AStaking.sol:A3AStaking",
        "label": "stableCoinUserGains",
        "offset": 0,
        "slot": "6",
        "type": "t_mapping(t_address,t_uint256)"
      },
      {
        "astId": 2416,
        "contract": "contracts/A3AStaking.sol:A3AStaking",
        "label": "factory",
        "offset": 0,
        "slot": "7",
        "type": "t_contract(IVaultFactory)12769"
      },
      {
        "astId": 2419,
        "contract": "contracts/A3AStaking.sol:A3AStaking",
        "label": "a3aToken",
        "offset": 0,
        "slot": "8",
        "type": "t_contract(IERC20)948"
      },
      {
        "astId": 2422,
        "contract": "contracts/A3AStaking.sol:A3AStaking",
        "label": "stableCoin",
        "offset": 0,
        "slot": "9",
        "type": "t_contract(IERC20)948"
      }
    ],
    "types": {
      "t_address": {
        "encoding": "inplace",
        "label": "address",
        "numberOfBytes": "20"
      },
      "t_contract(IERC20)948": {
        "encoding": "inplace",
        "label": "contract IERC20",
        "numberOfBytes": "20"
      },
      "t_contract(IVaultFactory)12769": {
        "encoding": "inplace",
        "label": "contract IVaultFactory",
        "numberOfBytes": "20"
      },
      "t_mapping(t_address,t_uint256)": {
        "encoding": "mapping",
        "key": "t_address",
        "label": "mapping(address => uint256)",
        "numberOfBytes": "32",
        "value": "t_uint256"
      },
      "t_uint256": {
        "encoding": "inplace",
        "label": "uint256",
        "numberOfBytes": "32"
      }
    }
  }
}