{
  "address": "0x7aFB2EBD975345DfAC950b924fb32B757da0Fc93",
  "abi": [
    {
      "inputs": [
        {
          "internalType": "address",
          "name": "_vaultFactory",
          "type": "address"
        }
      ],
      "stateMutability": "nonpayable",
      "type": "constructor"
    },
    {
      "anonymous": false,
      "inputs": [
        {
          "indexed": true,
          "internalType": "uint256",
          "name": "_auctionId",
          "type": "uint256"
        },
        {
          "indexed": false,
          "internalType": "uint256",
          "name": "_originalDebt",
          "type": "uint256"
        },
        {
          "indexed": false,
          "internalType": "uint256",
          "name": "_lowestDebtToAuction",
          "type": "uint256"
        },
        {
          "indexed": false,
          "internalType": "uint256",
          "name": "_highestDebtToAuction",
          "type": "uint256"
        },
        {
          "indexed": false,
          "internalType": "uint256",
          "name": "_collateralsLength",
          "type": "uint256"
        },
        {
          "indexed": false,
          "internalType": "address[]",
          "name": "_collateral",
          "type": "address[]"
        },
        {
          "indexed": false,
          "internalType": "uint256[]",
          "name": "_collateralAmount",
          "type": "uint256[]"
        },
        {
          "indexed": false,
          "internalType": "uint256",
          "name": "_auctionStartTime",
          "type": "uint256"
        },
        {
          "indexed": false,
          "internalType": "uint256",
          "name": "_auctionEndTime",
          "type": "uint256"
        }
      ],
      "name": "AuctionCreated",
      "type": "event"
    },
    {
      "anonymous": false,
      "inputs": [
        {
          "indexed": false,
          "internalType": "uint256",
          "name": "_auctionDuration",
          "type": "uint256"
        }
      ],
      "name": "AuctionDurationUpdated",
      "type": "event"
    },
    {
      "anonymous": false,
      "inputs": [
        {
          "indexed": true,
          "internalType": "uint256",
          "name": "_auctionId",
          "type": "uint256"
        }
      ],
      "name": "AuctionEnded",
      "type": "event"
    },
    {
      "anonymous": false,
      "inputs": [
        {
          "indexed": true,
          "internalType": "uint256",
          "name": "_auctionId",
          "type": "uint256"
        },
        {
          "indexed": true,
          "internalType": "address",
          "name": "_winner",
          "type": "address"
        },
        {
          "indexed": false,
          "internalType": "uint256",
          "name": "_debtRepaid",
          "type": "uint256"
        },
        {
          "indexed": false,
          "internalType": "uint256",
          "name": "_collateralValueGained",
          "type": "uint256"
        }
      ],
      "name": "AuctionWon",
      "type": "event"
    },
    {
      "anonymous": false,
      "inputs": [
        {
          "indexed": true,
          "internalType": "address",
          "name": "previousOwner",
          "type": "address"
        },
        {
          "indexed": true,
          "internalType": "address",
          "name": "newOwner",
          "type": "address"
        }
      ],
      "name": "OwnershipTransferred",
      "type": "event"
    },
    {
      "anonymous": false,
      "inputs": [
        {
          "indexed": true,
          "internalType": "address",
          "name": "_vaultFactory",
          "type": "address"
        }
      ],
      "name": "VaultFactoryUpdated",
      "type": "event"
    },
    {
      "inputs": [],
      "name": "DECIMAL_PRECISION",
      "outputs": [
        {
          "internalType": "uint256",
          "name": "",
          "type": "uint256"
        }
      ],
      "stateMutability": "view",
      "type": "function"
    },
    {
      "inputs": [],
      "name": "LIQUIDATION_RESERVE",
      "outputs": [
        {
          "internalType": "uint256",
          "name": "",
          "type": "uint256"
        }
      ],
      "stateMutability": "view",
      "type": "function"
    },
    {
      "inputs": [],
      "name": "MAX_BORROWING_RATE",
      "outputs": [
        {
          "internalType": "uint256",
          "name": "",
          "type": "uint256"
        }
      ],
      "stateMutability": "view",
      "type": "function"
    },
    {
      "inputs": [],
      "name": "MAX_INT",
      "outputs": [
        {
          "internalType": "uint256",
          "name": "",
          "type": "uint256"
        }
      ],
      "stateMutability": "view",
      "type": "function"
    },
    {
      "inputs": [],
      "name": "MAX_REDEMPTION_RATE",
      "outputs": [
        {
          "internalType": "uint256",
          "name": "",
          "type": "uint256"
        }
      ],
      "stateMutability": "view",
      "type": "function"
    },
    {
      "inputs": [],
      "name": "PERCENT",
      "outputs": [
        {
          "internalType": "uint256",
          "name": "",
          "type": "uint256"
        }
      ],
      "stateMutability": "view",
      "type": "function"
    },
    {
      "inputs": [],
      "name": "PERCENT10",
      "outputs": [
        {
          "internalType": "uint256",
          "name": "",
          "type": "uint256"
        }
      ],
      "stateMutability": "view",
      "type": "function"
    },
    {
      "inputs": [],
      "name": "PERCENT_05",
      "outputs": [
        {
          "internalType": "uint256",
          "name": "",
          "type": "uint256"
        }
      ],
      "stateMutability": "view",
      "type": "function"
    },
    {
      "inputs": [],
      "name": "auctionDuration",
      "outputs": [
        {
          "internalType": "uint256",
          "name": "",
          "type": "uint256"
        }
      ],
      "stateMutability": "view",
      "type": "function"
    },
    {
      "inputs": [
        {
          "internalType": "uint256",
          "name": "_auctionId",
          "type": "uint256"
        }
      ],
      "name": "auctionInfo",
      "outputs": [
        {
          "components": [
            {
              "internalType": "uint256",
              "name": "originalDebt",
              "type": "uint256"
            },
            {
              "internalType": "uint256",
              "name": "lowestDebtToAuction",
              "type": "uint256"
            },
            {
              "internalType": "uint256",
              "name": "highestDebtToAuction",
              "type": "uint256"
            },
            {
              "internalType": "uint256",
              "name": "collateralsLength",
              "type": "uint256"
            },
            {
              "internalType": "address[]",
              "name": "collateral",
              "type": "address[]"
            },
            {
              "internalType": "uint256[]",
              "name": "collateralAmount",
              "type": "uint256[]"
            },
            {
              "internalType": "uint256",
              "name": "auctionStartTime",
              "type": "uint256"
            },
            {
              "internalType": "uint256",
              "name": "auctionEndTime",
              "type": "uint256"
            },
            {
              "internalType": "bool",
              "name": "auctionEnded",
              "type": "bool"
            }
          ],
          "internalType": "struct AuctionManager.auctionData",
          "name": "",
          "type": "tuple"
        }
      ],
      "stateMutability": "view",
      "type": "function"
    },
    {
      "inputs": [
        {
          "internalType": "uint256",
          "name": "",
          "type": "uint256"
        }
      ],
      "name": "auctions",
      "outputs": [
        {
          "internalType": "uint256",
          "name": "originalDebt",
          "type": "uint256"
        },
        {
          "internalType": "uint256",
          "name": "lowestDebtToAuction",
          "type": "uint256"
        },
        {
          "internalType": "uint256",
          "name": "highestDebtToAuction",
          "type": "uint256"
        },
        {
          "internalType": "uint256",
          "name": "collateralsLength",
          "type": "uint256"
        },
        {
          "internalType": "uint256",
          "name": "auctionStartTime",
          "type": "uint256"
        },
        {
          "internalType": "uint256",
          "name": "auctionEndTime",
          "type": "uint256"
        },
        {
          "internalType": "bool",
          "name": "auctionEnded",
          "type": "bool"
        }
      ],
      "stateMutability": "view",
      "type": "function"
    },
    {
      "inputs": [],
      "name": "auctionsLength",
      "outputs": [
        {
          "internalType": "uint256",
          "name": "",
          "type": "uint256"
        }
      ],
      "stateMutability": "view",
      "type": "function"
    },
    {
      "inputs": [
        {
          "internalType": "uint256",
          "name": "_auctionId",
          "type": "uint256"
        }
      ],
      "name": "bid",
      "outputs": [],
      "stateMutability": "nonpayable",
      "type": "function"
    },
    {
      "inputs": [
        {
          "internalType": "uint256",
          "name": "_auctionId",
          "type": "uint256"
        }
      ],
      "name": "bidInfo",
      "outputs": [
        {
          "internalType": "uint256",
          "name": "_totalCollateralValue",
          "type": "uint256"
        },
        {
          "internalType": "uint256",
          "name": "_debtToAuctionAtCurrentTime",
          "type": "uint256"
        }
      ],
      "stateMutability": "view",
      "type": "function"
    },
    {
      "inputs": [
        {
          "internalType": "uint256",
          "name": "_auctionId",
          "type": "uint256"
        }
      ],
      "name": "getTotalCollateralValue",
      "outputs": [
        {
          "internalType": "uint256",
          "name": "",
          "type": "uint256"
        }
      ],
      "stateMutability": "view",
      "type": "function"
    },
    {
      "inputs": [],
      "name": "lowestHF",
      "outputs": [
        {
          "internalType": "uint256",
          "name": "",
          "type": "uint256"
        }
      ],
      "stateMutability": "view",
      "type": "function"
    },
    {
      "inputs": [],
      "name": "newAuction",
      "outputs": [],
      "stateMutability": "nonpayable",
      "type": "function"
    },
    {
      "inputs": [],
      "name": "owner",
      "outputs": [
        {
          "internalType": "address",
          "name": "",
          "type": "address"
        }
      ],
      "stateMutability": "view",
      "type": "function"
    },
    {
      "inputs": [],
      "name": "renounceOwnership",
      "outputs": [],
      "stateMutability": "nonpayable",
      "type": "function"
    },
    {
      "inputs": [
        {
          "internalType": "uint256",
          "name": "_auctionDuration",
          "type": "uint256"
        }
      ],
      "name": "setAuctionDuration",
      "outputs": [],
      "stateMutability": "nonpayable",
      "type": "function"
    },
    {
      "inputs": [
        {
          "internalType": "uint256",
          "name": "_lowestHF",
          "type": "uint256"
        }
      ],
      "name": "setLowestHealthFactor",
      "outputs": [],
      "stateMutability": "nonpayable",
      "type": "function"
    },
    {
      "inputs": [
        {
          "internalType": "address",
          "name": "_vaultFactory",
          "type": "address"
        }
      ],
      "name": "setVaultFactory",
      "outputs": [],
      "stateMutability": "nonpayable",
      "type": "function"
    },
    {
      "inputs": [
        {
          "internalType": "address",
          "name": "newOwner",
          "type": "address"
        }
      ],
      "name": "transferOwnership",
      "outputs": [],
      "stateMutability": "nonpayable",
      "type": "function"
    },
    {
      "inputs": [],
      "name": "vaultFactory",
      "outputs": [
        {
          "internalType": "address",
          "name": "",
          "type": "address"
        }
      ],
      "stateMutability": "view",
      "type": "function"
    }
  ],
  "transactionHash": "0x5fbb25a7272a6c84890f0f529aecc3e03f567a3714ea597a817ad53ec93c555c",
  "args": [
    "0x027A597aD044bDDb7a6B7Ef9eD2B641122801220"
  ],
  "numDeployments": 1,
  "solcInputHash": "3d7ac3cd8c655c7d05e6510673d0ef5d",
  "bytecode": "0x6080604052611c20600255670e92596fd62900006003553480156200002357600080fd5b5060405162002aba38038062002aba833981016040819052620000469162000143565b6200005133620000f3565b600180556001600160a01b038116620000a55760405162461bcd60e51b815260206004820152601260248201527107661756c742d666163746f72792d69732d360741b604482015260640160405180910390fd5b600580546001600160a01b0319166001600160a01b0383169081179091556040517f4618618bd25d53d81b13f8ebde476031681bbb9f5b409de00b6bca9656f96f4790600090a25062000175565b600080546001600160a01b038381166001600160a01b0319831681178455604051919092169283917f8be0079c531659141344cd1fd0a4f28419497f9722a3daafe3b4186f6b6457e09190a35050565b6000602082840312156200015657600080fd5b81516001600160a01b03811681146200016e57600080fd5b9392505050565b61293580620001856000396000f3fe608060405234801561001057600080fd5b50600436106101985760003560e01c8063957a867c116100e3578063ad09014d1161008c578063d8a06f7311610066578063d8a06f7314610302578063f2fde38b14610315578063f653aa041461032857600080fd5b8063ad09014d146102f2578063b85a8b2014610206578063d3cc6eb2146102fa57600080fd5b8063a497e674116100bd578063a497e674146102cf578063abdc5541146102e2578063aceb2d04146102ea57600080fd5b8063957a867c146102a757806398afd583146102c7578063a20baee61461029857600080fd5b80634bb9704211610145578063715018a61161011f578063715018a61461026b5780638da5cb5b14610273578063923c1eec1461029857600080fd5b80634bb9704214610206578063571a26a01461020e578063574aba441461025857600080fd5b806345058efe1161017657806345058efe146101d7578063454a2ab3146101e05780634917251c146101f357600080fd5b8063098d32281461019d5780630cbf54c8146101b95780633ea7fbdb146101c2575b600080fd5b6101a660001981565b6040519081526020015b60405180910390f35b6101a660025481565b6101d56101d03660046123d4565b610350565b005b6101a660035481565b6101d56101ee3660046123f8565b61040a565b6101d56102013660046123f8565b610873565b6101a66108d0565b61022161021c3660046123f8565b6108f2565b604080519788526020880196909652948601939093526060850191909152608084015260a0830152151560c082015260e0016101b0565b6101a66102663660046123f8565b610944565b6101d5610cd6565b6000546001600160a01b03165b6040516001600160a01b0390911681526020016101b0565b6101a6670de0b6b3a764000081565b6102ba6102b53660046123f8565b610cea565b6040516101b09190612485565b6101d5610e74565b6101d56102dd3660046123f8565b6115fc565b6101a661168f565b6101a66116a4565b6101a66116c5565b6004546101a6565b600554610280906001600160a01b031681565b6101d56103233660046123d4565b6116ef565b61033b6103363660046123f8565b61177c565b604080519283526020830191909152016101b0565b610358611969565b6001600160a01b0381166103b35760405162461bcd60e51b815260206004820152601260248201527f7661756c742d666163746f72792d69732d30000000000000000000000000000060448201526064015b60405180910390fd5b6005805473ffffffffffffffffffffffffffffffffffffffff19166001600160a01b0383169081179091556040517f4618618bd25d53d81b13f8ebde476031681bbb9f5b409de00b6bca9656f96f4790600090a250565b6104126119c3565b60006004828154811061042757610427612521565b90600052602060002090600902016040518061012001604052908160008201548152602001600182015481526020016002820154815260200160038201548152602001600482018054806020026020016040519081016040528092919081815260200182805480156104c257602002820191906000526020600020905b81546001600160a01b031681526001909101906020018083116104a4575b505050505081526020016005820180548060200260200160405190810160405280929190818152602001828054801561051a57602002820191906000526020600020905b815481526020019060010190808311610506575b5050509183525050600682015460208201526007820154604082015260089091015460ff1615156060909101526101008101519091501561058d5760405162461bcd60e51b815260206004820152600d60248201526c185d58dd1a5bdb8b595b991959609a1b60448201526064016103aa565b8060e0015142111561060a576001600483815481106105ae576105ae612521565b60009182526020909120600990910201600801805460ff19169115159190911790556105d982611a1c565b60405182907f45806e512b1f4f10e33e8b3cb64d1d11d998d8c554a95e0841fc1c701278bd5d90600090a250610867565b600061061583610944565b6040830151602084015160025460c08601519394509192909160009161063b904261254d565b610645848661254d565b61064f9190612566565b610659919061257d565b610663908461254d565b90506000600560009054906101000a90046001600160a01b03166001600160a01b03166322be3de16040518163ffffffff1660e01b8152600401602060405180830381865afa1580156106ba573d6000803e3d6000fd5b505050506040513d601f19601f820116820180604052508101906106de91906125af565b90506106f56001600160a01b038216333085611dbe565b6040517f42966c68000000000000000000000000000000000000000000000000000000008152600481018390526001600160a01b038216906342966c6890602401600060405180830381600087803b15801561075057600080fd5b505af1158015610764573d6000803e3d6000fd5b50505050606086015160005b818110156107e85760008860800151828151811061079057610790612521565b602002602001015190506107d5338a60a0015184815181106107b4576107b4612521565b6020026020010151836001600160a01b0316611e759092919063ffffffff16565b50806107e0816125cc565b915050610770565b506001600489815481106107fe576107fe612521565b600091825260209182902060099190910201600801805460ff1916921515929092179091556040805185815291820188905233918a917f3e9c0f17b9d3769672ac377d0e05c5d9636d581339bd2fa78068113634e9a30c910160405180910390a3505050505050505b61087060018055565b50565b61087b611969565b600081116108cb5760405162461bcd60e51b815260206004820152600e60248201527f6c6f776573742d68662d69732d3000000000000000000000000000000000000060448201526064016103aa565b600355565b60646108e5670de0b6b3a76400006001612566565b6108ef919061257d565b81565b6004818154811061090257600080fd5b60009182526020909120600990910201805460018201546002830154600384015460068501546007860154600890960154949650929491939092919060ff1687565b6000806004838154811061095a5761095a612521565b90600052602060002090600902016040518061012001604052908160008201548152602001600182015481526020016002820154815260200160038201548152602001600482018054806020026020016040519081016040528092919081815260200182805480156109f557602002820191906000526020600020905b81546001600160a01b031681526001909101906020018083116109d7575b5050505050815260200160058201805480602002602001604051908101604052809291908181526020018280548015610a4d57602002820191906000526020600020905b815481526020019060010190808311610a39575b5050505050815260200160068201548152602001600782015481526020016008820160009054906101000a900460ff16151515158152505090506000600560009054906101000a90046001600160a01b03166001600160a01b031663741bef1a6040518163ffffffff1660e01b8152600401602060405180830381865afa158015610adc573d6000803e3d6000fd5b505050506040513d601f19601f82011682018060405250810190610b0091906125af565b90506000805b8360600151811015610ccd576000836001600160a01b03166384ba3f6986608001518481518110610b3957610b39612521565b60200260200101516040518263ffffffff1660e01b8152600401610b6c91906001600160a01b0391909116815260200190565b602060405180830381865afa158015610b89573d6000803e3d6000fd5b505050506040513d601f19601f82011682018060405250810190610bad91906125e5565b90506000846001600160a01b031663d449a83287608001518581518110610bd657610bd6612521565b60200260200101516040518263ffffffff1660e01b8152600401610c0991906001600160a01b0391909116815260200190565b602060405180830381865afa158015610c26573d6000803e3d6000fd5b505050506040513d601f19601f82011682018060405250810190610c4a91906125e5565b610c5590601261254d565b610c6090600a6126e2565b8660a001518481518110610c7657610c76612521565b6020026020010151610c889190612566565b90506000670de0b6b3a7640000610c9f8484612566565b610ca9919061257d565b9050610cb581866126ee565b94505050508080610cc5906125cc565b915050610b06565b50949350505050565b610cde611969565b610ce86000611ec3565b565b610d3b60405180610120016040528060008152602001600081526020016000815260200160008152602001606081526020016060815260200160008152602001600081526020016000151581525090565b60048281548110610d4e57610d4e612521565b9060005260206000209060090201604051806101200160405290816000820154815260200160018201548152602001600282015481526020016003820154815260200160048201805480602002602001604051908101604052809291908181526020018280548015610de957602002820191906000526020600020905b81546001600160a01b03168152600190910190602001808311610dcb575b5050505050815260200160058201805480602002602001604051908101604052809291908181526020018280548015610e4157602002820191906000526020600020905b815481526020019060010190808311610e2d575b5050509183525050600682015460208201526007820154604082015260089091015460ff16151560609091015292915050565b60055460408051630679fda760e41b815290516000926001600160a01b03169163679fda709160048083019260209291908290030181865afa158015610ebe573d6000803e3d6000fd5b505050506040513d601f19601f82011682018060405250810190610ee291906125af565b9050336001600160a01b03821614610f3c5760405162461bcd60e51b815260206004820152600b60248201527f6e6f742d616c6c6f77656400000000000000000000000000000000000000000060448201526064016103aa565b6000816001600160a01b03166323d8d8b96040518163ffffffff1660e01b8152600401602060405180830381865afa158015610f7c573d6000803e3d6000fd5b505050506040513d601f19601f82011682018060405250810190610fa091906125e5565b905060008111610ff25760405162461bcd60e51b815260206004820152601260248201527f6e6f2d646562742d746f2d61756374696f6e000000000000000000000000000060448201526064016103aa565b6000826001600160a01b0316634113e5ca6040518163ffffffff1660e01b8152600401600060405180830381865afa158015611032573d6000803e3d6000fd5b505050506040513d6000823e601f3d908101601f1916820160405261105a9190810190612717565b90506000815167ffffffffffffffff81111561107857611078612701565b6040519080825280602002602001820160405280156110a1578160200160208202803683370190505b508251909150806110f45760405162461bcd60e51b815260206004820152600e60248201527f6e6f2d636f6c6c61746572616c7300000000000000000000000000000000000060448201526064016103aa565b600080600560009054906101000a90046001600160a01b03166001600160a01b031663741bef1a6040518163ffffffff1660e01b8152600401602060405180830381865afa15801561114a573d6000803e3d6000fd5b505050506040513d601f19601f8201168201806040525081019061116e91906125af565b905060005b838110156113dc57600086828151811061118f5761118f612521565b602002602001015190506000896001600160a01b031663a5fdc5de8985815181106111bc576111bc612521565b60200260200101516040518263ffffffff1660e01b81526004016111ef91906001600160a01b0391909116815260200190565b602060405180830381865afa15801561120c573d6000803e3d6000fd5b505050506040513d601f19601f8201168201806040525081019061123091906125e5565b90506112476001600160a01b0383168b3084611dbe565b8087848151811061125a5761125a612521565b60209081029190910101526040517f84ba3f690000000000000000000000000000000000000000000000000000000081526001600160a01b038381166004830152600091908616906384ba3f6990602401602060405180830381865afa1580156112c8573d6000803e3d6000fd5b505050506040513d601f19601f820116820180604052508101906112ec91906125e5565b6040517fd449a8320000000000000000000000000000000000000000000000000000000081526001600160a01b03858116600483015291925060009187169063d449a83290602401602060405180830381865afa158015611351573d6000803e3d6000fd5b505050506040513d601f19601f8201168201806040525081019061137591906125e5565b61138090601261254d565b61138b90600a6126e2565b6113959084612566565b90506000670de0b6b3a76400006113ac8484612566565b6113b6919061257d565b90506113c281896126ee565b9750505050505080806113d4906125cc565b915050611173565b5060025442906000906113ef90836126ee565b90506000670de0b6b3a76400006003548661140a9190612566565b611414919061257d565b9050888181101561142157905b60408051610120810182528b81526020808201858152928201848152606083018b8152608084018e815260a085018e905260c085018a905260e0850189905260006101008601819052600480546001810182559152855160099091027f8a35acfbc15ff81a39ae7d344fd709f28e8600b4aa8c65c6b64bfe7fe36bd19b810191825596517f8a35acfbc15ff81a39ae7d344fd709f28e8600b4aa8c65c6b64bfe7fe36bd19c88015592517f8a35acfbc15ff81a39ae7d344fd709f28e8600b4aa8c65c6b64bfe7fe36bd19d87015590517f8a35acfbc15ff81a39ae7d344fd709f28e8600b4aa8c65c6b64bfe7fe36bd19e8601555180519394919361154f937f8a35acfbc15ff81a39ae7d344fd709f28e8600b4aa8c65c6b64bfe7fe36bd19f9093019291909101906122fd565b5060a0820151805161156b91600584019160209091019061236f565b5060c0820151600682015560e08201516007820155610100909101516008909101805460ff19169115159190911790556004546115aa9060019061254d565b7f2bd415a62ae5a06f2eeaab6e2cf30415888da63425d09470f59cd070b3fb29c68b84848b8e8e8b8b6040516115e79897969594939291906127dc565b60405180910390a25050505050505050505050565b611604611969565b600081116116545760405162461bcd60e51b815260206004820152601560248201527f61756374696f6e2d6475726174696f6e2d69732d30000000000000000000000060448201526064016103aa565b60028190556040518181527faab6389d8f1c16ba1deb6e9831f5c5442cf4fcf99bf5bfa867460be408a911189060200160405180910390a150565b60646108e5670de0b6b3a76400006005612566565b600260646116bb670de0b6b3a76400006001612566565b6108e5919061257d565b60646116da670de0b6b3a76400006001612566565b6116e4919061257d565b6108ef90600a612566565b6116f7611969565b6001600160a01b0381166117735760405162461bcd60e51b815260206004820152602660248201527f4f776e61626c653a206e6577206f776e657220697320746865207a65726f206160448201527f646472657373000000000000000000000000000000000000000000000000000060648201526084016103aa565b61087081611ec3565b60008060006004848154811061179457611794612521565b906000526020600020906009020160405180610120016040529081600082015481526020016001820154815260200160028201548152602001600382015481526020016004820180548060200260200160405190810160405280929190818152602001828054801561182f57602002820191906000526020600020905b81546001600160a01b03168152600190910190602001808311611811575b505050505081526020016005820180548060200260200160405190810160405280929190818152602001828054801561188757602002820191906000526020600020905b815481526020019060010190808311611873575b5050509183525050600682015460208201526007820154604082015260089091015460ff1615156060909101526101008101519091501580156118ce57508060e001514211155b61190a5760405162461bcd60e51b815260206004820152600d60248201526c185d58dd1a5bdb8b595b991959609a1b60448201526064016103aa565b61191384610944565b6040820151602083015160025460c08501519396509192909190611937904261254d565b611941838561254d565b61194b9190612566565b611955919061257d565b61195f908361254d565b9350505050915091565b6000546001600160a01b03163314610ce85760405162461bcd60e51b815260206004820181905260248201527f4f776e61626c653a2063616c6c6572206973206e6f7420746865206f776e657260448201526064016103aa565b600260015403611a155760405162461bcd60e51b815260206004820152601f60248201527f5265656e7472616e637947756172643a207265656e7472616e742063616c6c0060448201526064016103aa565b6002600155565b60055460408051630679fda760e41b815290516000926001600160a01b03169163679fda709160048083019260209291908290030181865afa158015611a66573d6000803e3d6000fd5b505050506040513d601f19601f82011682018060405250810190611a8a91906125af565b90506000816001600160a01b031663edeb1c8e6040518163ffffffff1660e01b8152600401602060405180830381865afa158015611acc573d6000803e3d6000fd5b505050506040513d601f19601f82011682018060405250810190611af091906125af565b9050600060048481548110611b0757611b07612521565b9060005260206000209060090201604051806101200160405290816000820154815260200160018201548152602001600282015481526020016003820154815260200160048201805480602002602001604051908101604052809291908181526020018280548015611ba257602002820191906000526020600020905b81546001600160a01b03168152600190910190602001808311611b84575b5050505050815260200160058201805480602002602001604051908101604052809291908181526020018280548015611bfa57602002820191906000526020600020905b815481526020019060010190808311611be6575b505050918352505060068201546020820152600782015460408083019190915260089092015460ff161515606091820152820151608083015160a0840151845193517f6b5bc9940000000000000000000000000000000000000000000000000000000081526004810185905294955091939092906001600160a01b03871690636b5bc99490602401600060405180830381600087803b158015611c9c57600080fd5b505af1158015611cb0573d6000803e3d6000fd5b5050505060005b84811015611db3576000848281518110611cd357611cd3612521565b60200260200101519050611cfc886000836001600160a01b0316611f209092919063ffffffff16565b611d126001600160a01b03821689600019611f20565b876001600160a01b0316636d75b9ee82868581518110611d3457611d34612521565b60200260200101516040518363ffffffff1660e01b8152600401611d6d9291906001600160a01b03929092168252602082015260400190565b600060405180830381600087803b158015611d8757600080fd5b505af1158015611d9b573d6000803e3d6000fd5b50505050508080611dab906125cc565b915050611cb7565b505050505050505050565b6040516001600160a01b0380851660248301528316604482015260648101829052611e6f9085907f23b872dd00000000000000000000000000000000000000000000000000000000906084015b60408051601f198184030181529190526020810180517bffffffffffffffffffffffffffffffffffffffffffffffffffffffff167fffffffff000000000000000000000000000000000000000000000000000000009093169290921790915261206e565b50505050565b6040516001600160a01b038316602482015260448101829052611ebe9084907fa9059cbb0000000000000000000000000000000000000000000000000000000090606401611e0b565b505050565b600080546001600160a01b0383811673ffffffffffffffffffffffffffffffffffffffff19831681178455604051919092169283917f8be0079c531659141344cd1fd0a4f28419497f9722a3daafe3b4186f6b6457e09190a35050565b801580611fb357506040517fdd62ed3e0000000000000000000000000000000000000000000000000000000081523060048201526001600160a01b03838116602483015284169063dd62ed3e90604401602060405180830381865afa158015611f8d573d6000803e3d6000fd5b505050506040513d601f19601f82011682018060405250810190611fb191906125e5565b155b6120255760405162461bcd60e51b815260206004820152603660248201527f5361666545524332303a20617070726f76652066726f6d206e6f6e2d7a65726f60448201527f20746f206e6f6e2d7a65726f20616c6c6f77616e63650000000000000000000060648201526084016103aa565b6040516001600160a01b038316602482015260448101829052611ebe9084907f095ea7b30000000000000000000000000000000000000000000000000000000090606401611e0b565b60006120c3826040518060400160405280602081526020017f5361666545524332303a206c6f772d6c6576656c2063616c6c206661696c6564815250856001600160a01b03166121569092919063ffffffff16565b90508051600014806120e45750808060200190518101906120e4919061286a565b611ebe5760405162461bcd60e51b815260206004820152602a60248201527f5361666545524332303a204552433230206f7065726174696f6e20646964206e60448201527f6f7420737563636565640000000000000000000000000000000000000000000060648201526084016103aa565b6060612165848460008561216d565b949350505050565b6060824710156121e55760405162461bcd60e51b815260206004820152602660248201527f416464726573733a20696e73756666696369656e742062616c616e636520666f60448201527f722063616c6c000000000000000000000000000000000000000000000000000060648201526084016103aa565b600080866001600160a01b0316858760405161220191906128b0565b60006040518083038185875af1925050503d806000811461223e576040519150601f19603f3d011682016040523d82523d6000602084013e612243565b606091505b50915091506122548783838761225f565b979650505050505050565b606083156122ce5782516000036122c7576001600160a01b0385163b6122c75760405162461bcd60e51b815260206004820152601d60248201527f416464726573733a2063616c6c20746f206e6f6e2d636f6e747261637400000060448201526064016103aa565b5081612165565b61216583838151156122e35781518083602001fd5b8060405162461bcd60e51b81526004016103aa91906128cc565b82805482825590600052602060002090810192821561235f579160200282015b8281111561235f578251825473ffffffffffffffffffffffffffffffffffffffff19166001600160a01b0390911617825560209092019160019091019061231d565b5061236b9291506123aa565b5090565b82805482825590600052602060002090810192821561235f579160200282015b8281111561235f57825182559160200191906001019061238f565b5b8082111561236b57600081556001016123ab565b6001600160a01b038116811461087057600080fd5b6000602082840312156123e657600080fd5b81356123f1816123bf565b9392505050565b60006020828403121561240a57600080fd5b5035919050565b600081518084526020808501945080840160005b8381101561244a5781516001600160a01b031687529582019590820190600101612425565b509495945050505050565b600081518084526020808501945080840160005b8381101561244a57815187529582019590820190600101612469565b6020815281516020820152602082015160408201526040820151606082015260608201516080820152600060808301516101208060a08501526124cc610140850183612411565b915060a0850151601f198584030160c08601526124e98382612455565b92505060c085015160e085015260e08501516101008181870152808701519150506125178286018215159052565b5090949350505050565b634e487b7160e01b600052603260045260246000fd5b634e487b7160e01b600052601160045260246000fd5b8181038181111561256057612560612537565b92915050565b808202811582820484141761256057612560612537565b60008261259a57634e487b7160e01b600052601260045260246000fd5b500490565b80516125aa816123bf565b919050565b6000602082840312156125c157600080fd5b81516123f1816123bf565b6000600182016125de576125de612537565b5060010190565b6000602082840312156125f757600080fd5b5051919050565b600181815b8085111561263957816000190482111561261f5761261f612537565b8085161561262c57918102915b93841c9390800290612603565b509250929050565b60008261265057506001612560565b8161265d57506000612560565b8160018114612673576002811461267d57612699565b6001915050612560565b60ff84111561268e5761268e612537565b50506001821b612560565b5060208310610133831016604e8410600b84101617156126bc575081810a612560565b6126c683836125fe565b80600019048211156126da576126da612537565b029392505050565b60006123f18383612641565b8082018082111561256057612560612537565b634e487b7160e01b600052604160045260246000fd5b6000602080838503121561272a57600080fd5b825167ffffffffffffffff8082111561274257600080fd5b818501915085601f83011261275657600080fd5b81518181111561276857612768612701565b8060051b604051601f19603f8301168101818110858211171561278d5761278d612701565b6040529182528482019250838101850191888311156127ab57600080fd5b938501935b828510156127d0576127c18561259f565b845293850193928501926127b0565b98975050505050505050565b60006101008083018b845260208b818601528a6040860152896060860152826080860152819250885180835261012086019350818a01925060005b8181101561283c5783516001600160a01b031685529382019392820192600101612817565b5050505082810360a08401526128528187612455565b60c0840195909552505060e001529695505050505050565b60006020828403121561287c57600080fd5b815180151581146123f157600080fd5b60005b838110156128a757818101518382015260200161288f565b50506000910152565b600082516128c281846020870161288c565b9190910192915050565b60208152600082518060208401526128eb81604085016020870161288c565b601f01601f1916919091016040019291505056fea2646970667358221220c70c7514831ba74f2f7ad1d865366dc0db55cc43e38b0b66f008a0c7d8c9077b64736f6c63430008130033",
  "devdoc": {
    "kind": "dev",
    "methods": {
      "owner()": {
        "details": "Returns the address of the current owner."
      },
      "renounceOwnership()": {
        "details": "Leaves the contract without owner. It will not be possible to call `onlyOwner` functions. Can only be called by the current owner. NOTE: Renouncing ownership will leave the contract without an owner, thereby disabling any functionality that is only available to the owner."
      },
      "transferOwnership(address)": {
        "details": "Transfers ownership of the contract to a new account (`newOwner`). Can only be called by the current owner."
      }
    },
    "version": 1
  },
  "userdoc": {
    "kind": "user",
    "methods": {},
    "version": 1
  },
  "storageLayout": {
    "storage": [
      {
        "astId": 110,
        "contract": "contracts/AuctionManager.sol:AuctionManager",
        "label": "_owner",
        "offset": 0,
        "slot": "0",
        "type": "t_address"
      },
      {
        "astId": 229,
        "contract": "contracts/AuctionManager.sol:AuctionManager",
        "label": "_status",
        "offset": 0,
        "slot": "1",
        "type": "t_uint256"
      },
      {
        "astId": 3123,
        "contract": "contracts/AuctionManager.sol:AuctionManager",
        "label": "auctionDuration",
        "offset": 0,
        "slot": "2",
        "type": "t_uint256"
      },
      {
        "astId": 3126,
        "contract": "contracts/AuctionManager.sol:AuctionManager",
        "label": "lowestHF",
        "offset": 0,
        "slot": "3",
        "type": "t_uint256"
      },
      {
        "astId": 3151,
        "contract": "contracts/AuctionManager.sol:AuctionManager",
        "label": "auctions",
        "offset": 0,
        "slot": "4",
        "type": "t_array(t_struct(auctionData)3147_storage)dyn_storage"
      },
      {
        "astId": 3153,
        "contract": "contracts/AuctionManager.sol:AuctionManager",
        "label": "vaultFactory",
        "offset": 0,
        "slot": "5",
        "type": "t_address"
      }
    ],
    "types": {
      "t_address": {
        "encoding": "inplace",
        "label": "address",
        "numberOfBytes": "20"
      },
      "t_array(t_address)dyn_storage": {
        "base": "t_address",
        "encoding": "dynamic_array",
        "label": "address[]",
        "numberOfBytes": "32"
      },
      "t_array(t_struct(auctionData)3147_storage)dyn_storage": {
        "base": "t_struct(auctionData)3147_storage",
        "encoding": "dynamic_array",
        "label": "struct AuctionManager.auctionData[]",
        "numberOfBytes": "32"
      },
      "t_array(t_uint256)dyn_storage": {
        "base": "t_uint256",
        "encoding": "dynamic_array",
        "label": "uint256[]",
        "numberOfBytes": "32"
      },
      "t_bool": {
        "encoding": "inplace",
        "label": "bool",
        "numberOfBytes": "1"
      },
      "t_struct(auctionData)3147_storage": {
        "encoding": "inplace",
        "label": "struct AuctionManager.auctionData",
        "members": [
          {
            "astId": 3128,
            "contract": "contracts/AuctionManager.sol:AuctionManager",
            "label": "originalDebt",
            "offset": 0,
            "slot": "0",
            "type": "t_uint256"
          },
          {
            "astId": 3130,
            "contract": "contracts/AuctionManager.sol:AuctionManager",
            "label": "lowestDebtToAuction",
            "offset": 0,
            "slot": "1",
            "type": "t_uint256"
          },
          {
            "astId": 3132,
            "contract": "contracts/AuctionManager.sol:AuctionManager",
            "label": "highestDebtToAuction",
            "offset": 0,
            "slot": "2",
            "type": "t_uint256"
          },
          {
            "astId": 3134,
            "contract": "contracts/AuctionManager.sol:AuctionManager",
            "label": "collateralsLength",
            "offset": 0,
            "slot": "3",
            "type": "t_uint256"
          },
          {
            "astId": 3137,
            "contract": "contracts/AuctionManager.sol:AuctionManager",
            "label": "collateral",
            "offset": 0,
            "slot": "4",
            "type": "t_array(t_address)dyn_storage"
          },
          {
            "astId": 3140,
            "contract": "contracts/AuctionManager.sol:AuctionManager",
            "label": "collateralAmount",
            "offset": 0,
            "slot": "5",
            "type": "t_array(t_uint256)dyn_storage"
          },
          {
            "astId": 3142,
            "contract": "contracts/AuctionManager.sol:AuctionManager",
            "label": "auctionStartTime",
            "offset": 0,
            "slot": "6",
            "type": "t_uint256"
          },
          {
            "astId": 3144,
            "contract": "contracts/AuctionManager.sol:AuctionManager",
            "label": "auctionEndTime",
            "offset": 0,
            "slot": "7",
            "type": "t_uint256"
          },
          {
            "astId": 3146,
            "contract": "contracts/AuctionManager.sol:AuctionManager",
            "label": "auctionEnded",
            "offset": 0,
            "slot": "8",
            "type": "t_bool"
          }
        ],
        "numberOfBytes": "288"
      },
      "t_uint256": {
        "encoding": "inplace",
        "label": "uint256",
        "numberOfBytes": "32"
      }
    }
  }
}