{
  "address": "0xA3ae4AC0598eD6ef25CB631a70381f5De23188bD",
  "abi": [
    {
      "inputs": [
        {
          "internalType": "address",
          "name": "_oracle",
          "type": "address"
        },
        {
          "internalType": "address",
          "name": "_token",
          "type": "address"
        }
      ],
      "stateMutability": "nonpayable",
      "type": "constructor"
    },
    {
      "anonymous": false,
      "inputs": [
        {
          "indexed": false,
          "internalType": "address",
          "name": "token",
          "type": "address"
        },
        {
          "indexed": false,
          "internalType": "uint256",
          "name": "price",
          "type": "uint256"
        },
        {
          "indexed": false,
          "internalType": "uint256",
          "name": "average",
          "type": "uint256"
        }
      ],
      "name": "PriceUpdate",
      "type": "event"
    },
    {
      "inputs": [],
      "name": "DECIMAL_PRECISION",
      "outputs": [
        {
          "internalType": "uint256",
          "name": "",
          "type": "uint256"
        }
      ],
      "stateMutability": "view",
      "type": "function"
    },
    {
      "inputs": [],
      "name": "LIQUIDATION_RESERVE",
      "outputs": [
        {
          "internalType": "uint256",
          "name": "",
          "type": "uint256"
        }
      ],
      "stateMutability": "view",
      "type": "function"
    },
    {
      "inputs": [],
      "name": "MAX_BORROWING_RATE",
      "outputs": [
        {
          "internalType": "uint256",
          "name": "",
          "type": "uint256"
        }
      ],
      "stateMutability": "view",
      "type": "function"
    },
    {
      "inputs": [],
      "name": "MAX_INT",
      "outputs": [
        {
          "internalType": "uint256",
          "name": "",
          "type": "uint256"
        }
      ],
      "stateMutability": "view",
      "type": "function"
    },
    {
      "inputs": [],
      "name": "MAX_REDEMPTION_RATE",
      "outputs": [
        {
          "internalType": "uint256",
          "name": "",
          "type": "uint256"
        }
      ],
      "stateMutability": "view",
      "type": "function"
    },
    {
      "inputs": [],
      "name": "PERCENT",
      "outputs": [
        {
          "internalType": "uint256",
          "name": "",
          "type": "uint256"
        }
      ],
      "stateMutability": "view",
      "type": "function"
    },
    {
      "inputs": [],
      "name": "PERCENT10",
      "outputs": [
        {
          "internalType": "uint256",
          "name": "",
          "type": "uint256"
        }
      ],
      "stateMutability": "view",
      "type": "function"
    },
    {
      "inputs": [],
      "name": "PERCENT_05",
      "outputs": [
        {
          "internalType": "uint256",
          "name": "",
          "type": "uint256"
        }
      ],
      "stateMutability": "view",
      "type": "function"
    },
    {
      "inputs": [],
      "name": "emitPriceSignal",
      "outputs": [],
      "stateMutability": "nonpayable",
      "type": "function"
    },
    {
      "inputs": [],
      "name": "oracle",
      "outputs": [
        {
          "internalType": "contract AggregatorV2V3Interface",
          "name": "",
          "type": "address"
        }
      ],
      "stateMutability": "view",
      "type": "function"
    },
    {
      "inputs": [],
      "name": "precision",
      "outputs": [
        {
          "internalType": "uint256",
          "name": "",
          "type": "uint256"
        }
      ],
      "stateMutability": "view",
      "type": "function"
    },
    {
      "inputs": [],
      "name": "price",
      "outputs": [
        {
          "internalType": "uint256",
          "name": "",
          "type": "uint256"
        }
      ],
      "stateMutability": "view",
      "type": "function"
    },
    {
      "inputs": [],
      "name": "pricePoint",
      "outputs": [
        {
          "internalType": "uint256",
          "name": "",
          "type": "uint256"
        }
      ],
      "stateMutability": "view",
      "type": "function"
    },
    {
      "inputs": [],
      "name": "token",
      "outputs": [
        {
          "internalType": "address",
          "name": "",
          "type": "address"
        }
      ],
      "stateMutability": "view",
      "type": "function"
    },
    {
      "inputs": [],
      "name": "updateThreshold",
      "outputs": [
        {
          "internalType": "uint256",
          "name": "",
          "type": "uint256"
        }
      ],
      "stateMutability": "view",
      "type": "function"
    }
  ],
  "transactionHash": "0xac092821cf379d709131d202cf885c8dfdb6925ac4d563c48ef8b99cef6bccf6",
  "args": [
    "0xfE4A8cc5b5B2366C1B58Bea3858e81843581b2F7",
    "0x2791Bca1f2de4661ED88A30C99A7a9449Aa84174"
  ],
  "numDeployments": 2,
  "solcInputHash": "b892ee72de355e77d964601f25dec4fe",
  "bytecode": "0x60e06040526201518060005534801561001757600080fd5b506040516108ac3803806108ac83398101604081905261003691610215565b6001600160a01b0382166100a05760405162461bcd60e51b815260206004820152602660248201527f653236333762205f6f7261636c65206d757374206e6f7420626520616464726560448201526507373203078360d41b60648201526084015b60405180910390fd5b6001600160a01b0381166101045760405162461bcd60e51b815260206004820152602560248201527f653236333762205f746f6b656e206d757374206e6f7420626520616464726573604482015264073203078360dc1b6064820152608401610097565b6001600160a01b0380821660a052821660808190526040805163313ce56760e01b815290516000929163313ce5679160048083019260209291908290030181865afa158015610157573d6000803e3d6000fd5b505050506040513d601f19601f8201168201806040525081019061017b9190610248565b905060008160ff16116101e25760405162461bcd60e51b815260206004820152602960248201527f65323633376220646563696d616c73206d757374206265206120706f736974696044820152683b3290373ab6b132b960b91b6064820152608401610097565b6101ed81600a61036e565b60c0525061037d915050565b80516001600160a01b038116811461021057600080fd5b919050565b6000806040838503121561022857600080fd5b610231836101f9565b915061023f602084016101f9565b90509250929050565b60006020828403121561025a57600080fd5b815160ff8116811461026b57600080fd5b9392505050565b634e487b7160e01b600052601160045260246000fd5b600181815b808511156102c35781600019048211156102a9576102a9610272565b808516156102b657918102915b93841c939080029061028d565b509250929050565b6000826102da57506001610368565b816102e757506000610368565b81600181146102fd576002811461030757610323565b6001915050610368565b60ff84111561031857610318610272565b50506001821b610368565b5060208310610133831016604e8410600b8410161715610346575081810a610368565b6103508383610288565b806000190482111561036457610364610272565b0290505b92915050565b600061026b60ff8416836102cb565b60805160a05160c0516104eb6103c1600039600081816101b901526102d00152600081816101e00152610337015260008181610123015261023a01526104eb6000f3fe608060405234801561001057600080fd5b50600436106100f55760003560e01c8063a20baee611610097578063ad09014d11610066578063ad09014d146101ac578063b85a8b2014610116578063d3b5dc3b146101b4578063fc0c546a146101db57600080fd5b8063a20baee61461016a578063ab96f86a14610192578063abdc55411461019c578063aceb2d04146101a457600080fd5b8063923c1eec116100d3578063923c1eec1461016a5780639407f5cb14610179578063a013991c14610182578063a035b1fe1461018a57600080fd5b8063098d3228146100fa5780634bb97042146101165780637dc0d1d01461011e575b600080fd5b61010360001981565b6040519081526020015b60405180910390f35b610103610202565b6101457f000000000000000000000000000000000000000000000000000000000000000081565b60405173ffffffffffffffffffffffffffffffffffffffff909116815260200161010d565b610103670de0b6b3a764000081565b61010360005481565b610103610224565b610103610233565b61019a610314565b005b61010361039d565b6101036103b2565b6101036103d3565b6101037f000000000000000000000000000000000000000000000000000000000000000081565b6101457f000000000000000000000000000000000000000000000000000000000000000081565b6064610217670de0b6b3a764000060016103f9565b6102219190610424565b81565b600061022e610233565b905090565b60008060007f000000000000000000000000000000000000000000000000000000000000000073ffffffffffffffffffffffffffffffffffffffff1663feaf968c6040518163ffffffff1660e01b815260040160a060405180830381865afa1580156102a3573d6000803e3d6000fd5b505050506040513d601f19601f820116820180604052508101906102c79190610465565b509350509250507f0000000000000000000000000000000000000000000000000000000000000000670de0b6b3a76400008361030391906103f9565b61030d9190610424565b9250505090565b7fac7b695c6873047ad50339f850f4ae3f6b8f6ef63ed1a8b22f7d36a1c6bd46f37f000000000000000000000000000000000000000000000000000000000000000061035e610233565b610366610233565b6040805173ffffffffffffffffffffffffffffffffffffffff909416845260208401929092529082015260600160405180910390a1565b6064610217670de0b6b3a764000060056103f9565b600260646103c9670de0b6b3a764000060016103f9565b6102179190610424565b60646103e8670de0b6b3a764000060016103f9565b6103f29190610424565b61022190600a5b808202811582820484141761041e57634e487b7160e01b600052601160045260246000fd5b92915050565b60008261044157634e487b7160e01b600052601260045260246000fd5b500490565b805169ffffffffffffffffffff8116811461046057600080fd5b919050565b600080600080600060a0868803121561047d57600080fd5b61048686610446565b94506020860151935060408601519250606086015191506104a960808701610446565b9050929550929590935056fea26469706673582212203046675231d4ddb3469be58aca5aff737260a2643ca33af5ecb563411069930a64736f6c63430008130033",
  "devdoc": {
    "kind": "dev",
    "methods": {},
    "version": 1
  },
  "userdoc": {
    "kind": "user",
    "methods": {},
    "version": 1
  },
  "storageLayout": {
    "storage": [
      {
        "astId": 259,
        "contract": "contracts/oracles/ChainlinkPriceFeed.sol:ChainlinkPriceFeed",
        "label": "updateThreshold",
        "offset": 0,
        "slot": "0",
        "type": "t_uint256"
      }
    ],
    "types": {
      "t_uint256": {
        "encoding": "inplace",
        "label": "uint256",
        "numberOfBytes": "32"
      }
    }
  }
}