{
  "address": "0x05b9E51C8C93578eBB8cc26E856ED543d574fe4c",
  "abi": [
    {
      "inputs": [
        {
          "internalType": "address",
          "name": "_priceFeed",
          "type": "address"
        },
        {
          "internalType": "address",
          "name": "_conversionPriceFeed",
          "type": "address"
        },
        {
          "internalType": "address",
          "name": "_token",
          "type": "address"
        }
      ],
      "stateMutability": "nonpayable",
      "type": "constructor"
    },
    {
      "anonymous": false,
      "inputs": [
        {
          "indexed": false,
          "internalType": "address",
          "name": "token",
          "type": "address"
        },
        {
          "indexed": false,
          "internalType": "uint256",
          "name": "price",
          "type": "uint256"
        },
        {
          "indexed": false,
          "internalType": "uint256",
          "name": "average",
          "type": "uint256"
        }
      ],
      "name": "PriceUpdate",
      "type": "event"
    },
    {
      "inputs": [],
      "name": "DECIMAL_PRECISION",
      "outputs": [
        {
          "internalType": "uint256",
          "name": "",
          "type": "uint256"
        }
      ],
      "stateMutability": "view",
      "type": "function"
    },
    {
      "inputs": [],
      "name": "LIQUIDATION_RESERVE",
      "outputs": [
        {
          "internalType": "uint256",
          "name": "",
          "type": "uint256"
        }
      ],
      "stateMutability": "view",
      "type": "function"
    },
    {
      "inputs": [],
      "name": "MAX_BORROWING_RATE",
      "outputs": [
        {
          "internalType": "uint256",
          "name": "",
          "type": "uint256"
        }
      ],
      "stateMutability": "view",
      "type": "function"
    },
    {
      "inputs": [],
      "name": "MAX_INT",
      "outputs": [
        {
          "internalType": "uint256",
          "name": "",
          "type": "uint256"
        }
      ],
      "stateMutability": "view",
      "type": "function"
    },
    {
      "inputs": [],
      "name": "MAX_REDEMPTION_RATE",
      "outputs": [
        {
          "internalType": "uint256",
          "name": "",
          "type": "uint256"
        }
      ],
      "stateMutability": "view",
      "type": "function"
    },
    {
      "inputs": [],
      "name": "PERCENT",
      "outputs": [
        {
          "internalType": "uint256",
          "name": "",
          "type": "uint256"
        }
      ],
      "stateMutability": "view",
      "type": "function"
    },
    {
      "inputs": [],
      "name": "PERCENT10",
      "outputs": [
        {
          "internalType": "uint256",
          "name": "",
          "type": "uint256"
        }
      ],
      "stateMutability": "view",
      "type": "function"
    },
    {
      "inputs": [],
      "name": "PERCENT_05",
      "outputs": [
        {
          "internalType": "uint256",
          "name": "",
          "type": "uint256"
        }
      ],
      "stateMutability": "view",
      "type": "function"
    },
    {
      "inputs": [],
      "name": "conversionPriceFeed",
      "outputs": [
        {
          "internalType": "contract IPriceFeed",
          "name": "",
          "type": "address"
        }
      ],
      "stateMutability": "view",
      "type": "function"
    },
    {
      "inputs": [],
      "name": "emitPriceSignal",
      "outputs": [],
      "stateMutability": "nonpayable",
      "type": "function"
    },
    {
      "inputs": [],
      "name": "price",
      "outputs": [
        {
          "internalType": "uint256",
          "name": "",
          "type": "uint256"
        }
      ],
      "stateMutability": "view",
      "type": "function"
    },
    {
      "inputs": [],
      "name": "priceFeed",
      "outputs": [
        {
          "internalType": "contract IPriceFeed",
          "name": "",
          "type": "address"
        }
      ],
      "stateMutability": "view",
      "type": "function"
    },
    {
      "inputs": [],
      "name": "pricePoint",
      "outputs": [
        {
          "internalType": "uint256",
          "name": "",
          "type": "uint256"
        }
      ],
      "stateMutability": "view",
      "type": "function"
    },
    {
      "inputs": [],
      "name": "token",
      "outputs": [
        {
          "internalType": "address",
          "name": "",
          "type": "address"
        }
      ],
      "stateMutability": "view",
      "type": "function"
    }
  ],
  "transactionHash": "0xdbb493c3ec20963c0e6825587966165e1bcdba4105280b191ebba83cbf752085",
  "args": [
    "0xA3ae4AC0598eD6ef25CB631a70381f5De23188bD",
    "0xfD8AeB22f607F4a270726Ae3717F8Ee7E08B476A",
    "0x2791Bca1f2de4661ED88A30C99A7a9449Aa84174"
  ],
  "numDeployments": 8,
  "solcInputHash": "b892ee72de355e77d964601f25dec4fe",
  "bytecode": "0x60e060405234801561001057600080fd5b506040516106b53803806106b583398101604081905261002f91610151565b6001600160a01b03831661009c5760405162461bcd60e51b815260206004820152602960248201527f653236333762205f707269636546656564206d757374206e6f7420626520616460448201526806472657373203078360bc1b60648201526084015b60405180910390fd5b6001600160a01b0382166101185760405162461bcd60e51b815260206004820152603360248201527f653236333762205f636f6e76657273696f6e507269636546656564206d75737460448201527f206e6f74206265206164647265737320307830000000000000000000000000006064820152608401610093565b6001600160a01b0392831660805290821660a0521660c052610194565b80516001600160a01b038116811461014c57600080fd5b919050565b60008060006060848603121561016657600080fd5b61016f84610135565b925061017d60208501610135565b915061018b60408501610135565b90509250925092565b60805160a05160c0516104dd6101d8600039600081816101cc015261037f015260008181610164015261022301526000818161011801526102bb01526104dd6000f3fe608060405234801561001057600080fd5b50600436106100ea5760003560e01c8063a20baee61161008c578063aceb2d0411610066578063aceb2d04146101b7578063ad09014d146101bf578063b85a8b201461010b578063fc0c546a146101c757600080fd5b8063a20baee614610186578063ab96f86a146101a5578063abdc5541146101af57600080fd5b806385c30bf6116100c857806385c30bf61461015f578063923c1eec14610186578063a013991c14610195578063a035b1fe1461019d57600080fd5b8063098d3228146100ef5780634bb970421461010b578063741bef1a14610113575b600080fd5b6100f860001981565b6040519081526020015b60405180910390f35b6100f86101ee565b61013a7f000000000000000000000000000000000000000000000000000000000000000081565b60405173ffffffffffffffffffffffffffffffffffffffff9091168152602001610102565b61013a7f000000000000000000000000000000000000000000000000000000000000000081565b6100f8670de0b6b3a764000081565b6100f8610210565b6100f861021f565b6101ad61035c565b005b6100f86103e5565b6100f86103fa565b6100f861041b565b61013a7f000000000000000000000000000000000000000000000000000000000000000081565b6064610203670de0b6b3a76400006001610441565b61020d919061046c565b81565b600061021a61021f565b905090565b60007f000000000000000000000000000000000000000000000000000000000000000073ffffffffffffffffffffffffffffffffffffffff1663a035b1fe6040518163ffffffff1660e01b8152600401602060405180830381865afa15801561028c573d6000803e3d6000fd5b505050506040513d601f19601f820116820180604052508101906102b0919061048e565b670de0b6b3a76400007f000000000000000000000000000000000000000000000000000000000000000073ffffffffffffffffffffffffffffffffffffffff1663a035b1fe6040518163ffffffff1660e01b8152600401602060405180830381865afa158015610324573d6000803e3d6000fd5b505050506040513d601f19601f82011682018060405250810190610348919061048e565b6103529190610441565b61021a919061046c565b7fac7b695c6873047ad50339f850f4ae3f6b8f6ef63ed1a8b22f7d36a1c6bd46f37f00000000000000000000000000000000000000000000000000000000000000006103a661021f565b6103ae61021f565b6040805173ffffffffffffffffffffffffffffffffffffffff909416845260208401929092529082015260600160405180910390a1565b6064610203670de0b6b3a76400006005610441565b60026064610411670de0b6b3a76400006001610441565b610203919061046c565b6064610430670de0b6b3a76400006001610441565b61043a919061046c565b61020d90600a5b808202811582820484141761046657634e487b7160e01b600052601160045260246000fd5b92915050565b60008261048957634e487b7160e01b600052601260045260246000fd5b500490565b6000602082840312156104a057600080fd5b505191905056fea2646970667358221220ad9d242bdf47fda170183d3f863fb323f1bcc618bfe865e41e74f159da6b0cdf64736f6c63430008130033",
  "devdoc": {
    "kind": "dev",
    "methods": {},
    "version": 1
  },
  "userdoc": {
    "kind": "user",
    "methods": {},
    "version": 1
  },
  "storageLayout": {
    "storage": [],
    "types": null
  }
}