{
  "address": "0x0623281284A34DC0eEB3Dd3b6aE7eA09175e8a40",
  "abi": [
    {
      "inputs": [
        {
          "internalType": "address",
          "name": "_token",
          "type": "address"
        }
      ],
      "stateMutability": "nonpayable",
      "type": "constructor"
    },
    {
      "anonymous": false,
      "inputs": [
        {
          "indexed": false,
          "internalType": "address",
          "name": "token",
          "type": "address"
        },
        {
          "indexed": false,
          "internalType": "uint256",
          "name": "price",
          "type": "uint256"
        },
        {
          "indexed": false,
          "internalType": "uint256",
          "name": "average",
          "type": "uint256"
        }
      ],
      "name": "PriceUpdate",
      "type": "event"
    },
    {
      "inputs": [],
      "name": "DAI",
      "outputs": [
        {
          "internalType": "address",
          "name": "",
          "type": "address"
        }
      ],
      "stateMutability": "view",
      "type": "function"
    },
    {
      "inputs": [],
      "name": "DECIMAL_PRECISION",
      "outputs": [
        {
          "internalType": "uint256",
          "name": "",
          "type": "uint256"
        }
      ],
      "stateMutability": "view",
      "type": "function"
    },
    {
      "inputs": [],
      "name": "LIQUIDATION_RESERVE",
      "outputs": [
        {
          "internalType": "uint256",
          "name": "",
          "type": "uint256"
        }
      ],
      "stateMutability": "view",
      "type": "function"
    },
    {
      "inputs": [],
      "name": "MAX_BORROWING_RATE",
      "outputs": [
        {
          "internalType": "uint256",
          "name": "",
          "type": "uint256"
        }
      ],
      "stateMutability": "view",
      "type": "function"
    },
    {
      "inputs": [],
      "name": "MAX_INT",
      "outputs": [
        {
          "internalType": "uint256",
          "name": "",
          "type": "uint256"
        }
      ],
      "stateMutability": "view",
      "type": "function"
    },
    {
      "inputs": [],
      "name": "MAX_REDEMPTION_RATE",
      "outputs": [
        {
          "internalType": "uint256",
          "name": "",
          "type": "uint256"
        }
      ],
      "stateMutability": "view",
      "type": "function"
    },
    {
      "inputs": [],
      "name": "PAXG",
      "outputs": [
        {
          "internalType": "address",
          "name": "",
          "type": "address"
        }
      ],
      "stateMutability": "view",
      "type": "function"
    },
    {
      "inputs": [],
      "name": "PERCENT",
      "outputs": [
        {
          "internalType": "uint256",
          "name": "",
          "type": "uint256"
        }
      ],
      "stateMutability": "view",
      "type": "function"
    },
    {
      "inputs": [],
      "name": "PERCENT10",
      "outputs": [
        {
          "internalType": "uint256",
          "name": "",
          "type": "uint256"
        }
      ],
      "stateMutability": "view",
      "type": "function"
    },
    {
      "inputs": [],
      "name": "PERCENT_05",
      "outputs": [
        {
          "internalType": "uint256",
          "name": "",
          "type": "uint256"
        }
      ],
      "stateMutability": "view",
      "type": "function"
    },
    {
      "inputs": [],
      "name": "QNT",
      "outputs": [
        {
          "internalType": "address",
          "name": "",
          "type": "address"
        }
      ],
      "stateMutability": "view",
      "type": "function"
    },
    {
      "inputs": [],
      "name": "USDC",
      "outputs": [
        {
          "internalType": "address",
          "name": "",
          "type": "address"
        }
      ],
      "stateMutability": "view",
      "type": "function"
    },
    {
      "inputs": [],
      "name": "WETH",
      "outputs": [
        {
          "internalType": "address",
          "name": "",
          "type": "address"
        }
      ],
      "stateMutability": "view",
      "type": "function"
    },
    {
      "inputs": [],
      "name": "WMATIC",
      "outputs": [
        {
          "internalType": "address",
          "name": "",
          "type": "address"
        }
      ],
      "stateMutability": "view",
      "type": "function"
    },
    {
      "inputs": [],
      "name": "conversionPriceFeed",
      "outputs": [
        {
          "internalType": "contract IPriceFeed",
          "name": "",
          "type": "address"
        }
      ],
      "stateMutability": "view",
      "type": "function"
    },
    {
      "inputs": [],
      "name": "emitPriceSignal",
      "outputs": [],
      "stateMutability": "nonpayable",
      "type": "function"
    },
    {
      "inputs": [],
      "name": "price",
      "outputs": [
        {
          "internalType": "uint256",
          "name": "",
          "type": "uint256"
        }
      ],
      "stateMutability": "view",
      "type": "function"
    },
    {
      "inputs": [],
      "name": "priceFeed",
      "outputs": [
        {
          "internalType": "contract IPriceFeed",
          "name": "",
          "type": "address"
        }
      ],
      "stateMutability": "view",
      "type": "function"
    },
    {
      "inputs": [],
      "name": "pricePoint",
      "outputs": [
        {
          "internalType": "uint256",
          "name": "",
          "type": "uint256"
        }
      ],
      "stateMutability": "view",
      "type": "function"
    },
    {
      "inputs": [],
      "name": "token",
      "outputs": [
        {
          "internalType": "address",
          "name": "",
          "type": "address"
        }
      ],
      "stateMutability": "view",
      "type": "function"
    }
  ],
  "transactionHash": "0x744420c7ddbff64ad690093884f4f468a729c244bab187601ae39ecba590f268",
  "args": [
    "0x2791Bca1f2de4661ED88A30C99A7a9449Aa84174"
  ],
  "numDeployments": 6,
  "solcInputHash": "d2033b55f09865c5734883cb55f4e805",
  "bytecode": "0x60e06040526000608081905260a05234801561001a57600080fd5b506040516107a13803806107a18339810160408190526100399161004a565b6001600160a01b031660c05261007a565b60006020828403121561005c57600080fd5b81516001600160a01b038116811461007357600080fd5b9392505050565b60805160a05160c0516106c76100da600039600081816102e30152818161035b015281816103b80152818161041601528181610473015281816104d10152818161052f015261058f0152600061020f015260006101cd01526106c76000f3fe608060405234801561001057600080fd5b506004361061016c5760003560e01c8063a035b1fe116100cd578063ad09014d11610081578063b85a8b2011610066578063b85a8b201461018d578063e0bab4c4146102c3578063fc0c546a146102de57600080fd5b8063ad09014d146102a0578063ad5c4648146102a857600080fd5b8063ab96f86a116100b2578063ab96f86a14610286578063abdc554114610290578063aceb2d041461029857600080fd5b8063a035b1fe1461027e578063a20baee61461024c57600080fd5b806385c30bf611610124578063923c1eec11610109578063923c1eec1461024c5780639ca6da2e1461025b578063a013991c1461027657600080fd5b806385c30bf61461020a57806389a302711461023157600080fd5b80634d95cad9116101555780634d95cad914610195578063741bef1a146101c8578063834d4cd5146101ef57600080fd5b8063098d3228146101715780634bb970421461018d575b600080fd5b61017a60001981565b6040519081526020015b60405180910390f35b61017a610305565b6101b0730d500b1d8e8ef31e21c99d1db9a6444d3adf127081565b6040516001600160a01b039091168152602001610184565b6101b07f000000000000000000000000000000000000000000000000000000000000000081565b6101b07336b77a184be8ee56f5e81c56727b20647a42e28e81565b6101b07f000000000000000000000000000000000000000000000000000000000000000081565b6101b0732791bca1f2de4661ed88a30c99a7a9449aa8417481565b61017a670de0b6b3a764000081565b6101b073553d3d295e0f695b9228246232edf400ed3560b581565b61017a610327565b61017a610336565b61028e61056c565b005b61017a6105e8565b61017a6105fd565b61017a61061e565b6101b0737ceb23fd6bc0add59e62ac25578270cff1b9f61981565b6101b0738f3cf7ad23cd3cadbd9735aff958023239c6a06381565b6101b07f000000000000000000000000000000000000000000000000000000000000000081565b606461031a670de0b6b3a76400006001610644565b610324919061066f565b81565b6000610331610336565b905090565b60007fffffffffffffffffffffffff70c30852dc32c3524268ca5006a7fdcdc6395f9d7f00000000000000000000000000000000000000000000000000000000000000006001600160a01b0316016103955750670ceec1fbf31fac4990565b7fffffffffffffffffffffffff8314dc02943f522a619d53daa87d8f300e4609e77f00000000000000000000000000000000000000000000000000000000000000006001600160a01b0316016103f35750686046de57788c780ea890565b7ffffffffffffffffffffffffff2aff4e271710ce1de3662e24659bbb2c520ed907f00000000000000000000000000000000000000000000000000000000000000006001600160a01b0316016104505750670934f220999580a990565b7fffffffffffffffffffffffffc94885e7b41711a90a17e3a98d84df9b85bd1d727f00000000000000000000000000000000000000000000000000000000000000006001600160a01b0316016104ae57506804129aa821054464a390565b7fffffffffffffffffffffffffaac2c2d6a1f096a46dd7db9dcd120bff12ca9f4b7f00000000000000000000000000000000000000000000000000000000000000006001600160a01b03160161050c5750686318e0c657ac45334c90565b7fffffffffffffffffffffffffd86e435e0d21b99e12775cf3665856bb6557be8c7f00000000000000000000000000000000000000000000000000000000000000006001600160a01b0316016105695750670cfd26d5da159c5290565b90565b7fac7b695c6873047ad50339f850f4ae3f6b8f6ef63ed1a8b22f7d36a1c6bd46f37f00000000000000000000000000000000000000000000000000000000000000006105b6610336565b6105be610336565b604080516001600160a01b03909416845260208401929092529082015260600160405180910390a1565b606461031a670de0b6b3a76400006005610644565b60026064610614670de0b6b3a76400006001610644565b61031a919061066f565b6064610633670de0b6b3a76400006001610644565b61063d919061066f565b61032490600a5b808202811582820484141761066957634e487b7160e01b600052601160045260246000fd5b92915050565b60008261068c57634e487b7160e01b600052601260045260246000fd5b50049056fea264697066735822122000d81d9f2e846607ca1bda7c9f77281bea7f718f2f386b5637eb3c228e5092e864736f6c63430008130033",
  "devdoc": {
    "kind": "dev",
    "methods": {},
    "version": 1
  },
  "userdoc": {
    "kind": "user",
    "methods": {},
    "version": 1
  },
  "storageLayout": {
    "storage": [],
    "types": null
  }
}