{
  "address": "0x5223eA36c7b4529f5408FCD8636592C64289440D",
  "abi": [
    {
      "inputs": [
        {
          "internalType": "address",
          "name": "_factory",
          "type": "address"
        },
        {
          "internalType": "address",
          "name": "_a3aToken",
          "type": "address"
        }
      ],
      "stateMutability": "nonpayable",
      "type": "constructor"
    },
    {
      "anonymous": false,
      "inputs": [
        {
          "indexed": false,
          "internalType": "uint256",
          "name": "_newAmount",
          "type": "uint256"
        }
      ],
      "name": "A3APerMinuteUpdated",
      "type": "event"
    },
    {
      "anonymous": false,
      "inputs": [
        {
          "indexed": false,
          "internalType": "uint256",
          "name": "issuance",
          "type": "uint256"
        },
        {
          "indexed": false,
          "internalType": "uint256",
          "name": "_totalA3ARewardsLeft",
          "type": "uint256"
        }
      ],
      "name": "A3ARewardIssue",
      "type": "event"
    },
    {
      "anonymous": false,
      "inputs": [
        {
          "indexed": false,
          "internalType": "address",
          "name": "_contributor",
          "type": "address"
        },
        {
          "indexed": false,
          "internalType": "uint256",
          "name": "_amount",
          "type": "uint256"
        }
      ],
      "name": "A3ARewardRedeemed",
      "type": "event"
    },
    {
      "anonymous": false,
      "inputs": [
        {
          "indexed": false,
          "internalType": "address",
          "name": "_contributor",
          "type": "address"
        },
        {
          "indexed": false,
          "internalType": "address",
          "name": "_tokenAddress",
          "type": "address"
        },
        {
          "indexed": false,
          "internalType": "uint256",
          "name": "_amount",
          "type": "uint256"
        }
      ],
      "name": "CollateralRewardRedeemed",
      "type": "event"
    },
    {
      "anonymous": false,
      "inputs": [
        {
          "indexed": false,
          "internalType": "address",
          "name": "_contributor",
          "type": "address"
        },
        {
          "indexed": false,
          "internalType": "uint256",
          "name": "_amount",
          "type": "uint256"
        }
      ],
      "name": "Deposit",
      "type": "event"
    },
    {
      "anonymous": false,
      "inputs": [
        {
          "indexed": true,
          "internalType": "address",
          "name": "_depositor",
          "type": "address"
        },
        {
          "indexed": false,
          "internalType": "uint256",
          "name": "_P",
          "type": "uint256"
        },
        {
          "indexed": false,
          "internalType": "uint256",
          "name": "_G",
          "type": "uint256"
        },
        {
          "indexed": false,
          "internalType": "uint256",
          "name": "_newDepositValue",
          "type": "uint256"
        }
      ],
      "name": "DepositSnapshotUpdated",
      "type": "event"
    },
    {
      "anonymous": false,
      "inputs": [
        {
          "indexed": false,
          "internalType": "uint128",
          "name": "_currentEpoch",
          "type": "uint128"
        }
      ],
      "name": "EpochUpdated",
      "type": "event"
    },
    {
      "anonymous": false,
      "inputs": [
        {
          "indexed": false,
          "internalType": "uint256",
          "name": "_G",
          "type": "uint256"
        },
        {
          "indexed": false,
          "internalType": "uint128",
          "name": "_epoch",
          "type": "uint128"
        },
        {
          "indexed": false,
          "internalType": "uint128",
          "name": "_scale",
          "type": "uint128"
        }
      ],
      "name": "G_Updated",
      "type": "event"
    },
    {
      "anonymous": false,
      "inputs": [
        {
          "indexed": true,
          "internalType": "address",
          "name": "previousOwner",
          "type": "address"
        },
        {
          "indexed": true,
          "internalType": "address",
          "name": "newOwner",
          "type": "address"
        }
      ],
      "name": "OwnershipTransferred",
      "type": "event"
    },
    {
      "anonymous": false,
      "inputs": [
        {
          "indexed": false,
          "internalType": "uint256",
          "name": "_P",
          "type": "uint256"
        }
      ],
      "name": "P_Updated",
      "type": "event"
    },
    {
      "anonymous": false,
      "inputs": [
        {
          "indexed": false,
          "internalType": "address",
          "name": "_tokenAddress",
          "type": "address"
        },
        {
          "indexed": false,
          "internalType": "uint256",
          "name": "_S",
          "type": "uint256"
        },
        {
          "indexed": false,
          "internalType": "uint128",
          "name": "_epoch",
          "type": "uint128"
        },
        {
          "indexed": false,
          "internalType": "uint128",
          "name": "_scale",
          "type": "uint128"
        }
      ],
      "name": "S_Updated",
      "type": "event"
    },
    {
      "anonymous": false,
      "inputs": [
        {
          "indexed": false,
          "internalType": "uint128",
          "name": "_currentScale",
          "type": "uint128"
        }
      ],
      "name": "ScaleUpdated",
      "type": "event"
    },
    {
      "anonymous": false,
      "inputs": [
        {
          "indexed": false,
          "internalType": "uint256",
          "name": "_newAmount",
          "type": "uint256"
        }
      ],
      "name": "TotalA3ARewardsUpdated",
      "type": "event"
    },
    {
      "anonymous": false,
      "inputs": [
        {
          "indexed": false,
          "internalType": "uint256",
          "name": "_newValue",
          "type": "uint256"
        }
      ],
      "name": "TotalDepositUpdated",
      "type": "event"
    },
    {
      "anonymous": false,
      "inputs": [
        {
          "indexed": false,
          "internalType": "address",
          "name": "_contributor",
          "type": "address"
        },
        {
          "indexed": false,
          "internalType": "uint256",
          "name": "_amount",
          "type": "uint256"
        }
      ],
      "name": "Withdraw",
      "type": "event"
    },
    {
      "inputs": [],
      "name": "DECIMAL_PRECISION",
      "outputs": [
        {
          "internalType": "uint256",
          "name": "",
          "type": "uint256"
        }
      ],
      "stateMutability": "view",
      "type": "function"
    },
    {
      "inputs": [],
      "name": "LIQUIDATION_RESERVE",
      "outputs": [
        {
          "internalType": "uint256",
          "name": "",
          "type": "uint256"
        }
      ],
      "stateMutability": "view",
      "type": "function"
    },
    {
      "inputs": [],
      "name": "MAX_BORROWING_RATE",
      "outputs": [
        {
          "internalType": "uint256",
          "name": "",
          "type": "uint256"
        }
      ],
      "stateMutability": "view",
      "type": "function"
    },
    {
      "inputs": [],
      "name": "MAX_INT",
      "outputs": [
        {
          "internalType": "uint256",
          "name": "",
          "type": "uint256"
        }
      ],
      "stateMutability": "view",
      "type": "function"
    },
    {
      "inputs": [],
      "name": "MAX_REDEMPTION_RATE",
      "outputs": [
        {
          "internalType": "uint256",
          "name": "",
          "type": "uint256"
        }
      ],
      "stateMutability": "view",
      "type": "function"
    },
    {
      "inputs": [],
      "name": "P",
      "outputs": [
        {
          "internalType": "uint256",
          "name": "",
          "type": "uint256"
        }
      ],
      "stateMutability": "view",
      "type": "function"
    },
    {
      "inputs": [],
      "name": "PERCENT",
      "outputs": [
        {
          "internalType": "uint256",
          "name": "",
          "type": "uint256"
        }
      ],
      "stateMutability": "view",
      "type": "function"
    },
    {
      "inputs": [],
      "name": "PERCENT10",
      "outputs": [
        {
          "internalType": "uint256",
          "name": "",
          "type": "uint256"
        }
      ],
      "stateMutability": "view",
      "type": "function"
    },
    {
      "inputs": [],
      "name": "PERCENT_05",
      "outputs": [
        {
          "internalType": "uint256",
          "name": "",
          "type": "uint256"
        }
      ],
      "stateMutability": "view",
      "type": "function"
    },
    {
      "inputs": [],
      "name": "SCALE_FACTOR",
      "outputs": [
        {
          "internalType": "uint256",
          "name": "",
          "type": "uint256"
        }
      ],
      "stateMutability": "view",
      "type": "function"
    },
    {
      "inputs": [],
      "name": "SECONDS_IN_ONE_MINUTE",
      "outputs": [
        {
          "internalType": "uint256",
          "name": "",
          "type": "uint256"
        }
      ],
      "stateMutability": "view",
      "type": "function"
    },
    {
      "inputs": [],
      "name": "a3aPerMinute",
      "outputs": [
        {
          "internalType": "uint256",
          "name": "",
          "type": "uint256"
        }
      ],
      "stateMutability": "view",
      "type": "function"
    },
    {
      "inputs": [],
      "name": "a3aToken",
      "outputs": [
        {
          "internalType": "contract IERC20",
          "name": "",
          "type": "address"
        }
      ],
      "stateMutability": "view",
      "type": "function"
    },
    {
      "inputs": [
        {
          "internalType": "address",
          "name": "",
          "type": "address"
        }
      ],
      "name": "collateralToLastErrorOffset",
      "outputs": [
        {
          "internalType": "uint256",
          "name": "",
          "type": "uint256"
        }
      ],
      "stateMutability": "view",
      "type": "function"
    },
    {
      "inputs": [],
      "name": "currentEpoch",
      "outputs": [
        {
          "internalType": "uint128",
          "name": "",
          "type": "uint128"
        }
      ],
      "stateMutability": "view",
      "type": "function"
    },
    {
      "inputs": [],
      "name": "currentScale",
      "outputs": [
        {
          "internalType": "uint128",
          "name": "",
          "type": "uint128"
        }
      ],
      "stateMutability": "view",
      "type": "function"
    },
    {
      "inputs": [
        {
          "internalType": "uint256",
          "name": "_amount",
          "type": "uint256"
        }
      ],
      "name": "deposit",
      "outputs": [],
      "stateMutability": "nonpayable",
      "type": "function"
    },
    {
      "inputs": [
        {
          "internalType": "address",
          "name": "",
          "type": "address"
        }
      ],
      "name": "depositSnapshots",
      "outputs": [
        {
          "internalType": "uint256",
          "name": "P",
          "type": "uint256"
        },
        {
          "internalType": "uint256",
          "name": "G",
          "type": "uint256"
        },
        {
          "internalType": "uint128",
          "name": "scale",
          "type": "uint128"
        },
        {
          "internalType": "uint128",
          "name": "epoch",
          "type": "uint128"
        }
      ],
      "stateMutability": "view",
      "type": "function"
    },
    {
      "inputs": [
        {
          "internalType": "address",
          "name": "",
          "type": "address"
        }
      ],
      "name": "deposits",
      "outputs": [
        {
          "internalType": "uint256",
          "name": "",
          "type": "uint256"
        }
      ],
      "stateMutability": "view",
      "type": "function"
    },
    {
      "inputs": [
        {
          "internalType": "uint128",
          "name": "",
          "type": "uint128"
        },
        {
          "internalType": "uint128",
          "name": "",
          "type": "uint128"
        }
      ],
      "name": "epochToScaleToG",
      "outputs": [
        {
          "internalType": "uint256",
          "name": "",
          "type": "uint256"
        }
      ],
      "stateMutability": "view",
      "type": "function"
    },
    {
      "inputs": [
        {
          "internalType": "uint128",
          "name": "",
          "type": "uint128"
        },
        {
          "internalType": "uint128",
          "name": "",
          "type": "uint128"
        },
        {
          "internalType": "uint256",
          "name": "",
          "type": "uint256"
        }
      ],
      "name": "epochToScaleToTokenToSum",
      "outputs": [
        {
          "internalType": "address",
          "name": "tokenAddress",
          "type": "address"
        },
        {
          "internalType": "uint256",
          "name": "S_value",
          "type": "uint256"
        }
      ],
      "stateMutability": "view",
      "type": "function"
    },
    {
      "inputs": [],
      "name": "factory",
      "outputs": [
        {
          "internalType": "contract IVaultFactory",
          "name": "",
          "type": "address"
        }
      ],
      "stateMutability": "view",
      "type": "function"
    },
    {
      "inputs": [
        {
          "internalType": "address",
          "name": "_token",
          "type": "address"
        },
        {
          "internalType": "address",
          "name": "_depositor",
          "type": "address"
        }
      ],
      "name": "getCollateralReward",
      "outputs": [
        {
          "internalType": "uint256",
          "name": "",
          "type": "uint256"
        }
      ],
      "stateMutability": "view",
      "type": "function"
    },
    {
      "inputs": [
        {
          "internalType": "address",
          "name": "_depositor",
          "type": "address"
        }
      ],
      "name": "getDepositorA3AGain",
      "outputs": [
        {
          "internalType": "uint256",
          "name": "",
          "type": "uint256"
        }
      ],
      "stateMutability": "view",
      "type": "function"
    },
    {
      "inputs": [
        {
          "internalType": "address",
          "name": "staker",
          "type": "address"
        }
      ],
      "name": "getWithdrawableDeposit",
      "outputs": [
        {
          "internalType": "uint256",
          "name": "",
          "type": "uint256"
        }
      ],
      "stateMutability": "view",
      "type": "function"
    },
    {
      "inputs": [],
      "name": "lastA3AError",
      "outputs": [
        {
          "internalType": "uint256",
          "name": "",
          "type": "uint256"
        }
      ],
      "stateMutability": "view",
      "type": "function"
    },
    {
      "inputs": [],
      "name": "lastStableCoinLossErrorOffset",
      "outputs": [
        {
          "internalType": "uint256",
          "name": "",
          "type": "uint256"
        }
      ],
      "stateMutability": "view",
      "type": "function"
    },
    {
      "inputs": [],
      "name": "latestA3ARewardTime",
      "outputs": [
        {
          "internalType": "uint256",
          "name": "",
          "type": "uint256"
        }
      ],
      "stateMutability": "view",
      "type": "function"
    },
    {
      "inputs": [],
      "name": "liquidate",
      "outputs": [],
      "stateMutability": "nonpayable",
      "type": "function"
    },
    {
      "inputs": [],
      "name": "owner",
      "outputs": [
        {
          "internalType": "address",
          "name": "",
          "type": "address"
        }
      ],
      "stateMutability": "view",
      "type": "function"
    },
    {
      "inputs": [],
      "name": "redeemReward",
      "outputs": [],
      "stateMutability": "nonpayable",
      "type": "function"
    },
    {
      "inputs": [],
      "name": "renounceOwnership",
      "outputs": [],
      "stateMutability": "nonpayable",
      "type": "function"
    },
    {
      "inputs": [],
      "name": "setA3AAmountForRewards",
      "outputs": [],
      "stateMutability": "nonpayable",
      "type": "function"
    },
    {
      "inputs": [
        {
          "internalType": "uint256",
          "name": "_a3aPerMinute",
          "type": "uint256"
        }
      ],
      "name": "setA3APerMinute",
      "outputs": [],
      "stateMutability": "nonpayable",
      "type": "function"
    },
    {
      "inputs": [
        {
          "internalType": "address",
          "name": "_factory",
          "type": "address"
        }
      ],
      "name": "setVaultFactory",
      "outputs": [],
      "stateMutability": "nonpayable",
      "type": "function"
    },
    {
      "inputs": [],
      "name": "stableCoin",
      "outputs": [
        {
          "internalType": "contract IMintableToken",
          "name": "",
          "type": "address"
        }
      ],
      "stateMutability": "view",
      "type": "function"
    },
    {
      "inputs": [],
      "name": "totalA3ARewardsLeft",
      "outputs": [
        {
          "internalType": "uint256",
          "name": "",
          "type": "uint256"
        }
      ],
      "stateMutability": "view",
      "type": "function"
    },
    {
      "inputs": [],
      "name": "totalDeposit",
      "outputs": [
        {
          "internalType": "uint256",
          "name": "",
          "type": "uint256"
        }
      ],
      "stateMutability": "view",
      "type": "function"
    },
    {
      "inputs": [
        {
          "internalType": "address",
          "name": "newOwner",
          "type": "address"
        }
      ],
      "name": "transferOwnership",
      "outputs": [],
      "stateMutability": "nonpayable",
      "type": "function"
    },
    {
      "inputs": [
        {
          "internalType": "uint256",
          "name": "_amount",
          "type": "uint256"
        }
      ],
      "name": "withdraw",
      "outputs": [],
      "stateMutability": "nonpayable",
      "type": "function"
    }
  ],
  "transactionHash": "0x7b56617b84f3835654051407e02ef2cf1573884f0f81e0966443c616a378c302",
  "args": [
    "0x7f61D134690de3450feCe50a660292C6852C471B",
    "0x58c7B2828e7F2B2CaA0cC7fEef242fA3196d03df"
  ],
  "numDeployments": 1,
  "solcInputHash": "d6ecd4c33357ac8e050a61dec74e525c",
  "bytecode": "0x60c06040523480156200001157600080fd5b50604051620039b9380380620039b98339810160408190526200003491620001e3565b6200003f3362000176565b600180556001600160a01b0382166200008e5760405162461bcd60e51b815260206004820152600c60248201526b0666163746f72792d69732d360a41b60448201526064015b60405180910390fd5b6001600160a01b038116620000d15760405162461bcd60e51b815260206004820152600860248201526706133612d69732d360c41b604482015260640162000085565b600280546001600160a01b0319166001600160a01b038416908117909155604080516322be3de160e01b815290516322be3de1916004808201926020929091908290030181865afa1580156200012b573d6000803e3d6000fd5b505050506040513d601f19601f820116820180604052508101906200015191906200021b565b6001600160a01b039081166080521660a05250670de0b6b3a7640000600c5562000240565b600080546001600160a01b038381166001600160a01b0319831681178455604051919092169283917f8be0079c531659141344cd1fd0a4f28419497f9722a3daafe3b4186f6b6457e09190a35050565b80516001600160a01b0381168114620001de57600080fd5b919050565b60008060408385031215620001f757600080fd5b6200020283620001c6565b91506200021260208401620001c6565b90509250929050565b6000602082840312156200022e57600080fd5b6200023982620001c6565b9392505050565b60805160a05161373062000289600039600081816105360152818161063f0152612c8e0152600081816104a001528181610a6401528181610ce801526115c801526137306000f3fe608060405234801561001057600080fd5b50600436106102c85760003560e01c8063992642e51161017b578063b6b55f25116100d8578063f20c52741161008c578063f2fde38b11610071578063f2fde38b146105c5578063f6153ccd146105d8578063fc7e286d146105e157600080fd5b8063f20c527414610592578063f265a517146105b257600080fd5b8063bc873784116100bd578063bc8737841461056b578063c45a015514610574578063ce4b5bbe1461058757600080fd5b8063b6b55f2514610558578063b85a8b201461032a57600080fd5b8063a4e59ac81161012f578063aceb2d0411610114578063aceb2d0414610521578063ad09014d14610529578063ad236ffb1461053157600080fd5b8063a4e59ac814610506578063abdc55411461051957600080fd5b80639e3b4a5c116101605780639e3b4a5c146104f4578063a20baee61461048c578063a3a490df146104fd57600080fd5b8063992642e51461049b5780639acee675146104c257600080fd5b8063715018a61161022957806386da0824116101dd5780638d4155ed116101c25780638d4155ed146104545780638da5cb5b14610467578063923c1eec1461048c57600080fd5b806386da0824146103d65780638b8fbd921461044b57600080fd5b8063766718081161020e57806376671808146103705780637b884708146103a257806382e0a574146103ab57600080fd5b8063715018a614610360578063741f76cd1461036857600080fd5b80633ea7fbdb11610280578063585817b211610265578063585817b21461033257806361ec893d146103455780636bbd20391461034d57600080fd5b80633ea7fbdb146103175780634bb970421461032a57600080fd5b806328a07025116102b157806328a07025146102f35780632e1a7d4d146102fb5780633d79e1f31461030e57600080fd5b8063098d3228146102cd57806316c24d0c146102e9575b600080fd5b6102d660001981565b6040519081526020015b60405180910390f35b6102f1610601565b005b6102f16106ec565b6102f161030936600461331f565b610b1b565b6102d660055481565b6102f161032536600461334d565b610de3565b6102d6610e63565b6102d661034036600461336a565b610e85565b6102d6603c81565b6102f161035b36600461331f565b611292565b6102f16112dd565b6102f16112f1565b600d5461038a90600160801b90046001600160801b031681565b6040516001600160801b0390911681526020016102e0565b6102d6600a5481565b6102d66103b93660046133bf565b600f60209081526000928352604080842090915290825290205481565b61041c6103e436600461334d565b6007602052600090815260409020600181015460028201546003909201549091906001600160801b0380821691600160801b90041684565b6040805194855260208501939093526001600160801b03918216928401929092521660608201526080016102e0565b6102d6600c5481565b6102d661046236600461334d565b6113f0565b6000546001600160a01b03165b6040516001600160a01b0390911681526020016102e0565b6102d6670de0b6b3a764000081565b6104747f000000000000000000000000000000000000000000000000000000000000000081565b6104d56104d03660046133f2565b6114ac565b604080516001600160a01b0390931683526020830191909152016102e0565b6102d660085481565b6102d660095481565b600d5461038a906001600160801b031681565b6102d6611500565b6102d6611515565b6102d6611536565b6104747f000000000000000000000000000000000000000000000000000000000000000081565b6102f161056636600461331f565b611560565b6102d6600b5481565b600254610474906001600160a01b031681565b6102d6633b9aca0081565b6102d66105a036600461334d565b60046020526000908152604090205481565b6102d66105c036600461334d565b6117c8565b6102f16105d336600461334d565b6118b0565b6102d660035481565b6102d66105ef36600461334d565b60066020526000908152604090205481565b61060961193d565b610611611997565b6040517f70a082310000000000000000000000000000000000000000000000000000000081523060048201527f00000000000000000000000000000000000000000000000000000000000000006001600160a01b0316906370a0823190602401602060405180830381865afa15801561068e573d6000803e3d6000fd5b505050506040513d601f19601f820116820180604052508101906106b2919061342e565b60098190556040519081527f737c090935c619cb484c610974d037a14e14107a01570b367ee7624239c93b3c9060200160405180910390a1565b600260009054906101000a90046001600160a01b03166001600160a01b031663679fda706040518163ffffffff1660e01b8152600401602060405180830381865afa15801561073f573d6000803e3d6000fd5b505050506040513d601f19601f820116820180604052508101906107639190613452565b6001600160a01b0316336001600160a01b0316146107c85760405162461bcd60e51b815260206004820152601660248201527f6e6f742d6c69717569646174696f6e2d726f757465720000000000000000000060448201526064015b60405180910390fd5b600254604080517f679fda7000000000000000000000000000000000000000000000000000000000815290516001600160a01b0390921691600091839163679fda70916004808201926020929091908290030181865afa158015610830573d6000803e3d6000fd5b505050506040513d601f19601f820116820180604052508101906108549190613452565b90506000816001600160a01b03166323d8d8b96040518163ffffffff1660e01b8152600401602060405180830381865afa158015610896573d6000803e3d6000fd5b505050506040513d601f19601f820116820180604052508101906108ba919061342e565b90506000826001600160a01b0316634113e5ca6040518163ffffffff1660e01b8152600401600060405180830381865afa1580156108fc573d6000803e3d6000fd5b505050506040513d6000823e601f3d908101601f191682016040526109249190810190613485565b80516003549192509060005b82811015610a2c57600084828151811061094c5761094c61353e565b60209081029190910101516040517fa5fdc5de0000000000000000000000000000000000000000000000000000000081526001600160a01b03808316600483015291925060009189169063a5fdc5de90602401602060405180830381865afa1580156109bc573d6000803e3d6000fd5b505050506040513d601f19601f820116820180604052508101906109e0919061342e565b90506109f76001600160a01b0383168930846119ac565b600080610a0684848b89611a4a565b91509150610a15848383611b58565b505050508080610a249061356a565b915050610930565b50610a35611997565b6040517f42966c68000000000000000000000000000000000000000000000000000000008152600481018590527f00000000000000000000000000000000000000000000000000000000000000006001600160a01b0316906342966c6890602401600060405180830381600087803b158015610ab057600080fd5b505af1158015610ac4573d6000803e3d6000fd5b5050505060008482610ad69190613583565b60038190556040518181529091507fdd57620b2ca30631ceaca34cdc5bed54a6cf855f32428b9bbd0fcb2c997b9559906020015b60405180910390a150505050505050565b610b23611e22565b3360009081526006602052604090205481610b6e5760405162461bcd60e51b815260206004820152600b60248201526a0616d6f756e742d69732d360ac1b60448201526064016107bf565b60008111610bbe5760405162461bcd60e51b815260206004820152600c60248201527f6465706f7369742d69732d30000000000000000000000000000000000000000060448201526064016107bf565b610bc6611e7b565b3360009081526007602090815260408083208151815460c09481028201850190935260a08101838152909391928492849190879085015b82821015610c45576000848152602090819020604080518082019091526002850290910180546001600160a01b03168252600190810154828401529083529092019101610bfd565b5050509082525060018201546020820152600282015460408201526003909101546001600160801b038082166060840152600160801b9091041660809091015290506000610c938383611e93565b90506000610ca18286611f96565b90506000610caf8284613583565b905081600354610cbf9190613583565b600355610ccc3382611fae565b60405163a9059cbb60e01b8152336004820152602481018390527f00000000000000000000000000000000000000000000000000000000000000006001600160a01b03169063a9059cbb906044016020604051808303816000875af1158015610d39573d6000803e3d6000fd5b505050506040513d601f19601f82011682018060405250810190610d5d9190613596565b5060408051338152602081018490527f884edad9ce6fa2440d8a54cc123490eb96d2768479d49ff9c7366125a9424364910160405180910390a17fdd57620b2ca30631ceaca34cdc5bed54a6cf855f32428b9bbd0fcb2c997b9559600354604051610dca91815260200190565b60405180910390a15050505050610de060018055565b50565b610deb61193d565b6001600160a01b038116610e415760405162461bcd60e51b815260206004820152600c60248201527f666163746f72792d69732d30000000000000000000000000000000000000000060448201526064016107bf565b600280546001600160a01b0319166001600160a01b0392909216919091179055565b6064610e78670de0b6b3a764000060016135b8565b610e8291906135cf565b81565b6001600160a01b03811660009081526007602090815260408083208151815460c09481028201850190935260a08101838152859491938492849190879085015b82821015610f0d576000848152602090819020604080518082019091526002850290910180546001600160a01b03168252600190810154828401529083529092019101610ec5565b50505090825250600182015460208083019190915260028301546040808401919091526003909301546001600160801b03808216606080860191909152600160801b90920481166080948501526001600160a01b0389166000908152600684528581205494870151928701518383168252600e855286822092811682529184528581208054875181870281018701909852808852979850949692959194909391929091849084015b82821015610ffd576000848152602090819020604080518082019091526002850290910180546001600160a01b03168252600190810154828401529083529092019101610fb5565b5050825160408051808201909152600080825260208201529394509291506110229050565b60005b82816001600160801b0316101561109457600084826001600160801b0316815181106110535761105361353e565b602002602001015190508b6001600160a01b031681600001516001600160a01b031603611081579150611094565b508061108c816135f1565b915050611025565b5080516001600160a01b03166110b457600097505050505050505061128c565b6000805b8851516001600160801b03821610156111315760008960000151826001600160801b0316815181106110ec576110ec61353e565b602002602001015190508c6001600160a01b031681600001516001600160a01b03160361111e57602001519150611131565b5080611129816135f1565b9150506110b8565b506001600160801b0386166000908152600e6020526040812081611156886001613617565b6001600160801b03166001600160801b03168152602001908152602001600020805480602002602001604051908101604052809291908181526020016000905b828210156111de576000848152602090819020604080518082019091526002850290910180546001600160a01b03168252600190810154828401529083529092019101611196565b505050509050600080600090505b8251816001600160801b0316101561126057600083826001600160801b03168151811061121b5761121b61353e565b602002602001015190508e6001600160a01b031681600001516001600160a01b03160361124d57602001519150611260565b5080611258816135f1565b9150506111ec565b5060008a602001519050600061127d8b8760200151858886612159565b9c505050505050505050505050505b92915050565b61129a61193d565b6112a2611997565b60088190556040518181527fa44a6c166cab06f013b1f859b476d946a94651ae81781748754ec48099e519c09060200160405180910390a150565b6112e561193d565b6112ef60006121bb565b565b3360009081526007602090815260408083208151815460c09481028201850190935260a08101838152909391928492849190879085015b82821015611370576000848152602090819020604080518082019091526002850290910180546001600160a01b03168252600190810154828401529083529092019101611328565b50505090825250600182015460208083019190915260028301546040808401919091526003909301546001600160801b038082166060850152600160801b909104166080909201919091523360009081526006909152908120549192506113d78284611e93565b90506113e1611e7b565b6113eb3382611fae565b505050565b600954600354600091908115806114075750600854155b80611410575080155b1561141f575060009392505050565b6000603c600a54426114319190613583565b61143b91906135cf565b60085461144891906135b8565b9050808310156114555750815b600082600b54670de0b6b3a76400008461146f91906135b8565b611479919061363e565b61148391906135cf565b90506000600c548261149591906135b8565b90506114a1878261220b565b979650505050505050565b600e60205282600052604060002060205281600052604060002081815481106114d457600080fd5b6000918252602090912060029091020180546001909101546001600160a01b0390911693509150839050565b6064610e78670de0b6b3a764000060056135b8565b6002606461152c670de0b6b3a764000060016135b8565b610e7891906135cf565b606461154b670de0b6b3a764000060016135b8565b61155591906135cf565b610e8290600a6135b8565b611568611e22565b600081116115a65760405162461bcd60e51b815260206004820152600b60248201526a0616d6f756e742d69732d360ac1b60448201526064016107bf565b6040516323b872dd60e01b8152336004820152306024820152604481018290527f00000000000000000000000000000000000000000000000000000000000000006001600160a01b0316906323b872dd906064016020604051808303816000875af1158015611619573d6000803e3d6000fd5b505050506040513d601f19601f8201168201806040525081019061163d9190613596565b5033600090815260066020526040902054611656611e7b565b3360009081526007602090815260408083208151815460c09481028201850190935260a08101838152909391928492849190879085015b828210156116d5576000848152602090819020604080518082019091526002850290910180546001600160a01b0316825260019081015482840152908352909201910161168d565b5050509082525060018201546020820152600282015460408201526003909101546001600160801b038082166060840152600160801b90910416608090910152905060006117238383611e93565b9050600084600354611735919061363e565b6003819055905061174f3361174a878561363e565b611fae565b60408051338152602081018790527fe1fffcc4923d04b559f4d29a8bfc6cda04eb5b0d3c460751c2402c5c5cc9109c910160405180910390a16040518181527fdd57620b2ca30631ceaca34cdc5bed54a6cf855f32428b9bbd0fcb2c997b95599060200160405180910390a150505050610de060018055565b6001600160a01b038116600090815260066020908152604080832054600783528184208251815460c09581028201860190945260a0810184815292948694919384929091849190879085015b8282101561185c576000848152602090819020604080518082019091526002850290910180546001600160a01b03168252600190810154828401529083529092019101611814565b5050509082525060018201546020820152600282015460408201526003909101546001600160801b038082166060840152600160801b9091041660809091015290506118a88282611e93565b949350505050565b6118b861193d565b6001600160a01b0381166119345760405162461bcd60e51b815260206004820152602660248201527f4f776e61626c653a206e6577206f776e657220697320746865207a65726f206160448201527f646472657373000000000000000000000000000000000000000000000000000060648201526084016107bf565b610de0816121bb565b6000546001600160a01b031633146112ef5760405162461bcd60e51b815260206004820181905260248201527f4f776e61626c653a2063616c6c6572206973206e6f7420746865206f776e657260448201526064016107bf565b60006119a161244f565b9050610de081612514565b6040516001600160a01b0380851660248301528316604482015260648101829052611a449085906323b872dd60e01b906084015b60408051601f198184030181529190526020810180517bffffffffffffffffffffffffffffffffffffffffffffffffffffffff167fffffffff00000000000000000000000000000000000000000000000000000000909316929092179091526125f9565b50505050565b6001600160a01b03841660009081526004602052604081205481908190611a79670de0b6b3a7640000886135b8565b611a83919061363e565b905083851115611a9557611a95613651565b838503611ab1576000600555670de0b6b3a76400009150611b06565b600554600090611ac9670de0b6b3a7640000886135b8565b611ad39190613583565b9050611adf85826135cf565b611aea90600161363e565b925080611af786856135b8565b611b019190613583565b600555505b83600003611b15576000611b1f565b611b1f84826135cf565b9250611b2b84846135b8565b611b359082613583565b6001600160a01b0388166000908152600460205260409020555094509492505050565b670de0b6b3a7640000811115611b7057611b70613651565b600d546001600160801b03600160801b820481166000818152600e602090815260408083209490951680835293815284822080548651818402810184019097528087529495939492938493849384939190849084015b82821015611c0e576000848152602090819020604080518082019091526002850290910180546001600160a01b03168252600190810154828401529083529092019101611bc6565b50505050905060005b8151816001600160801b03161015611cb457896001600160a01b031682826001600160801b031681518110611c4e57611c4e61353e565b6020026020010151600001516001600160a01b031603611ca25781816001600160801b031681518110611c8357611c8361353e565b6020026020010151602001519450806001600160801b03169350600192505b80611cac816135f1565b915050611c17565b506000600c5489611cc591906135b8565b90506000611cd3828761363e565b9050825160001480611ce3575083155b15611d615760408051808201825260208082018481526001600160a01b038f811684526001600160801b038c81166000908152600e8552868120918f168152908452948520805460018082018355918752939095209351600290930290930180546001600160a01b0319169290931691909117825551910155611db1565b6001600160801b038088166000908152600e60209081526040808320938c16835292905220805482919087908110611d9b57611d9b61353e565b9060005260206000209060020201600101819055505b604080516001600160a01b038d168152602081018390526001600160801b03898116828401528a16606082015290517fe799d8213ffd47c58af0bad222f3f83a7bacf689130d897017d6c2cb9346e8cb9181900360800190a1611e158960016126e1565b5050505050505050505050565b600260015403611e745760405162461bcd60e51b815260206004820152601f60248201527f5265656e7472616e637947756172643a207265656e7472616e742063616c6c0060448201526064016107bf565b6002600155565b611e83612955565b611e8b611997565b6112ef612970565b6020810151600d546080830151600092916001600160801b03600160801b909104811691161015611ec857600091505061128c565b6060830151600d546000918291611ee891906001600160801b0316613667565b905060008315611ef85783611f02565b670de0b6b3a76400005b9050816001600160801b0316600003611f355780600c5488611f2491906135b8565b611f2e91906135cf565b9250611f69565b816001600160801b0316600103611f6457633b9aca0081600c5489611f5a91906135b8565b611f2491906135cf565b600092505b611f77633b9aca00886135cf565b831015611f8b57600094505050505061128c565b509095945050505050565b6000818310611fa55781611fa7565b825b9392505050565b6001600160a01b038216600090815260066020526040812082905581900361205d576001600160a01b038216600090815260076020526040812090611ff38282613260565b506000600182018190556002820181905560039091018190556040805182815260208101839052908101919091526001600160a01b038316907f2d6cc0bcdf72c9486f6451bde6b80f44066f4558f77f44dbfedbe7d8b295225a9060600160405180910390a25050565b600d546001600160801b03600160801b820481166000818152600e6020908152604080832094909516808352938152848220600c54848452600f83528684208685528352868420546001600160a01b038a1685526007909352959092208254939592936120cc91908590613281565b506001600160a01b03871660008181526007602090815260409182902060018101869055600281018590556001600160801b03898116600160801b029089161760039091015581518581529081018490529081018890527f2d6cc0bcdf72c9486f6451bde6b80f44066f4558f77f44dbfedbe7d8b295225a9060600160405180910390a250505050505050565b6000806121668487613583565b90506000612178633b9aca00876135cf565b90506000670de0b6b3a764000085612190848661363e565b61219a908c6135b8565b6121a491906135cf565b6121ae91906135cf565b9998505050505050505050565b600080546001600160a01b038381166001600160a01b0319831681178455604051919092169283917f8be0079c531659141344cd1fd0a4f28419497f9722a3daafe3b4186f6b6457e09190a35050565b6001600160a01b03821660009081526006602052604081205480820361223557600091505061128c565b6001600160a01b03841660009081526007602090815260408083208151815460c09481028201850190935260a08101838152909391928492849190879085015b828210156122bd576000848152602090819020604080518082019091526002850290910180546001600160a01b03168252600190810154828401529083529092019101612275565b5050509082525060018281015460208084019190915260028401546040808501919091526003909401546001600160801b03808216606080870191909152600160801b9092048116608095860152938601805185166000908152600f80855287822093890180518816835293855287822054925190961681529490925293832093519495509391929183916123529190613617565b6001600160801b039081168252602082019290925260400160002054600d546080860151919350600160801b900482169116036123ea57600d5460608401516001600160801b039182169116036123b0576123ad868361363e565b91505b600d5460608401516001600160801b03909116906123cf906001613617565b6001600160801b0316036123ea576123e7868261363e565b90505b60006123fa633b9aca00836135cf565b60408501516124099085613583565b612413919061363e565b9050670de0b6b3a76400008460200151828761242f91906135b8565b61243991906135cf565b61244391906135cf565b98975050505050505050565b60095460009042908015806124645750600854155b8061246f5750600354155b1561247e5750600a5550600090565b6000603c600a54846124909190613583565b61249a91906135cf565b90506000816008546124ac91906135b8565b9050808310156124b95750815b60006124c58285613583565b6009819055600a86905560408051848152602081018390529192507f9615da270ae05e5418cc5be49bb60287e4fb87732d1c28588041cc1a0a1d714c910160405180910390a150949350505050565b600354801580612522575081155b1561252b575050565b600061253783836129ce565b90506000600c548261254991906135b8565b600d546001600160801b03600160801b820481166000818152600f6020908152604080832094909516808352939052928320549394509290919061258e90859061363e565b6001600160801b038481166000818152600f60209081526040808320948816808452948252918290208590558151858152908101929092528101919091529091507f2d6127771b164a9cc8827d24b5955db2a77e7a81dac389107ebb8bce9fb6496890606001610b0a565b600061264e826040518060400160405280602081526020017f5361666545524332303a206c6f772d6c6576656c2063616c6c206661696c6564815250856001600160a01b0316612a219092919063ffffffff16565b905080516000148061266f57508080602001905181019061266f9190613596565b6113eb5760405162461bcd60e51b815260206004820152602a60248201527f5361666545524332303a204552433230206f7065726174696f6e20646964206e60448201527f6f7420737563636565640000000000000000000000000000000000000000000060648201526084016107bf565b60008115612702576126fb83670de0b6b3a7640000613583565b9050612717565b61271483670de0b6b3a764000061363e565b90505b600c546000828103612814576001600d60108282829054906101000a90046001600160801b03166127489190613617565b82546101009290920a6001600160801b03818102199093169183160217909155600d54604051600160801b90910490911681527fb50f0f59e7cb5b421dc77581c3a9919e3806e076e5fa78a874c3f120cb7d874d915060200160405180910390a1600d80547fffffffffffffffffffffffffffffffff00000000000000000000000000000000169055604051600081527f1f9dfc70cd666adb18a39d60a797518f7b4febf4b6e24ef37d44f6e1e7219fbe9060200160405180910390a150670de0b6b3a7640000612906565b633b9aca00670de0b6b3a764000061282c85856135b8565b61283691906135cf565b10156128e657670de0b6b3a7640000633b9aca0061285485856135b8565b61285e91906135b8565b61286891906135cf565b600d80549192506001916000906128899084906001600160801b0316613617565b82546101009290920a6001600160801b03818102199093169183160217909155600d54604051911681527f1f9dfc70cd666adb18a39d60a797518f7b4febf4b6e24ef37d44f6e1e7219fbe915060200160405180910390a1612906565b670de0b6b3a76400006128f984846135b8565b61290391906135cf565b90505b6000811161291657612916613651565b600c8190556040518181527fc1a9618cb59ebca77cbdbc2949f126823c407ff13edb285fd0262519a9c18e8c9060200160405180910390a15050505050565b33600061296182612a30565b905061296c81612b3b565b5050565b33600061297d828261220b565b905061298881612c72565b604080516001600160a01b0384168152602081018390527f21174516d986e72e9bb9517de9a66f23eefde373712feb3094d47267c5128339910160405180910390a15050565b600080600b54670de0b6b3a7640000856129e891906135b8565b6129f2919061363e565b90506000612a0084836135cf565b9050612a0c84826135b8565b612a169083613583565b600b55949350505050565b60606118a88484600085612d03565b6001600160a01b038116600090815260066020526040812054606091819003612a5c5750606092915050565b6001600160a01b03831660009081526007602090815260408083208151815460c09481028201850190935260a08101838152909391928492849190879085015b82821015612ae4576000848152602090819020604080518082019091526002850290910180546001600160a01b03168252600190810154828401529083529092019101612a9c565b5050509082525060018201546020820152600282015460408201526003909101546001600160801b038082166060840152600160801b9091041660809091015290506000612b328383612dea565b95945050505050565b60005b815181101561296c57818181518110612b5957612b5961353e565b60200260200101516020015160000315612c60576000828281518110612b8157612b8161353e565b6020026020010151600001519050612bca33848481518110612ba557612ba561353e565b602002602001015160200151836001600160a01b03166131929092919063ffffffff16565b7f19bf4d3314df9341106a51dc43c66288e0c93bdb9de031e0587da2c99c9f601133848481518110612bfe57612bfe61353e565b602002602001015160000151858581518110612c1c57612c1c61353e565b602002602001015160200151604051612c56939291906001600160a01b039384168152919092166020820152604081019190915260600190565b60405180910390a1505b80612c6a8161356a565b915050612b3e565b60405163a9059cbb60e01b8152336004820152602481018290527f00000000000000000000000000000000000000000000000000000000000000006001600160a01b03169063a9059cbb906044016020604051808303816000875af1158015612cdf573d6000803e3d6000fd5b505050506040513d601f19601f8201168201806040525081019061296c9190613596565b606082471015612d7b5760405162461bcd60e51b815260206004820152602660248201527f416464726573733a20696e73756666696369656e742062616c616e636520666f60448201527f722063616c6c000000000000000000000000000000000000000000000000000060648201526084016107bf565b600080866001600160a01b03168587604051612d9791906136ab565b60006040518083038185875af1925050503d8060008114612dd4576040519150601f19603f3d011682016040523d82523d6000602084013e612dd9565b606091505b50915091506114a1878383876131c2565b60808101516060828101516001600160801b038084166000908152600e60209081526040808320938516835292815282822080548451818402810184019095528085529596959293929091849084015b82821015612e82576000848152602090819020604080518082019091526002850290910180546001600160a01b03168252600190810154828401529083529092019101612e3a565b50505050905060008151905060008167ffffffffffffffff811115612ea957612ea961346f565b604051908082528060200260200182016040528015612eee57816020015b6040805180820190915260008082526020820152815260200190600190039081612ec75790505b50905060005b82816001600160801b0316101561318657600084826001600160801b031681518110612f2257612f2261353e565b60200260200101519050600080600090505b8a51516001600160801b0382161015612fb15760008b60000151826001600160801b031681518110612f6857612f6861353e565b6020026020010151905083600001516001600160a01b031681600001516001600160a01b031603612f9e57602001519150612fb1565b5080612fa9816135f1565b915050612f34565b506001600160801b0388166000908152600e6020526040812081612fd68a6001613617565b6001600160801b03166001600160801b03168152602001908152602001600020805480602002602001604051908101604052809291908181526020016000905b8282101561305e576000848152602090819020604080518082019091526002850290910180546001600160a01b03168252600190810154828401529083529092019101613016565b505050509050600080600090505b8251816001600160801b031610156130e457600083826001600160801b03168151811061309b5761309b61353e565b6020026020010151905085600001516001600160a01b031681600001516001600160a01b0316036130d1576020015191506130e4565b50806130dc816135f1565b91505061306c565b5060008c6020015190506130ff8e8660200151848785612159565b87876001600160801b03168151811061311a5761311a61353e565b60200260200101516020018181525050846000015187876001600160801b03168151811061314a5761314a61353e565b6020026020010151600001906001600160a01b031690816001600160a01b0316815250505050505050808061317e906135f1565b915050612ef4565b50979650505050505050565b6040516001600160a01b0383166024820152604481018290526113eb90849063a9059cbb60e01b906064016119e0565b6060831561323157825160000361322a576001600160a01b0385163b61322a5760405162461bcd60e51b815260206004820152601d60248201527f416464726573733a2063616c6c20746f206e6f6e2d636f6e747261637400000060448201526064016107bf565b50816118a8565b6118a883838151156132465781518083602001fd5b8060405162461bcd60e51b81526004016107bf91906136c7565b5080546000825560020290600052602060002090810190610de091906132f9565b8280548282559060005260206000209060020281019282156132e95760005260206000209160020282015b828111156132e957825482546001600160a01b0319166001600160a01b0390911617825560018084015490830155600292830192909101906132ac565b506132f59291506132f9565b5090565b5b808211156132f55780546001600160a01b0319168155600060018201556002016132fa565b60006020828403121561333157600080fd5b5035919050565b6001600160a01b0381168114610de057600080fd5b60006020828403121561335f57600080fd5b8135611fa781613338565b6000806040838503121561337d57600080fd5b823561338881613338565b9150602083013561339881613338565b809150509250929050565b80356001600160801b03811681146133ba57600080fd5b919050565b600080604083850312156133d257600080fd5b6133db836133a3565b91506133e9602084016133a3565b90509250929050565b60008060006060848603121561340757600080fd5b613410846133a3565b925061341e602085016133a3565b9150604084013590509250925092565b60006020828403121561344057600080fd5b5051919050565b80516133ba81613338565b60006020828403121561346457600080fd5b8151611fa781613338565b634e487b7160e01b600052604160045260246000fd5b6000602080838503121561349857600080fd5b825167ffffffffffffffff808211156134b057600080fd5b818501915085601f8301126134c457600080fd5b8151818111156134d6576134d661346f565b8060051b604051601f19603f830116810181811085821117156134fb576134fb61346f565b60405291825284820192508381018501918883111561351957600080fd5b938501935b828510156124435761352f85613447565b8452938501939285019261351e565b634e487b7160e01b600052603260045260246000fd5b634e487b7160e01b600052601160045260246000fd5b60006001820161357c5761357c613554565b5060010190565b8181038181111561128c5761128c613554565b6000602082840312156135a857600080fd5b81518015158114611fa757600080fd5b808202811582820484141761128c5761128c613554565b6000826135ec57634e487b7160e01b600052601260045260246000fd5b500490565b60006001600160801b0380831681810361360d5761360d613554565b6001019392505050565b6001600160801b0381811683821601908082111561363757613637613554565b5092915050565b8082018082111561128c5761128c613554565b634e487b7160e01b600052600160045260246000fd5b6001600160801b0382811682821603908082111561363757613637613554565b60005b838110156136a257818101518382015260200161368a565b50506000910152565b600082516136bd818460208701613687565b9190910192915050565b60208152600082518060208401526136e6816040850160208701613687565b601f01601f1916919091016040019291505056fea2646970667358221220196e4e0670fecad16ed8e454df63bb93f7184da6438da0dfba829d5a1dda5aa064736f6c63430008130033",
  "devdoc": {
    "kind": "dev",
    "methods": {
      "deposit(uint256)": {
        "details": "to deposit StableCoin into StabilityPool this must be protected against a reentrant attack from the arbitrage",
        "params": {
          "_amount": "amount to deposit"
        }
      },
      "getCollateralReward(address,address)": {
        "details": "gets collateral reward of msg.sender",
        "params": {
          "_token": "collateral token address"
        }
      },
      "getDepositorA3AGain(address)": {
        "details": "gets A3A reward of _depositor",
        "params": {
          "_depositor": "user address"
        }
      },
      "getWithdrawableDeposit(address)": {
        "details": "gets current deposit of msg.sender"
      },
      "liquidate()": {
        "details": "liquidates vault, must be called from that vaultthis function does not provide an opportunity for a reentrancy attack even though it would make the arbitragefail because of the lowering of the stablecoin balance"
      },
      "owner()": {
        "details": "Returns the address of the current owner."
      },
      "redeemReward()": {
        "details": "to withdraw collateral rewards earned after liquidationsthis function does not provide an opportunity for a reentrancy attack"
      },
      "renounceOwnership()": {
        "details": "Leaves the contract without owner. It will not be possible to call `onlyOwner` functions. Can only be called by the current owner. NOTE: Renouncing ownership will leave the contract without an owner, thereby disabling any functionality that is only available to the owner."
      },
      "setA3AAmountForRewards()": {
        "details": "sets total amount of A3A to be rewarded (pays per minute until reaches the amount rewarded)"
      },
      "setA3APerMinute(uint256)": {
        "details": "sets amount of A3A per minute for rewards"
      },
      "transferOwnership(address)": {
        "details": "Transfers ownership of the contract to a new account (`newOwner`). Can only be called by the current owner."
      },
      "withdraw(uint256)": {
        "details": "to withdraw StableCoin that was not spent if this function is called in a reentrantway during arbitrage  itwould skew the token allocation and must be protected against",
        "params": {
          "_amount": "amount to withdraw"
        }
      }
    },
    "title": "is used to liquidate vaults and reward depositors with collateral redeemed",
    "version": 1
  },
  "userdoc": {
    "kind": "user",
    "methods": {
      "liquidate()": {
        "notice": "must be called by the valid vault"
      }
    },
    "version": 1
  },
  "storageLayout": {
    "storage": [
      {
        "astId": 110,
        "contract": "contracts/StabilityPool.sol:StabilityPool",
        "label": "_owner",
        "offset": 0,
        "slot": "0",
        "type": "t_address"
      },
      {
        "astId": 229,
        "contract": "contracts/StabilityPool.sol:StabilityPool",
        "label": "_status",
        "offset": 0,
        "slot": "1",
        "type": "t_uint256"
      },
      {
        "astId": 5396,
        "contract": "contracts/StabilityPool.sol:StabilityPool",
        "label": "factory",
        "offset": 0,
        "slot": "2",
        "type": "t_contract(IVaultFactory)12793"
      },
      {
        "astId": 5404,
        "contract": "contracts/StabilityPool.sol:StabilityPool",
        "label": "totalDeposit",
        "offset": 0,
        "slot": "3",
        "type": "t_uint256"
      },
      {
        "astId": 5408,
        "contract": "contracts/StabilityPool.sol:StabilityPool",
        "label": "collateralToLastErrorOffset",
        "offset": 0,
        "slot": "4",
        "type": "t_mapping(t_address,t_uint256)"
      },
      {
        "astId": 5410,
        "contract": "contracts/StabilityPool.sol:StabilityPool",
        "label": "lastStableCoinLossErrorOffset",
        "offset": 0,
        "slot": "5",
        "type": "t_uint256"
      },
      {
        "astId": 5414,
        "contract": "contracts/StabilityPool.sol:StabilityPool",
        "label": "deposits",
        "offset": 0,
        "slot": "6",
        "type": "t_mapping(t_address,t_uint256)"
      },
      {
        "astId": 5419,
        "contract": "contracts/StabilityPool.sol:StabilityPool",
        "label": "depositSnapshots",
        "offset": 0,
        "slot": "7",
        "type": "t_mapping(t_address,t_struct(Snapshots)5393_storage)"
      },
      {
        "astId": 5421,
        "contract": "contracts/StabilityPool.sol:StabilityPool",
        "label": "a3aPerMinute",
        "offset": 0,
        "slot": "8",
        "type": "t_uint256"
      },
      {
        "astId": 5423,
        "contract": "contracts/StabilityPool.sol:StabilityPool",
        "label": "totalA3ARewardsLeft",
        "offset": 0,
        "slot": "9",
        "type": "t_uint256"
      },
      {
        "astId": 5425,
        "contract": "contracts/StabilityPool.sol:StabilityPool",
        "label": "latestA3ARewardTime",
        "offset": 0,
        "slot": "10",
        "type": "t_uint256"
      },
      {
        "astId": 5427,
        "contract": "contracts/StabilityPool.sol:StabilityPool",
        "label": "lastA3AError",
        "offset": 0,
        "slot": "11",
        "type": "t_uint256"
      },
      {
        "astId": 5429,
        "contract": "contracts/StabilityPool.sol:StabilityPool",
        "label": "P",
        "offset": 0,
        "slot": "12",
        "type": "t_uint256"
      },
      {
        "astId": 5437,
        "contract": "contracts/StabilityPool.sol:StabilityPool",
        "label": "currentScale",
        "offset": 0,
        "slot": "13",
        "type": "t_uint128"
      },
      {
        "astId": 5439,
        "contract": "contracts/StabilityPool.sol:StabilityPool",
        "label": "currentEpoch",
        "offset": 16,
        "slot": "13",
        "type": "t_uint128"
      },
      {
        "astId": 5447,
        "contract": "contracts/StabilityPool.sol:StabilityPool",
        "label": "epochToScaleToTokenToSum",
        "offset": 0,
        "slot": "14",
        "type": "t_mapping(t_uint128,t_mapping(t_uint128,t_array(t_struct(TokenToS)5375_storage)dyn_storage))"
      },
      {
        "astId": 5453,
        "contract": "contracts/StabilityPool.sol:StabilityPool",
        "label": "epochToScaleToG",
        "offset": 0,
        "slot": "15",
        "type": "t_mapping(t_uint128,t_mapping(t_uint128,t_uint256))"
      }
    ],
    "types": {
      "t_address": {
        "encoding": "inplace",
        "label": "address",
        "numberOfBytes": "20"
      },
      "t_array(t_struct(TokenToS)5375_storage)dyn_storage": {
        "base": "t_struct(TokenToS)5375_storage",
        "encoding": "dynamic_array",
        "label": "struct StabilityPool.TokenToS[]",
        "numberOfBytes": "32"
      },
      "t_contract(IVaultFactory)12793": {
        "encoding": "inplace",
        "label": "contract IVaultFactory",
        "numberOfBytes": "20"
      },
      "t_mapping(t_address,t_struct(Snapshots)5393_storage)": {
        "encoding": "mapping",
        "key": "t_address",
        "label": "mapping(address => struct StabilityPool.Snapshots)",
        "numberOfBytes": "32",
        "value": "t_struct(Snapshots)5393_storage"
      },
      "t_mapping(t_address,t_uint256)": {
        "encoding": "mapping",
        "key": "t_address",
        "label": "mapping(address => uint256)",
        "numberOfBytes": "32",
        "value": "t_uint256"
      },
      "t_mapping(t_uint128,t_array(t_struct(TokenToS)5375_storage)dyn_storage)": {
        "encoding": "mapping",
        "key": "t_uint128",
        "label": "mapping(uint128 => struct StabilityPool.TokenToS[])",
        "numberOfBytes": "32",
        "value": "t_array(t_struct(TokenToS)5375_storage)dyn_storage"
      },
      "t_mapping(t_uint128,t_mapping(t_uint128,t_array(t_struct(TokenToS)5375_storage)dyn_storage))": {
        "encoding": "mapping",
        "key": "t_uint128",
        "label": "mapping(uint128 => mapping(uint128 => struct StabilityPool.TokenToS[]))",
        "numberOfBytes": "32",
        "value": "t_mapping(t_uint128,t_array(t_struct(TokenToS)5375_storage)dyn_storage)"
      },
      "t_mapping(t_uint128,t_mapping(t_uint128,t_uint256))": {
        "encoding": "mapping",
        "key": "t_uint128",
        "label": "mapping(uint128 => mapping(uint128 => uint256))",
        "numberOfBytes": "32",
        "value": "t_mapping(t_uint128,t_uint256)"
      },
      "t_mapping(t_uint128,t_uint256)": {
        "encoding": "mapping",
        "key": "t_uint128",
        "label": "mapping(uint128 => uint256)",
        "numberOfBytes": "32",
        "value": "t_uint256"
      },
      "t_struct(Snapshots)5393_storage": {
        "encoding": "inplace",
        "label": "struct StabilityPool.Snapshots",
        "members": [
          {
            "astId": 5384,
            "contract": "contracts/StabilityPool.sol:StabilityPool",
            "label": "tokenToSArray",
            "offset": 0,
            "slot": "0",
            "type": "t_array(t_struct(TokenToS)5375_storage)dyn_storage"
          },
          {
            "astId": 5386,
            "contract": "contracts/StabilityPool.sol:StabilityPool",
            "label": "P",
            "offset": 0,
            "slot": "1",
            "type": "t_uint256"
          },
          {
            "astId": 5388,
            "contract": "contracts/StabilityPool.sol:StabilityPool",
            "label": "G",
            "offset": 0,
            "slot": "2",
            "type": "t_uint256"
          },
          {
            "astId": 5390,
            "contract": "contracts/StabilityPool.sol:StabilityPool",
            "label": "scale",
            "offset": 0,
            "slot": "3",
            "type": "t_uint128"
          },
          {
            "astId": 5392,
            "contract": "contracts/StabilityPool.sol:StabilityPool",
            "label": "epoch",
            "offset": 16,
            "slot": "3",
            "type": "t_uint128"
          }
        ],
        "numberOfBytes": "128"
      },
      "t_struct(TokenToS)5375_storage": {
        "encoding": "inplace",
        "label": "struct StabilityPool.TokenToS",
        "members": [
          {
            "astId": 5372,
            "contract": "contracts/StabilityPool.sol:StabilityPool",
            "label": "tokenAddress",
            "offset": 0,
            "slot": "0",
            "type": "t_address"
          },
          {
            "astId": 5374,
            "contract": "contracts/StabilityPool.sol:StabilityPool",
            "label": "S_value",
            "offset": 0,
            "slot": "1",
            "type": "t_uint256"
          }
        ],
        "numberOfBytes": "64"
      },
      "t_uint128": {
        "encoding": "inplace",
        "label": "uint128",
        "numberOfBytes": "16"
      },
      "t_uint256": {
        "encoding": "inplace",
        "label": "uint256",
        "numberOfBytes": "32"
      }
    }
  }
}