{
  "address": "0xfBC5cfEb809c6352Bc4ef2FFe842f72a8769E45e",
  "abi": [
    {
      "anonymous": false,
      "inputs": [
        {
          "indexed": false,
          "internalType": "address",
          "name": "_token",
          "type": "address"
        },
        {
          "indexed": false,
          "internalType": "address",
          "name": "_priceFeed",
          "type": "address"
        },
        {
          "indexed": false,
          "internalType": "string",
          "name": "_name",
          "type": "string"
        },
        {
          "indexed": false,
          "internalType": "string",
          "name": "_symbol",
          "type": "string"
        },
        {
          "indexed": false,
          "internalType": "uint256",
          "name": "_mcr",
          "type": "uint256"
        },
        {
          "indexed": false,
          "internalType": "uint256",
          "name": "_mlr",
          "type": "uint256"
        },
        {
          "indexed": false,
          "internalType": "uint256",
          "name": "_borrowRate",
          "type": "uint256"
        },
        {
          "indexed": false,
          "internalType": "uint256",
          "name": "_decimals",
          "type": "uint256"
        }
      ],
      "name": "NewTokenPriceFeed",
      "type": "event"
    },
    {
      "anonymous": false,
      "inputs": [
        {
          "indexed": true,
          "internalType": "address",
          "name": "previousOwner",
          "type": "address"
        },
        {
          "indexed": true,
          "internalType": "address",
          "name": "newOwner",
          "type": "address"
        }
      ],
      "name": "OwnershipTransferred",
      "type": "event"
    },
    {
      "inputs": [],
      "name": "DECIMAL_PRECISION",
      "outputs": [
        {
          "internalType": "uint256",
          "name": "",
          "type": "uint256"
        }
      ],
      "stateMutability": "view",
      "type": "function"
    },
    {
      "inputs": [],
      "name": "LIQUIDATION_RESERVE",
      "outputs": [
        {
          "internalType": "uint256",
          "name": "",
          "type": "uint256"
        }
      ],
      "stateMutability": "view",
      "type": "function"
    },
    {
      "inputs": [],
      "name": "MAX_BORROWING_RATE",
      "outputs": [
        {
          "internalType": "uint256",
          "name": "",
          "type": "uint256"
        }
      ],
      "stateMutability": "view",
      "type": "function"
    },
    {
      "inputs": [],
      "name": "MAX_INT",
      "outputs": [
        {
          "internalType": "uint256",
          "name": "",
          "type": "uint256"
        }
      ],
      "stateMutability": "view",
      "type": "function"
    },
    {
      "inputs": [],
      "name": "MAX_REDEMPTION_RATE",
      "outputs": [
        {
          "internalType": "uint256",
          "name": "",
          "type": "uint256"
        }
      ],
      "stateMutability": "view",
      "type": "function"
    },
    {
      "inputs": [],
      "name": "PERCENT",
      "outputs": [
        {
          "internalType": "uint256",
          "name": "",
          "type": "uint256"
        }
      ],
      "stateMutability": "view",
      "type": "function"
    },
    {
      "inputs": [],
      "name": "PERCENT10",
      "outputs": [
        {
          "internalType": "uint256",
          "name": "",
          "type": "uint256"
        }
      ],
      "stateMutability": "view",
      "type": "function"
    },
    {
      "inputs": [],
      "name": "PERCENT_05",
      "outputs": [
        {
          "internalType": "uint256",
          "name": "",
          "type": "uint256"
        }
      ],
      "stateMutability": "view",
      "type": "function"
    },
    {
      "inputs": [
        {
          "internalType": "address",
          "name": "_token",
          "type": "address"
        }
      ],
      "name": "borrowRate",
      "outputs": [
        {
          "internalType": "uint256",
          "name": "",
          "type": "uint256"
        }
      ],
      "stateMutability": "view",
      "type": "function"
    },
    {
      "inputs": [
        {
          "internalType": "address",
          "name": "_token",
          "type": "address"
        }
      ],
      "name": "decimals",
      "outputs": [
        {
          "internalType": "uint256",
          "name": "",
          "type": "uint256"
        }
      ],
      "stateMutability": "view",
      "type": "function"
    },
    {
      "inputs": [
        {
          "internalType": "address",
          "name": "_token",
          "type": "address"
        }
      ],
      "name": "mcr",
      "outputs": [
        {
          "internalType": "uint256",
          "name": "",
          "type": "uint256"
        }
      ],
      "stateMutability": "view",
      "type": "function"
    },
    {
      "inputs": [
        {
          "internalType": "address",
          "name": "_token",
          "type": "address"
        }
      ],
      "name": "mlr",
      "outputs": [
        {
          "internalType": "uint256",
          "name": "",
          "type": "uint256"
        }
      ],
      "stateMutability": "view",
      "type": "function"
    },
    {
      "inputs": [],
      "name": "owner",
      "outputs": [
        {
          "internalType": "address",
          "name": "",
          "type": "address"
        }
      ],
      "stateMutability": "view",
      "type": "function"
    },
    {
      "inputs": [],
      "name": "renounceOwnership",
      "outputs": [],
      "stateMutability": "nonpayable",
      "type": "function"
    },
    {
      "inputs": [
        {
          "internalType": "address",
          "name": "_token",
          "type": "address"
        },
        {
          "internalType": "address",
          "name": "_priceFeed",
          "type": "address"
        },
        {
          "internalType": "uint256",
          "name": "_mcr",
          "type": "uint256"
        },
        {
          "internalType": "uint256",
          "name": "_mlr",
          "type": "uint256"
        },
        {
          "internalType": "uint256",
          "name": "_borrowRate",
          "type": "uint256"
        },
        {
          "internalType": "uint256",
          "name": "_decimals",
          "type": "uint256"
        }
      ],
      "name": "setTokenPriceFeed",
      "outputs": [],
      "stateMutability": "nonpayable",
      "type": "function"
    },
    {
      "inputs": [
        {
          "internalType": "address",
          "name": "_token",
          "type": "address"
        }
      ],
      "name": "tokenPrice",
      "outputs": [
        {
          "internalType": "uint256",
          "name": "",
          "type": "uint256"
        }
      ],
      "stateMutability": "view",
      "type": "function"
    },
    {
      "inputs": [
        {
          "internalType": "address",
          "name": "_token",
          "type": "address"
        }
      ],
      "name": "tokenPriceFeed",
      "outputs": [
        {
          "internalType": "address",
          "name": "",
          "type": "address"
        }
      ],
      "stateMutability": "view",
      "type": "function"
    },
    {
      "inputs": [
        {
          "internalType": "address",
          "name": "",
          "type": "address"
        }
      ],
      "name": "tokens",
      "outputs": [
        {
          "internalType": "address",
          "name": "priceFeed",
          "type": "address"
        },
        {
          "internalType": "uint256",
          "name": "mcr",
          "type": "uint256"
        },
        {
          "internalType": "uint256",
          "name": "mlr",
          "type": "uint256"
        },
        {
          "internalType": "uint256",
          "name": "borrowRate",
          "type": "uint256"
        },
        {
          "internalType": "uint256",
          "name": "decimals",
          "type": "uint256"
        }
      ],
      "stateMutability": "view",
      "type": "function"
    },
    {
      "inputs": [
        {
          "internalType": "address",
          "name": "_newOwner",
          "type": "address"
        }
      ],
      "name": "transferOwnership",
      "outputs": [],
      "stateMutability": "nonpayable",
      "type": "function"
    }
  ],
  "transactionHash": "0xb5ce1433e4b7d0a4ffa2368175afb3db3bb7b8d8a28a83bf256ba82d5bdd888b",
  "args": [],
  "numDeployments": 1,
  "solcInputHash": "3d7ac3cd8c655c7d05e6510673d0ef5d",
  "bytecode": "0x608060405234801561001057600080fd5b5061001a3361001f565b61006f565b600080546001600160a01b038381166001600160a01b0319831681178455604051919092169283917f8be0079c531659141344cd1fd0a4f28419497f9722a3daafe3b4186f6b6457e09190a35050565b610c278061007e6000396000f3fe608060405234801561001057600080fd5b50600436106101515760003560e01c8063a20baee6116100cd578063b85a8b2011610081578063d449a83211610066578063d449a832146102a7578063e4860339146102d3578063f2fde38b1461034d57600080fd5b8063b85a8b201461019e578063bb991f111461029457600080fd5b8063abdc5541116100b2578063abdc55411461027c578063aceb2d0414610284578063ad09014d1461028c57600080fd5b8063a20baee614610214578063aa41911f1461024f57600080fd5b806375b78544116101245780638da5cb5b116101095780638da5cb5b146101ef578063923c1eec146102145780639878cbb31461022357600080fd5b806375b78544146101b057806384ba3f69146101dc57600080fd5b806308c728e114610156578063098d3228146101955780634bb970421461019e578063715018a6146101a6575b600080fd5b61018261016436600461099e565b6001600160a01b031660009081526001602052604090206003015490565b6040519081526020015b60405180910390f35b61018260001981565b610182610360565b6101ae610382565b005b6101826101be36600461099e565b6001600160a01b031660009081526001602052604090206002015490565b6101826101ea36600461099e565b610396565b6000546001600160a01b03165b6040516001600160a01b03909116815260200161018c565b610182670de0b6b3a764000081565b6101fc61023136600461099e565b6001600160a01b039081166000908152600160205260409020541690565b61018261025d36600461099e565b6001600160a01b03166000908152600160208190526040909120015490565b610182610430565b610182610445565b610182610466565b6101ae6102a23660046109c0565b610490565b6101826102b536600461099e565b6001600160a01b031660009081526001602052604090206004015490565b61031b6102e136600461099e565b6001602081905260009182526040909120805491810154600282015460038301546004909301546001600160a01b03909416939192909185565b604080516001600160a01b0390961686526020860194909452928401919091526060830152608082015260a00161018c565b6101ae61035b36600461099e565b610832565b6064610375670de0b6b3a76400006001610a15565b61037f9190610a3a565b81565b61038a61083e565b6103946000610898565b565b6001600160a01b0380821660009081526001602090815260408083205481517fa035b1fe00000000000000000000000000000000000000000000000000000000815291519394169263a035b1fe926004808401939192918290030181865afa158015610406573d6000803e3d6000fd5b505050506040513d601f19601f8201168201806040525081019061042a9190610a5c565b92915050565b6064610375670de0b6b3a76400006005610a15565b6002606461045c670de0b6b3a76400006001610a15565b6103759190610a3a565b606461047b670de0b6b3a76400006001610a15565b6104859190610a3a565b61037f90600a610a15565b61049861083e565b60648410156104ee5760405162461bcd60e51b815260206004820152600960248201527f4d4352203c20313030000000000000000000000000000000000000000000000060448201526064015b60405180910390fd5b606483101580156104ff5750838311155b61054b5760405162461bcd60e51b815260206004820152601660248201527f4d4c52203c20313030206f72204d4c52203e204d43520000000000000000000060448201526064016104e5565b6000811161059b5760405162461bcd60e51b815260206004820152600c60248201527f646563696d616c73203d2030000000000000000000000000000000000000000060448201526064016104e5565b678ac7230489e8000082106105f25760405162461bcd60e51b815260206004820152601160248201527f626f72726f7752617465203e3d2031302500000000000000000000000000000060448201526064016104e5565b6001600160a01b03808716600090815260016020818152604092839020835160a0810185529281015491830191909152600281015492820192909252600382015460608201526004909101546080820152908616815286606461065d87670de0b6b3a7640000610a15565b6106679190610a3a565b6020830152606461068086670de0b6b3a7640000610a15565b61068a9190610a3a565b82604001818152505083826060018181525050828260800181815250507f4e3ca5055d5696ad688596326d7f0efc1fe560593ad98288eff8a56cebca6a078888836001600160a01b03166306fdde036040518163ffffffff1660e01b8152600401600060405180830381865afa158015610708573d6000803e3d6000fd5b505050506040513d6000823e601f3d908101601f191682016040526107309190810190610aaf565b846001600160a01b03166395d89b416040518163ffffffff1660e01b8152600401600060405180830381865afa15801561076e573d6000803e3d6000fd5b505050506040513d6000823e601f3d908101601f191682016040526107969190810190610aaf565b602087015160408089015160608a015160808b015192516107bc98979695949390610b88565b60405180910390a1506001600160a01b039687166000908152600160208181526040928390208451815473ffffffffffffffffffffffffffffffffffffffff19169b169a909a178a5583015190890155810151600288015560608101516003880155608001516004909601959095555050505050565b61083b816108f5565b50565b6000546001600160a01b031633146103945760405162461bcd60e51b815260206004820181905260248201527f4f776e61626c653a2063616c6c6572206973206e6f7420746865206f776e657260448201526064016104e5565b600080546001600160a01b0383811673ffffffffffffffffffffffffffffffffffffffff19831681178455604051919092169283917f8be0079c531659141344cd1fd0a4f28419497f9722a3daafe3b4186f6b6457e09190a35050565b6108fd61083e565b6001600160a01b0381166109795760405162461bcd60e51b815260206004820152602660248201527f4f776e61626c653a206e6577206f776e657220697320746865207a65726f206160448201527f646472657373000000000000000000000000000000000000000000000000000060648201526084016104e5565b61083b81610898565b80356001600160a01b038116811461099957600080fd5b919050565b6000602082840312156109b057600080fd5b6109b982610982565b9392505050565b60008060008060008060c087890312156109d957600080fd5b6109e287610982565b95506109f060208801610982565b95989597505050506040840135936060810135936080820135935060a0909101359150565b808202811582820484141761042a57634e487b7160e01b600052601160045260246000fd5b600082610a5757634e487b7160e01b600052601260045260246000fd5b500490565b600060208284031215610a6e57600080fd5b5051919050565b634e487b7160e01b600052604160045260246000fd5b60005b83811015610aa6578181015183820152602001610a8e565b50506000910152565b600060208284031215610ac157600080fd5b815167ffffffffffffffff80821115610ad957600080fd5b818401915084601f830112610aed57600080fd5b815181811115610aff57610aff610a75565b604051601f8201601f19908116603f01168101908382118183101715610b2757610b27610a75565b81604052828152876020848701011115610b4057600080fd5b610b51836020830160208801610a8b565b979650505050505050565b60008151808452610b74816020860160208601610a8b565b601f01601f19169290920160200192915050565b60006101006001600160a01b03808c168452808b16602085015250806040840152610bb58184018a610b5c565b90508281036060840152610bc98189610b5c565b9150508560808301528460a08301528360c08301528260e0830152999850505050505050505056fea2646970667358221220f9f7342ede5b8e48fca8a230c9533a38650afe2c16242f97e59d0c97d3a23d3c64736f6c63430008130033",
  "devdoc": {
    "kind": "dev",
    "methods": {
      "renounceOwnership()": {
        "details": "Leaves the contract without owner. It will not be possible to call `onlyOwner` functions. Can only be called by the current owner. NOTE: Renouncing ownership will leave the contract without an owner, thereby disabling any functionality that is only available to the owner."
      },
      "setTokenPriceFeed(address,address,uint256,uint256,uint256,uint256)": {
        "details": "to set or change priceFeed contract for token",
        "params": {
          "_decimals": "decimals of the token",
          "_mcr": "minimal collateral ratio of the token",
          "_mlr": "minimal liquidation ratio of the token",
          "_priceFeed": "address of the PriceFeed contract for token",
          "_token": "address of the token"
        }
      },
      "tokenPrice(address)": {
        "details": "to get token price",
        "params": {
          "_token": "address of the token"
        }
      },
      "transferOwnership(address)": {
        "details": "transfers user's trove ownership after revoking other roles from other addresses",
        "params": {
          "_newOwner": "the address of the new owner"
        }
      }
    },
    "version": 1
  },
  "userdoc": {
    "kind": "user",
    "methods": {},
    "version": 1
  },
  "storageLayout": {
    "storage": [
      {
        "astId": 110,
        "contract": "contracts/TokenToPriceFeed.sol:TokenToPriceFeed",
        "label": "_owner",
        "offset": 0,
        "slot": "0",
        "type": "t_address"
      },
      {
        "astId": 7585,
        "contract": "contracts/TokenToPriceFeed.sol:TokenToPriceFeed",
        "label": "tokens",
        "offset": 0,
        "slot": "1",
        "type": "t_mapping(t_address,t_struct(TokenInfo)12315_storage)"
      }
    ],
    "types": {
      "t_address": {
        "encoding": "inplace",
        "label": "address",
        "numberOfBytes": "20"
      },
      "t_mapping(t_address,t_struct(TokenInfo)12315_storage)": {
        "encoding": "mapping",
        "key": "t_address",
        "label": "mapping(address => struct ITokenPriceFeed.TokenInfo)",
        "numberOfBytes": "32",
        "value": "t_struct(TokenInfo)12315_storage"
      },
      "t_struct(TokenInfo)12315_storage": {
        "encoding": "inplace",
        "label": "struct ITokenPriceFeed.TokenInfo",
        "members": [
          {
            "astId": 12306,
            "contract": "contracts/TokenToPriceFeed.sol:TokenToPriceFeed",
            "label": "priceFeed",
            "offset": 0,
            "slot": "0",
            "type": "t_address"
          },
          {
            "astId": 12308,
            "contract": "contracts/TokenToPriceFeed.sol:TokenToPriceFeed",
            "label": "mcr",
            "offset": 0,
            "slot": "1",
            "type": "t_uint256"
          },
          {
            "astId": 12310,
            "contract": "contracts/TokenToPriceFeed.sol:TokenToPriceFeed",
            "label": "mlr",
            "offset": 0,
            "slot": "2",
            "type": "t_uint256"
          },
          {
            "astId": 12312,
            "contract": "contracts/TokenToPriceFeed.sol:TokenToPriceFeed",
            "label": "borrowRate",
            "offset": 0,
            "slot": "3",
            "type": "t_uint256"
          },
          {
            "astId": 12314,
            "contract": "contracts/TokenToPriceFeed.sol:TokenToPriceFeed",
            "label": "decimals",
            "offset": 0,
            "slot": "4",
            "type": "t_uint256"
          }
        ],
        "numberOfBytes": "160"
      },
      "t_uint256": {
        "encoding": "inplace",
        "label": "uint256",
        "numberOfBytes": "32"
      }
    }
  }
}