{
  "address": "0x1E7224703E1B289e06F0Ff12519685fCf8E9306c",
  "abi": [
    {
      "inputs": [
        {
          "internalType": "address",
          "name": "_vaultAddress",
          "type": "address"
        }
      ],
      "name": "getBorrowRate",
      "outputs": [
        {
          "internalType": "uint256",
          "name": "",
          "type": "uint256"
        }
      ],
      "stateMutability": "view",
      "type": "function"
    }
  ],
  "transactionHash": "0x3d81c5a79d4c3356496af228e77cc1beb50f14f4e02da32ebd21630640150196",
  "args": [],
  "numDeployments": 1,
  "solcInputHash": "3d7ac3cd8c655c7d05e6510673d0ef5d",
  "bytecode": "0x608060405234801561001057600080fd5b50610791806100206000396000f3fe608060405234801561001057600080fd5b506004361061002b5760003560e01c8063d71275f614610030575b600080fd5b61004361003e36600461057d565b610055565b60405190815260200160405180910390f35b6000808290506000816001600160a01b031663c45a01556040518163ffffffff1660e01b8152600401602060405180830381865afa15801561009b573d6000803e3d6000fd5b505050506040513d601f19601f820116820180604052508101906100bf91906105a1565b90506000816001600160a01b031663741bef1a6040518163ffffffff1660e01b8152600401602060405180830381865afa158015610101573d6000803e3d6000fd5b505050506040513d601f19601f8201168201806040525081019061012591906105a1565b90506000806000856001600160a01b03166329ad2fb26040518163ffffffff1660e01b8152600401602060405180830381865afa15801561016a573d6000803e3d6000fd5b505050506040513d601f19601f8201168201806040525081019061018e91906105be565b905060005b8181101561052f576040517f1f665646000000000000000000000000000000000000000000000000000000008152600481018290526000906001600160a01b03891690631f66564690602401602060405180830381865afa1580156101fc573d6000803e3d6000fd5b505050506040513d601f19601f8201168201806040525081019061022091906105a1565b6040517fa5fdc5de0000000000000000000000000000000000000000000000000000000081526001600160a01b0380831660048301529192506000918a169063a5fdc5de90602401602060405180830381865afa158015610285573d6000803e3d6000fd5b505050506040513d601f19601f820116820180604052508101906102a991906105be565b6040517f84ba3f690000000000000000000000000000000000000000000000000000000081526001600160a01b0384811660048301529192506000918916906384ba3f6990602401602060405180830381865afa15801561030e573d6000803e3d6000fd5b505050506040513d601f19601f8201168201806040525081019061033291906105be565b6040517f08c728e10000000000000000000000000000000000000000000000000000000081526001600160a01b0385811660048301529192506000918a16906308c728e190602401602060405180830381865afa158015610397573d6000803e3d6000fd5b505050506040513d601f19601f820116820180604052508101906103bb91906105be565b604051636a24d41960e11b81526001600160a01b0386811660048301529192506000918b169063d449a83290602401602060405180830381865afa158015610407573d6000803e3d6000fd5b505050506040513d601f19601f8201168201806040525081019061042b91906105be565b6104369060126105ed565b61044190600a6106ea565b61044b90856106f6565b604051636a24d41960e11b81526001600160a01b0387811660048301529192506000918c169063d449a83290602401602060405180830381865afa158015610497573d6000803e3d6000fd5b505050506040513d601f19601f820116820180604052508101906104bb91906105be565b6104c690600a6106ea565b6104d085846106f6565b6104da919061070d565b90506000670de0b6b3a76400006104f185846106f6565b6104fb919061070d565b9050610507828b61072f565b9950610513818c61072f565b9a5050505050505050808061052790610742565b915050610193565b5060648261054585670de0b6b3a76400006106f6565b61054f919061070d565b610559919061070d565b98975050505050505050565b6001600160a01b038116811461057a57600080fd5b50565b60006020828403121561058f57600080fd5b813561059a81610565565b9392505050565b6000602082840312156105b357600080fd5b815161059a81610565565b6000602082840312156105d057600080fd5b5051919050565b634e487b7160e01b600052601160045260246000fd5b81810381811115610600576106006105d7565b92915050565b600181815b80851115610641578160001904821115610627576106276105d7565b8085161561063457918102915b93841c939080029061060b565b509250929050565b60008261065857506001610600565b8161066557506000610600565b816001811461067b5760028114610685576106a1565b6001915050610600565b60ff841115610696576106966105d7565b50506001821b610600565b5060208310610133831016604e8410600b84101617156106c4575081810a610600565b6106ce8383610606565b80600019048211156106e2576106e26105d7565b029392505050565b600061059a8383610649565b8082028115828204841417610600576106006105d7565b60008261072a57634e487b7160e01b600052601260045260246000fd5b500490565b80820180821115610600576106006105d7565b600060018201610754576107546105d7565b506001019056fea26469706673582212207aab02bd0929aa242e1c2c1d96b601f6de61c8a9427036a59541e30792ac7f1964736f6c63430008130033",
  "devdoc": {
    "kind": "dev",
    "methods": {},
    "version": 1
  },
  "userdoc": {
    "kind": "user",
    "methods": {},
    "version": 1
  },
  "storageLayout": {
    "storage": [],
    "types": null
  }
}