{
  "address": "0xDFf76acD594101fB5e9FaE176aEDb21A7a1Fe39F",
  "abi": [
    {
      "inputs": [
        {
          "internalType": "address",
          "name": "_factory",
          "type": "address"
        },
        {
          "internalType": "address",
          "name": "_vaultOwner",
          "type": "address"
        },
        {
          "internalType": "string",
          "name": "_name",
          "type": "string"
        }
      ],
      "name": "deployVault",
      "outputs": [
        {
          "internalType": "address",
          "name": "",
          "type": "address"
        }
      ],
      "stateMutability": "nonpayable",
      "type": "function"
    }
  ],
  "transactionHash": "0x1d9bf3a80b4512a513bb1bf692834a79463d029b014df76705b8cea81ca840f3",
  "args": [],
  "numDeployments": 1,
  "solcInputHash": "c1f01be883389fd2b5739513123641b4",
  "bytecode": "0x608060405234801561001057600080fd5b50613662806100206000396000f3fe608060405234801561001057600080fd5b506004361061002b5760003560e01c80631233d5f414610030575b600080fd5b61004361003e366004610115565b61006c565b60405173ffffffffffffffffffffffffffffffffffffffff909116815260200160405180910390f35b60008084848460405161007e906100b0565b61008a939291906101e7565b604051809103906000f0801580156100a6573d6000803e3d6000fd5b5095945050505050565b6133cd8061026083390190565b803573ffffffffffffffffffffffffffffffffffffffff811681146100e157600080fd5b919050565b7f4e487b7100000000000000000000000000000000000000000000000000000000600052604160045260246000fd5b60008060006060848603121561012a57600080fd5b610133846100bd565b9250610141602085016100bd565b9150604084013567ffffffffffffffff8082111561015e57600080fd5b818601915086601f83011261017257600080fd5b813581811115610184576101846100e6565b604051601f8201601f19908116603f011681019083821181831017156101ac576101ac6100e6565b816040528281528960208487010111156101c557600080fd5b8260208601602083013760006020848301015280955050505050509250925092565b600073ffffffffffffffffffffffffffffffffffffffff8086168352602081861681850152606060408501528451915081606085015260005b8281101561023c57858101820151858201608001528101610220565b50506000608082850101526080601f19601f83011684010191505094935050505056fe60c06040523480156200001157600080fd5b50604051620033cd380380620033cd8339810160408190526200003491620001ee565b6001600160a01b038216620000835760405162461bcd60e51b815260206004820152601060248201526f07661756c742d6f776e65722d69732d360841b60448201526064015b60405180910390fd5b6000815111620000c65760405162461bcd60e51b815260206004820152600d60248201526c6e616d652d69732d656d70747960981b60448201526064016200007a565b6001600160a01b0383166200010d5760405162461bcd60e51b815260206004820152600c60248201526b0666163746f72792d69732d360a41b60448201526064016200007a565b6001600160a01b0383811660a0819052600080546001600160a01b03191692851692909217909155604080516322be3de160e01b815290516322be3de1916004808201926020929091908290030181865afa15801562000171573d6000803e3d6000fd5b505050506040513d601f19601f82011682018060405250810190620001979190620002e8565b6001600160a01b03166080526001620001b182826200039c565b5050505062000468565b80516001600160a01b0381168114620001d357600080fd5b919050565b634e487b7160e01b600052604160045260246000fd5b6000806000606084860312156200020457600080fd5b6200020f84620001bb565b9250602062000220818601620001bb565b60408601519093506001600160401b03808211156200023e57600080fd5b818701915087601f8301126200025357600080fd5b815181811115620002685762000268620001d8565b604051601f8201601f19908116603f01168101908382118183101715620002935762000293620001d8565b816040528281528a86848701011115620002ac57600080fd5b600093505b82841015620002d05784840186015181850187015292850192620002b1565b60008684830101528096505050505050509250925092565b600060208284031215620002fb57600080fd5b6200030682620001bb565b9392505050565b600181811c908216806200032257607f821691505b6020821081036200034357634e487b7160e01b600052602260045260246000fd5b50919050565b601f8211156200039757600081815260208120601f850160051c81016020861015620003725750805b601f850160051c820191505b8181101562000393578281556001016200037e565b5050505b505050565b81516001600160401b03811115620003b857620003b8620001d8565b620003d081620003c984546200030d565b8462000349565b602080601f831160018114620004085760008415620003ef5750858301515b600019600386901b1c1916600185901b17855562000393565b600085815260208120601f198616915b82811015620004395788860151825594840194600190910190840162000418565b5085821015620004585787850151600019600388901b60f8161c191681555b5050505050600190811b01905550565b60805160a051612ecf620004fe600039600081816104ec0152818161066c0152818161097401528181610a4b01528181610bc201528181610c5901528181610e6501528181610f760152818161127b0152818161137e01528181611478015281816116330152818161171201528181611c5301528181611df801528181611fa90152612158015260006103530152612ecf6000f3fe608060405234801561001057600080fd5b50600436106102925760003560e01c80636d75b9ee11610160578063ad09014d116100d8578063c47f00271161008c578063e071c0ca11610071578063e071c0ca14610534578063e99a6ac714610547578063ffa1ad741461054f57600080fd5b8063c47f00271461050e578063c5ebeaec1461052157600080fd5b8063b8911267116100bd578063b8911267146104c1578063c3f7e0b7146104d4578063c45a0155146104e757600080fd5b8063ad09014d146104b9578063b85a8b20146103dd57600080fd5b8063a20baee61161012f578063abdc554111610114578063abdc554114610496578063ac8a584a1461049e578063aceb2d04146104b157600080fd5b8063a20baee614610454578063a5fdc5de1461047657600080fd5b80636d75b9ee1461042e5780638a1bcd7714610441578063923c1eec146104545780639870d7fe1461046357600080fd5b806328a070251161020e5780634ba2ad45116101c25780634bfc894d116101a75780634bfc894d146103e55780636b5bc994146104085780636d70f7ae1461041b57600080fd5b80634ba2ad45146103d55780634bb97042146103dd57600080fd5b8063371fd8e6116101f3578063371fd8e6146103985780633879b0c5146103ad5780634113e5ca146103c057600080fd5b806328a070251461038857806329ad2fb21461039057600080fd5b80631e9a6950116102655780631f6656461161024a5780631f6656461461033b57806322be3de11461034e578063261423351461037557600080fd5b80631e9a6950146102e85780631f52692b1461031057600080fd5b806306fdde0314610297578063098d3228146102b557806309d3655d146102cc5780630dca59c1146102df575b600080fd5b61029f61058b565b6040516102ac919061288d565b60405180910390f35b6102be60001981565b6040519081526020016102ac565b6102be6102da3660046128d1565b610619565b6102be60075481565b6102fb6102f6366004612916565b610666565b604080519283526020830191909152016102ac565b600054610323906001600160a01b031681565b6040516001600160a01b0390911681526020016102ac565b610323610349366004612942565b610955565b6103237f000000000000000000000000000000000000000000000000000000000000000081565b610323610383366004612942565b610962565b6102be61096f565b6102be610e51565b6103ab6103a6366004612942565b610e62565b005b6103ab6103bb36600461295b565b610f73565b6103c861118a565b6040516102ac919061299d565b6102be61123d565b6102be611249565b6103f86103f33660046129ea565b61126b565b60405190151581526020016102ac565b6103ab610416366004612942565b611278565b6103f86104293660046129ea565b61136e565b6103ab61043c366004612916565b61137b565b6102fb61044f366004612a07565b6115d6565b6102be670de0b6b3a764000081565b6103ab6104713660046129ea565b611a9a565b6102be6104843660046129ea565b60066020526000908152604090205481565b6102be611b45565b6103ab6104ac3660046129ea565b611b5a565b6102be611c01565b6102be611c22565b6102fb6104cf366004612916565b611c4c565b6102be6104e2366004612a5a565b611ea4565b6103237f000000000000000000000000000000000000000000000000000000000000000081565b6103ab61051c366004612a8d565b611ef3565b6103ab61052f366004612942565b611fa6565b6103ab6105423660046129ea565b612155565b6102fb6121f6565b61029f6040518060400160405280600581526020017f312e302e3000000000000000000000000000000000000000000000000000000081525081565b6001805461059890612b3e565b80601f01602080910402602001604051908101604052809291908181526020018280546105c490612b3e565b80156106115780601f106105e657610100808354040283529160200191610611565b820191906000526020600020905b8154815290600101906020018083116105f457829003601f168201915b505050505081565b60008260000361062c5750600019610660565b600061063c6000806000866115d6565b50905083610652670de0b6b3a764000083612b88565b61065c9190612b9f565b9150505b92915050565b600080337f00000000000000000000000000000000000000000000000000000000000000006001600160a01b0316146106d55760405162461bcd60e51b815260206004820152600c60248201526b6f6e6c792d666163746f727960a01b60448201526064015b60405180910390fd5b6001600160a01b03841661071d5760405162461bcd60e51b815260206004820152600f60248201526e0636f6c6c61746572616c2d69732d3608c1b60448201526064016106cc565b6000831161075b5760405162461bcd60e51b815260206004820152600b60248201526a0616d6f756e742d69732d360ac1b60448201526064016106cc565b610766600285612210565b6107b25760405162461bcd60e51b815260206004820152601460248201527f636f6c6c61746572616c2d6e6f742d616464656400000000000000000000000060448201526064016106cc565b6001600160a01b03841660009081526006602052604090205483111561081a5760405162461bcd60e51b815260206004820152601560248201527f6e6f742d656e6f7567682d636f6c6c61746572616c000000000000000000000060448201526064016106cc565b6001600160a01b03841660009081526006602052604081208054859290610842908490612bc1565b9091555061085290508484611c4c565b8092508193505050816007600082825461086c9190612bc1565b90915550506001600160a01b038416600090815260066020526040812054900361089d5761089b600285612232565b505b6108b16001600160a01b0385163385612247565b6001600160a01b03841660008181526006602090815260409182902054825187815291820152908101849052606081018390527fe3c5362354987ae7844588482f3912d58e2cb3ffa7d04a1d3025c99fa996d5259060800160405180910390a26007546040805184815260208101929092527f0d4979b0859a1951f8ed7cbe3b1994e740552588f27ba02ca0f8f1ddcad16e0c910160405180910390a19250929050565b60006106606002836122f5565b60006106606004836122f5565b6000337f00000000000000000000000000000000000000000000000000000000000000006001600160a01b0316146109d85760405162461bcd60e51b815260206004820152600c60248201526b6f6e6c792d666163746f727960a01b60448201526064016106cc565b670de0b6b3a76400006109eb6001611ea4565b10610a385760405162461bcd60e51b815260206004820152601a60248201527f6c69717569646174696f6e2d666163746f722d61626f76652d3100000000000060448201526064016106cc565b60006007549050600060078190555060007f00000000000000000000000000000000000000000000000000000000000000006001600160a01b031663679fda706040518163ffffffff1660e01b8152600401602060405180830381865afa158015610aa7573d6000803e3d6000fd5b505050506040513d601f19601f82011682018060405250810190610acb9190612bd4565b905060005b610ada6002612301565b811015610d7d576000610aee6002836122f5565b6001600160a01b0381166000818152600660205260408082205490517f70a08231000000000000000000000000000000000000000000000000000000008152306004820152939450929091906370a0823190602401602060405180830381865afa158015610b60573d6000803e3d6000fd5b505050506040513d601f19601f82011682018060405250810190610b849190612bf1565b905081811015610b92578091505b600060066000856001600160a01b03166001600160a01b0316815260200190815260200160002081905550610c547f00000000000000000000000000000000000000000000000000000000000000006001600160a01b031663679fda706040518163ffffffff1660e01b8152600401602060405180830381865afa158015610c1e573d6000803e3d6000fd5b505050506040513d601f19601f82011682018060405250810190610c429190612bd4565b6001600160a01b03851690600061230b565b610cec7f00000000000000000000000000000000000000000000000000000000000000006001600160a01b031663679fda706040518163ffffffff1660e01b8152600401602060405180830381865afa158015610cb5573d6000803e3d6000fd5b505050506040513d601f19601f82011682018060405250810190610cd99190612bd4565b6001600160a01b0385169060001961230b565b6040517fb7017b910000000000000000000000000000000000000000000000000000000081526001600160a01b0384811660048301526024820184905286169063b7017b9190604401600060405180830381600087803b158015610d4f57600080fd5b505af1158015610d63573d6000803e3d6000fd5b505050505050508080610d7590612c0a565b915050610ad0565b506040517f2fb04272000000000000000000000000000000000000000000000000000000008152306004820152602481018390526001600160a01b03821690632fb0427290604401600060405180830381600087803b158015610ddf57600080fd5b505af1158015610df3573d6000803e3d6000fd5b50505050806001600160a01b031663a0c03a366040518163ffffffff1660e01b8152600401600060405180830381600087803b158015610e3257600080fd5b505af1158015610e46573d6000803e3d6000fd5b509395945050505050565b6000610e5d6002612301565b905090565b337f00000000000000000000000000000000000000000000000000000000000000006001600160a01b031614610ec95760405162461bcd60e51b815260206004820152600c60248201526b6f6e6c792d666163746f727960a01b60448201526064016106cc565b600754811115610f1b5760405162461bcd60e51b815260206004820152601360248201527f616d6f756e742d657863656564732d646562740000000000000000000000000060448201526064016106cc565b8060076000828254610f2d9190612bc1565b90915550506007546040805183815260208101929092527f0d4979b0859a1951f8ed7cbe3b1994e740552588f27ba02ca0f8f1ddcad16e0c91015b60405180910390a150565b337f00000000000000000000000000000000000000000000000000000000000000006001600160a01b031614610fda5760405162461bcd60e51b815260206004820152600c60248201526b6f6e6c792d666163746f727960a01b60448201526064016106cc565b6001600160a01b0383166110225760405162461bcd60e51b815260206004820152600f60248201526e0636f6c6c61746572616c2d69732d3608c1b60448201526064016106cc565b600082116110605760405162461bcd60e51b815260206004820152600b60248201526a0616d6f756e742d69732d360ac1b60448201526064016106cc565b6001600160a01b03831660009081526006602052604081208054849290611088908490612bc1565b90915550506001600160a01b03831660009081526006602052604081205490036110b9576110b7600284612232565b505b60006110c56000611ea4565b9050670de0b6b3a764000081101561111f5760405162461bcd60e51b815260206004820152601560248201527f6865616c74682d666163746f722d62656c6f772d31000000000000000000000060448201526064016106cc565b6111336001600160a01b0385168385612247565b6001600160a01b038416600081815260066020908152604091829020548251878152918201527f47e1336b6fdb5f42c3a1d28b558fa98786d820c3705d726358dcc8e63a401eef910160405180910390a250505050565b606060006111986002612301565b67ffffffffffffffff8111156111b0576111b0612a77565b6040519080825280602002602001820160405280156111d9578160200160208202803683370190505b50905060005b6111e96002612301565b811015611237576111fb6002826122f5565b82828151811061120d5761120d612c23565b6001600160a01b03909216602092830291909101909101528061122f81612c0a565b9150506111df565b50919050565b6000610e5d6004612301565b606461125e670de0b6b3a76400006001612b88565b6112689190612b9f565b81565b6000610660600283612210565b337f00000000000000000000000000000000000000000000000000000000000000006001600160a01b0316146112df5760405162461bcd60e51b815260206004820152600c60248201526b6f6e6c792d666163746f727960a01b60448201526064016106cc565b6000811161131d5760405162461bcd60e51b815260206004820152600b60248201526a0616d6f756e742d69732d360ac1b60448201526064016106cc565b806007600082825461132f9190612c39565b90915550506007546040805183815260208101929092527f28c388e35418553e43dc360d4b6b01207242898c8e48fb1a12d9073c0579be6c9101610f68565b6000610660600483612210565b337f00000000000000000000000000000000000000000000000000000000000000006001600160a01b0316146113e25760405162461bcd60e51b815260206004820152600c60248201526b6f6e6c792d666163746f727960a01b60448201526064016106cc565b6001600160a01b03821661142a5760405162461bcd60e51b815260206004820152600f60248201526e0636f6c6c61746572616c2d69732d3608c1b60448201526064016106cc565b600081116114685760405162461bcd60e51b815260206004820152600b60248201526a0616d6f756e742d69732d360ac1b60448201526064016106cc565b611473600283612459565b5060007f00000000000000000000000000000000000000000000000000000000000000006001600160a01b031663ffbfb8ad6040518163ffffffff1660e01b8152600401602060405180830381865afa1580156114d4573d6000803e3d6000fd5b505050506040513d601f19601f820116820180604052508101906114f89190612bf1565b9050806115056002612301565b11156115535760405162461bcd60e51b815260206004820152601260248201527f6d61782d746f6b656e732d72656163686564000000000000000000000000000060448201526064016106cc565b6001600160a01b0383166000908152600660205260408120805484929061157b908490612c39565b90915550506001600160a01b038316600081815260066020908152604091829020548251868152918201527f11f8990ac38271f23dea447d5728e9914fca7cea2edda43af6c43c415f8bc30b910160405180910390a2505050565b6001600160a01b038416600081815260066020526040812054909182919082901561170e576040517ffa6bd2ee0000000000000000000000000000000000000000000000000000000081526001600160a01b0389811660048301527f0000000000000000000000000000000000000000000000000000000000000000169063fa6bd2ee90602401602060405180830381865afa15801561167a573d6000803e3d6000fd5b505050506040513d601f19601f8201168201806040525081019061169e9190612c4c565b6116ea5760405162461bcd60e51b815260206004820152601860248201527f636f6c6c61746572616c2d6e6f742d737570706f72746564000000000000000060448201526064016106cc565b8515611701576116fa8783612c39565b915061170e565b61170b8783612bc1565b91505b60007f00000000000000000000000000000000000000000000000000000000000000006001600160a01b031663741bef1a6040518163ffffffff1660e01b8152600401602060405180830381865afa15801561176e573d6000803e3d6000fd5b505050506040513d601f19601f820116820180604052508101906117929190612bd4565b905060005b6117a16002612301565b811015611a6b5760006117b56002836122f5565b905060008b6001600160a01b0316826001600160a01b0316146117f0576001600160a01b0382166000908152600660205260409020546117f2565b855b6040516384ba3f6960e01b81526001600160a01b0384811660048301529192506000918616906384ba3f6990602401602060405180830381865afa15801561183e573d6000803e3d6000fd5b505050506040513d601f19601f820116820180604052508101906118629190612bf1565b905060008a6118f3576040517faa41911f0000000000000000000000000000000000000000000000000000000081526001600160a01b03858116600483015287169063aa41911f90602401602060405180830381865afa1580156118ca573d6000803e3d6000fd5b505050506040513d601f19601f820116820180604052508101906118ee9190612bf1565b611976565b6040517f75b785440000000000000000000000000000000000000000000000000000000081526001600160a01b0385811660048301528716906375b7854490602401602060405180830381865afa158015611952573d6000803e3d6000fd5b505050506040513d601f19601f820116820180604052508101906119769190612bf1565b604051636a24d41960e11b81526001600160a01b03868116600483015291925060009188169063d449a83290602401602060405180830381865afa1580156119c2573d6000803e3d6000fd5b505050506040513d601f19601f820116820180604052508101906119e69190612bf1565b6119f1906012612bc1565b6119fc90600a612d4d565b611a069085612b88565b90506000670de0b6b3a7640000611a1d8584612b88565b611a279190612b9f565b905082611a3c670de0b6b3a764000083612b88565b611a469190612b9f565b611a50908a612c39565b98505050505050508080611a6390612c0a565b915050611797565b50816007548311611a7d576000611a8a565b600754611a8a9084612bc1565b9450945050505094509492505050565b6000546001600160a01b0316336001600160a01b031614611af05760405162461bcd60e51b815260206004820152601060248201526f37b7363c96bb30bab63a16b7bbb732b960811b60448201526064016106cc565b6001600160a01b038116611b365760405162461bcd60e51b815260206004820152600d60248201526c06f70657261746f722d69732d3609c1b60448201526064016106cc565b611b41600482612459565b5050565b606461125e670de0b6b3a76400006005612b88565b6000546001600160a01b0316336001600160a01b031614611bb05760405162461bcd60e51b815260206004820152601060248201526f37b7363c96bb30bab63a16b7bbb732b960811b60448201526064016106cc565b6001600160a01b038116611bf65760405162461bcd60e51b815260206004820152600d60248201526c06f70657261746f722d69732d3609c1b60448201526064016106cc565b611b41600482612232565b60026064611c18670de0b6b3a76400006001612b88565b61125e9190612b9f565b6064611c37670de0b6b3a76400006001612b88565b611c419190612b9f565b61126890600a612b88565b60008060007f00000000000000000000000000000000000000000000000000000000000000006001600160a01b031663741bef1a6040518163ffffffff1660e01b8152600401602060405180830381865afa158015611caf573d6000803e3d6000fd5b505050506040513d601f19601f82011682018060405250810190611cd39190612bd4565b6040516384ba3f6960e01b81526001600160a01b0387811660048301529192506000918316906384ba3f6990602401602060405180830381865afa158015611d1f573d6000803e3d6000fd5b505050506040513d601f19601f82011682018060405250810190611d439190612bf1565b604051636a24d41960e11b81526001600160a01b03888116600483015291925060009184169063d449a83290602401602060405180830381865afa158015611d8f573d6000803e3d6000fd5b505050506040513d601f19601f82011682018060405250810190611db39190612bf1565b611dbe906012612bc1565b611dc990600a612d4d565b611dd39087612b88565b9050670de0b6b3a7640000611de88383612b88565b611df29190612b9f565b945060007f00000000000000000000000000000000000000000000000000000000000000006001600160a01b031663540385a36040518163ffffffff1660e01b8152600401602060405180830381865afa158015611e54573d6000803e3d6000fd5b505050506040513d601f19601f82011682018060405250810190611e789190612bf1565b9050670de0b6b3a7640000611e8d8288612b88565b611e979190612b9f565b9450505050509250929050565b6000600754600003611eb95750600019919050565b6000611ec96000806000866115d6565b50600754909150611ee2670de0b6b3a764000083612b88565b611eec9190612b9f565b9392505050565b6000546001600160a01b0316336001600160a01b031614611f495760405162461bcd60e51b815260206004820152601060248201526f37b7363c96bb30bab63a16b7bbb732b960811b60448201526064016106cc565b6000815111611f9a5760405162461bcd60e51b815260206004820152600d60248201527f6e616d652d69732d656d7074790000000000000000000000000000000000000060448201526064016106cc565b6001611b418282612da7565b337f00000000000000000000000000000000000000000000000000000000000000006001600160a01b03161461200d5760405162461bcd60e51b815260206004820152600c60248201526b6f6e6c792d666163746f727960a01b60448201526064016106cc565b6000811161204b5760405162461bcd60e51b815260206004820152600b60248201526a0616d6f756e742d69732d360ac1b60448201526064016106cc565b6000806120566121f6565b91509150808311156120aa5760405162461bcd60e51b815260206004820152601560248201527f6e6f742d656e6f7567682d626f72726f7761626c65000000000000000000000060448201526064016106cc565b82600760008282546120bc9190612c39565b90915550506007548210156121135760405162461bcd60e51b815260206004820152601660248201527f6d61782d626f72726f7761626c652d726561636865640000000000000000000060448201526064016106cc565b6007546040805185815260208101929092527f28c388e35418553e43dc360d4b6b01207242898c8e48fb1a12d9073c0579be6c910160405180910390a1505050565b337f00000000000000000000000000000000000000000000000000000000000000006001600160a01b0316146121bc5760405162461bcd60e51b815260206004820152600c60248201526b6f6e6c792d666163746f727960a01b60448201526064016106cc565b600080547fffffffffffffffffffffffff0000000000000000000000000000000000000000166001600160a01b0392909216919091179055565b6000806122076000806000806115d6565b90939092509050565b6001600160a01b03811660009081526001830160205260408120541515611eec565b6000611eec836001600160a01b03841661246e565b6040516001600160a01b0383166024820152604481018290526122f09084907fa9059cbb00000000000000000000000000000000000000000000000000000000906064015b60408051601f198184030181529190526020810180517bffffffffffffffffffffffffffffffffffffffffffffffffffffffff167fffffffff0000000000000000000000000000000000000000000000000000000090931692909217909152612561565b505050565b6000611eec8383612649565b6000610660825490565b80158061239e57506040517fdd62ed3e0000000000000000000000000000000000000000000000000000000081523060048201526001600160a01b03838116602483015284169063dd62ed3e90604401602060405180830381865afa158015612378573d6000803e3d6000fd5b505050506040513d601f19601f8201168201806040525081019061239c9190612bf1565b155b6124105760405162461bcd60e51b815260206004820152603660248201527f5361666545524332303a20617070726f76652066726f6d206e6f6e2d7a65726f60448201527f20746f206e6f6e2d7a65726f20616c6c6f77616e63650000000000000000000060648201526084016106cc565b6040516001600160a01b0383166024820152604481018290526122f09084907f095ea7b3000000000000000000000000000000000000000000000000000000009060640161228c565b6000611eec836001600160a01b038416612673565b60008181526001830160205260408120548015612557576000612492600183612bc1565b85549091506000906124a690600190612bc1565b905081811461250b5760008660000182815481106124c6576124c6612c23565b90600052602060002001549050808760000184815481106124e9576124e9612c23565b6000918252602080832090910192909255918252600188019052604090208390555b855486908061251c5761251c612e67565b600190038181906000526020600020016000905590558560010160008681526020019081526020016000206000905560019350505050610660565b6000915050610660565b60006125b6826040518060400160405280602081526020017f5361666545524332303a206c6f772d6c6576656c2063616c6c206661696c6564815250856001600160a01b03166126c29092919063ffffffff16565b90508051600014806125d75750808060200190518101906125d79190612c4c565b6122f05760405162461bcd60e51b815260206004820152602a60248201527f5361666545524332303a204552433230206f7065726174696f6e20646964206e60448201527f6f7420737563636565640000000000000000000000000000000000000000000060648201526084016106cc565b600082600001828154811061266057612660612c23565b9060005260206000200154905092915050565b60008181526001830160205260408120546126ba57508154600181810184556000848152602080822090930184905584548482528286019093526040902091909155610660565b506000610660565b60606126d184846000856126d9565b949350505050565b6060824710156127515760405162461bcd60e51b815260206004820152602660248201527f416464726573733a20696e73756666696369656e742062616c616e636520666f60448201527f722063616c6c000000000000000000000000000000000000000000000000000060648201526084016106cc565b600080866001600160a01b0316858760405161276d9190612e7d565b60006040518083038185875af1925050503d80600081146127aa576040519150601f19603f3d011682016040523d82523d6000602084013e6127af565b606091505b50915091506127c0878383876127cb565b979650505050505050565b6060831561283a578251600003612833576001600160a01b0385163b6128335760405162461bcd60e51b815260206004820152601d60248201527f416464726573733a2063616c6c20746f206e6f6e2d636f6e747261637400000060448201526064016106cc565b50816126d1565b6126d1838381511561284f5781518083602001fd5b8060405162461bcd60e51b81526004016106cc919061288d565b60005b8381101561288457818101518382015260200161286c565b50506000910152565b60208152600082518060208401526128ac816040850160208701612869565b601f01601f19169190910160400192915050565b80151581146128ce57600080fd5b50565b600080604083850312156128e457600080fd5b8235915060208301356128f6816128c0565b809150509250929050565b6001600160a01b03811681146128ce57600080fd5b6000806040838503121561292957600080fd5b823561293481612901565b946020939093013593505050565b60006020828403121561295457600080fd5b5035919050565b60008060006060848603121561297057600080fd5b833561297b81612901565b925060208401359150604084013561299281612901565b809150509250925092565b6020808252825182820181905260009190848201906040850190845b818110156129de5783516001600160a01b0316835292840192918401916001016129b9565b50909695505050505050565b6000602082840312156129fc57600080fd5b8135611eec81612901565b60008060008060808587031215612a1d57600080fd5b8435612a2881612901565b9350602085013592506040850135612a3f816128c0565b91506060850135612a4f816128c0565b939692955090935050565b600060208284031215612a6c57600080fd5b8135611eec816128c0565b634e487b7160e01b600052604160045260246000fd5b600060208284031215612a9f57600080fd5b813567ffffffffffffffff80821115612ab757600080fd5b818401915084601f830112612acb57600080fd5b813581811115612add57612add612a77565b604051601f8201601f19908116603f01168101908382118183101715612b0557612b05612a77565b81604052828152876020848701011115612b1e57600080fd5b826020860160208301376000928101602001929092525095945050505050565b600181811c90821680612b5257607f821691505b60208210810361123757634e487b7160e01b600052602260045260246000fd5b634e487b7160e01b600052601160045260246000fd5b808202811582820484141761066057610660612b72565b600082612bbc57634e487b7160e01b600052601260045260246000fd5b500490565b8181038181111561066057610660612b72565b600060208284031215612be657600080fd5b8151611eec81612901565b600060208284031215612c0357600080fd5b5051919050565b600060018201612c1c57612c1c612b72565b5060010190565b634e487b7160e01b600052603260045260246000fd5b8082018082111561066057610660612b72565b600060208284031215612c5e57600080fd5b8151611eec816128c0565b600181815b80851115612ca4578160001904821115612c8a57612c8a612b72565b80851615612c9757918102915b93841c9390800290612c6e565b509250929050565b600082612cbb57506001610660565b81612cc857506000610660565b8160018114612cde5760028114612ce857612d04565b6001915050610660565b60ff841115612cf957612cf9612b72565b50506001821b610660565b5060208310610133831016604e8410600b8410161715612d27575081810a610660565b612d318383612c69565b8060001904821115612d4557612d45612b72565b029392505050565b6000611eec8383612cac565b601f8211156122f057600081815260208120601f850160051c81016020861015612d805750805b601f850160051c820191505b81811015612d9f57828155600101612d8c565b505050505050565b815167ffffffffffffffff811115612dc157612dc1612a77565b612dd581612dcf8454612b3e565b84612d59565b602080601f831160018114612e0a5760008415612df25750858301515b600019600386901b1c1916600185901b178555612d9f565b600085815260208120601f198616915b82811015612e3957888601518255948401946001909101908401612e1a565b5085821015612e575787850151600019600388901b60f8161c191681555b5050505050600190811b01905550565b634e487b7160e01b600052603160045260246000fd5b60008251612e8f818460208701612869565b919091019291505056fea26469706673582212202ce19673a140bdebb5c95b755c0579f7c77a5501b159bbf349085b34e0d1925c64736f6c63430008130033a264697066735822122075c780f1561c2075d1736a0b16dd735b421329e50c0f3408be1db1d56719298b64736f6c63430008130033",
  "devdoc": {
    "kind": "dev",
    "methods": {},
    "version": 1
  },
  "userdoc": {
    "kind": "user",
    "methods": {},
    "version": 1
  },
  "storageLayout": {
    "storage": [],
    "types": null
  }
}